{
  "_format": "hh-sol-artifact-1",
  "contractName": "TimeNFT",
  "sourceName": "contracts/TimeNFT.sol",
  "abi": [
    {
      "inputs": [],
      "stateMutability": "nonpayable",
      "type": "constructor"
    },
    {
      "inputs": [
        {
          "internalType": "address",
          "name": "sender",
          "type": "address"
        },
        {
          "internalType": "uint256",
          "name": "tokenId",
          "type": "uint256"
        },
        {
          "internalType": "address",
          "name": "owner",
          "type": "address"
        }
      ],
      "name": "ERC721IncorrectOwner",
      "type": "error"
    },
    {
      "inputs": [
        {
          "internalType": "address",
          "name": "operator",
          "type": "address"
        },
        {
          "internalType": "uint256",
          "name": "tokenId",
          "type": "uint256"
        }
      ],
      "name": "ERC721InsufficientApproval",
      "type": "error"
    },
    {
      "inputs": [
        {
          "internalType": "address",
          "name": "approver",
          "type": "address"
        }
      ],
      "name": "ERC721InvalidApprover",
      "type": "error"
    },
    {
      "inputs": [
        {
          "internalType": "address",
          "name": "operator",
          "type": "address"
        }
      ],
      "name": "ERC721InvalidOperator",
      "type": "error"
    },
    {
      "inputs": [
        {
          "internalType": "address",
          "name": "owner",
          "type": "address"
        }
      ],
      "name": "ERC721InvalidOwner",
      "type": "error"
    },
    {
      "inputs": [
        {
          "internalType": "address",
          "name": "receiver",
          "type": "address"
        }
      ],
      "name": "ERC721InvalidReceiver",
      "type": "error"
    },
    {
      "inputs": [
        {
          "internalType": "address",
          "name": "sender",
          "type": "address"
        }
      ],
      "name": "ERC721InvalidSender",
      "type": "error"
    },
    {
      "inputs": [
        {
          "internalType": "uint256",
          "name": "tokenId",
          "type": "uint256"
        }
      ],
      "name": "ERC721NonexistentToken",
      "type": "error"
    },
    {
      "inputs": [
        {
          "internalType": "address",
          "name": "owner",
          "type": "address"
        }
      ],
      "name": "OwnableInvalidOwner",
      "type": "error"
    },
    {
      "inputs": [
        {
          "internalType": "address",
          "name": "account",
          "type": "address"
        }
      ],
      "name": "OwnableUnauthorizedAccount",
      "type": "error"
    },
    {
      "anonymous": false,
      "inputs": [
        {
          "indexed": true,
          "internalType": "address",
          "name": "owner",
          "type": "address"
        },
        {
          "indexed": true,
          "internalType": "address",
          "name": "approved",
          "type": "address"
        },
        {
          "indexed": true,
          "internalType": "uint256",
          "name": "tokenId",
          "type": "uint256"
        }
      ],
      "name": "Approval",
      "type": "event"
    },
    {
      "anonymous": false,
      "inputs": [
        {
          "indexed": true,
          "internalType": "address",
          "name": "owner",
          "type": "address"
        },
        {
          "indexed": true,
          "internalType": "address",
          "name": "operator",
          "type": "address"
        },
        {
          "indexed": false,
          "internalType": "bool",
          "name": "approved",
          "type": "bool"
        }
      ],
      "name": "ApprovalForAll",
      "type": "event"
    },
    {
      "anonymous": false,
      "inputs": [
        {
          "indexed": true,
          "internalType": "address",
          "name": "previousOwner",
          "type": "address"
        },
        {
          "indexed": true,
          "internalType": "address",
          "name": "newOwner",
          "type": "address"
        }
      ],
      "name": "OwnershipTransferred",
      "type": "event"
    },
    {
      "anonymous": false,
      "inputs": [
        {
          "indexed": true,
          "internalType": "address",
          "name": "from",
          "type": "address"
        },
        {
          "indexed": true,
          "internalType": "address",
          "name": "to",
          "type": "address"
        },
        {
          "indexed": true,
          "internalType": "uint256",
          "name": "tokenId",
          "type": "uint256"
        }
      ],
      "name": "Transfer",
      "type": "event"
    },
    {
      "inputs": [
        {
          "internalType": "address",
          "name": "to",
          "type": "address"
        },
        {
          "internalType": "uint256",
          "name": "tokenId",
          "type": "uint256"
        }
      ],
      "name": "approve",
      "outputs": [],
      "stateMutability": "nonpayable",
      "type": "function"
    },
    {
      "inputs": [
        {
          "internalType": "address",
          "name": "owner",
          "type": "address"
        }
      ],
      "name": "balanceOf",
      "outputs": [
        {
          "internalType": "uint256",
          "name": "",
          "type": "uint256"
        }
      ],
      "stateMutability": "view",
      "type": "function"
    },
    {
      "inputs": [
        {
          "internalType": "uint256",
          "name": "tokenId",
          "type": "uint256"
        }
      ],
      "name": "getApproved",
      "outputs": [
        {
          "internalType": "address",
          "name": "",
          "type": "address"
        }
      ],
      "stateMutability": "view",
      "type": "function"
    },
    {
      "inputs": [
        {
          "internalType": "address",
          "name": "owner",
          "type": "address"
        },
        {
          "internalType": "address",
          "name": "operator",
          "type": "address"
        }
      ],
      "name": "isApprovedForAll",
      "outputs": [
        {
          "internalType": "bool",
          "name": "",
          "type": "bool"
        }
      ],
      "stateMutability": "view",
      "type": "function"
    },
    {
      "inputs": [
        {
          "internalType": "address",
          "name": "to",
          "type": "address"
        }
      ],
      "name": "mint",
      "outputs": [
        {
          "internalType": "uint256",
          "name": "",
          "type": "uint256"
        }
      ],
      "stateMutability": "nonpayable",
      "type": "function"
    },
    {
      "inputs": [],
      "name": "name",
      "outputs": [
        {
          "internalType": "string",
          "name": "",
          "type": "string"
        }
      ],
      "stateMutability": "view",
      "type": "function"
    },
    {
      "inputs": [],
      "name": "owner",
      "outputs": [
        {
          "internalType": "address",
          "name": "",
          "type": "address"
        }
      ],
      "stateMutability": "view",
      "type": "function"
    },
    {
      "inputs": [
        {
          "internalType": "uint256",
          "name": "tokenId",
          "type": "uint256"
        }
      ],
      "name": "ownerOf",
      "outputs": [
        {
          "internalType": "address",
          "name": "",
          "type": "address"
        }
      ],
      "stateMutability": "view",
      "type": "function"
    },
    {
      "inputs": [],
      "name": "renounceOwnership",
      "outputs": [],
      "stateMutability": "nonpayable",
      "type": "function"
    },
    {
      "inputs": [
        {
          "internalType": "address",
          "name": "from",
          "type": "address"
        },
        {
          "internalType": "address",
          "name": "to",
          "type": "address"
        },
        {
          "internalType": "uint256",
          "name": "tokenId",
          "type": "uint256"
        }
      ],
      "name": "safeTransferFrom",
      "outputs": [],
      "stateMutability": "nonpayable",
      "type": "function"
    },
    {
      "inputs": [
        {
          "internalType": "address",
          "name": "from",
          "type": "address"
        },
        {
          "internalType": "address",
          "name": "to",
          "type": "address"
        },
        {
          "internalType": "uint256",
          "name": "tokenId",
          "type": "uint256"
        },
        {
          "internalType": "bytes",
          "name": "data",
          "type": "bytes"
        }
      ],
      "name": "safeTransferFrom",
      "outputs": [],
      "stateMutability": "nonpayable",
      "type": "function"
    },
    {
      "inputs": [
        {
          "internalType": "address",
          "name": "operator",
          "type": "address"
        },
        {
          "internalType": "bool",
          "name": "approved",
          "type": "bool"
        }
      ],
      "name": "setApprovalForAll",
      "outputs": [],
      "stateMutability": "nonpayable",
      "type": "function"
    },
    {
      "inputs": [
        {
          "internalType": "bytes4",
          "name": "interfaceId",
          "type": "bytes4"
        }
      ],
      "name": "supportsInterface",
      "outputs": [
        {
          "internalType": "bool",
          "name": "",
          "type": "bool"
        }
      ],
      "stateMutability": "view",
      "type": "function"
    },
    {
      "inputs": [],
      "name": "symbol",
      "outputs": [
        {
          "internalType": "string",
          "name": "",
          "type": "string"
        }
      ],
      "stateMutability": "view",
      "type": "function"
    },
    {
      "inputs": [
        {
          "internalType": "uint256",
          "name": "tokenId",
          "type": "uint256"
        }
      ],
      "name": "tokenURI",
      "outputs": [
        {
          "internalType": "string",
          "name": "",
          "type": "string"
        }
      ],
      "stateMutability": "view",
      "type": "function"
    },
    {
      "inputs": [],
      "name": "totalSupply",
      "outputs": [
        {
          "internalType": "uint256",
          "name": "",
          "type": "uint256"
        }
      ],
      "stateMutability": "view",
      "type": "function"
    },
    {
      "inputs": [
        {
          "internalType": "address",
          "name": "from",
          "type": "address"
        },
        {
          "internalType": "address",
          "name": "to",
          "type": "address"
        },
        {
          "internalType": "uint256",
          "name": "tokenId",
          "type": "uint256"
        }
      ],
      "name": "transferFrom",
      "outputs": [],
      "stateMutability": "nonpayable",
      "type": "function"
    },
    {
      "inputs": [
        {
          "internalType": "address",
          "name": "newOwner",
          "type": "address"
        }
      ],
      "name": "transferOwnership",
      "outputs": [],
      "stateMutability": "nonpayable",
      "type": "function"
    }
  ],
  "bytecode": "0x608060405234801561001057600080fd5b50336040518060400160405280601081526020017f44796e616d69632054696d65204e4654000000000000000000000000000000008152506040518060400160405280600781526020017f54494d454e465400000000000000000000000000000000000000000000000000815250816000908161008d919061043d565b50806001908161009d919061043d565b505050600073ffffffffffffffffffffffffffffffffffffffff168173ffffffffffffffffffffffffffffffffffffffff16036101125760006040517f1e4fbdf70000000000000000000000000000000000000000000000000000000081526004016101099190610550565b60405180910390fd5b6101218161012760201b60201c565b5061056b565b6000600660009054906101000a900473ffffffffffffffffffffffffffffffffffffffff16905081600660006101000a81548173ffffffffffffffffffffffffffffffffffffffff021916908373ffffffffffffffffffffffffffffffffffffffff1602179055508173ffffffffffffffffffffffffffffffffffffffff168173ffffffffffffffffffffffffffffffffffffffff167f8be0079c531659141344cd1fd0a4f28419497f9722a3daafe3b4186f6b6457e060405160405180910390a35050565b600081519050919050565b7f4e487b7100000000000000000000000000000000000000000000000000000000600052604160045260246000fd5b7f4e487b7100000000000000000000000000000000000000000000000000000000600052602260045260246000fd5b6000600282049050600182168061026e57607f821691505b60208210810361028157610280610227565b5b50919050565b60008190508160005260206000209050919050565b60006020601f8301049050919050565b600082821b905092915050565b6000600883026102e97fffffffffffffffffffffffffffffffffffffffffffffffffffffffffffffffff826102ac565b6102f386836102ac565b95508019841693508086168417925050509392505050565b6000819050919050565b6000819050919050565b600061033a6103356103308461030b565b610315565b61030b565b9050919050565b6000819050919050565b6103548361031f565b61036861036082610341565b8484546102b9565b825550505050565b600090565b61037d610370565b61038881848461034b565b505050565b5b818110156103ac576103a1600082610375565b60018101905061038e565b5050565b601f8211156103f1576103c281610287565b6103cb8461029c565b810160208510156103da578190505b6103ee6103e68561029c565b83018261038d565b50505b505050565b600082821c905092915050565b6000610414600019846008026103f6565b1980831691505092915050565b600061042d8383610403565b9150826002028217905092915050565b610446826101ed565b67ffffffffffffffff81111561045f5761045e6101f8565b5b6104698254610256565b6104748282856103b0565b600060209050601f8311600181146104a75760008415610495578287015190505b61049f8582610421565b865550610507565b601f1984166104b586610287565b60005b828110156104dd578489015182556001820191506020850194506020810190506104b8565b868310156104fa57848901516104f6601f891682610403565b8355505b6001600288020188555050505b505050505050565b600073ffffffffffffffffffffffffffffffffffffffff82169050919050565b600061053a8261050f565b9050919050565b61054a8161052f565b82525050565b60006020820190506105656000830184610541565b92915050565b61497b8061057a6000396000f3fe608060405234801561001057600080fd5b50600436106101165760003560e01c806370a08231116100a2578063a22cb46511610071578063a22cb465146102e1578063b88d4fde146102fd578063c87b56dd14610319578063e985e9c514610349578063f2fde38b1461037957610116565b806370a082311461026b578063715018a61461029b5780638da5cb5b146102a557806395d89b41146102c357610116565b806318160ddd116100e957806318160ddd146101b557806323b872dd146101d357806342842e0e146101ef5780636352211e1461020b5780636a6278421461023b57610116565b806301ffc9a71461011b57806306fdde031461014b578063081812fc14610169578063095ea7b314610199575b600080fd5b610135600480360381019061013091906124c6565b610395565b604051610142919061250e565b60405180910390f35b610153610477565b60405161016091906125b9565b60405180910390f35b610183600480360381019061017e9190612611565b610509565b604051610190919061267f565b60405180910390f35b6101b360048036038101906101ae91906126c6565b610525565b005b6101bd61053b565b6040516101ca9190612715565b60405180910390f35b6101ed60048036038101906101e89190612730565b610545565b005b61020960048036038101906102049190612730565b610647565b005b61022560048036038101906102209190612611565b610667565b604051610232919061267f565b60405180910390f35b61025560048036038101906102509190612783565b610679565b6040516102629190612715565b60405180910390f35b61028560048036038101906102809190612783565b6106b5565b6040516102929190612715565b60405180910390f35b6102a361076f565b005b6102ad610783565b6040516102ba919061267f565b60405180910390f35b6102cb6107ad565b6040516102d891906125b9565b60405180910390f35b6102fb60048036038101906102f691906127dc565b61083f565b005b61031760048036038101906103129190612951565b610855565b005b610333600480360381019061032e9190612611565b61087a565b60405161034091906125b9565b60405180910390f35b610363600480360381019061035e91906129d4565b61093d565b604051610370919061250e565b60405180910390f35b610393600480360381019061038e9190612783565b6109d1565b005b60007f80ac58cd000000000000000000000000000000000000000000000000000000007bffffffffffffffffffffffffffffffffffffffffffffffffffffffff1916827bffffffffffffffffffffffffffffffffffffffffffffffffffffffff1916148061046057507f5b5e139f000000000000000000000000000000000000000000000000000000007bffffffffffffffffffffffffffffffffffffffffffffffffffffffff1916827bffffffffffffffffffffffffffffffffffffffffffffffffffffffff1916145b80610470575061046f82610a57565b5b9050919050565b60606000805461048690612a43565b80601f01602080910402602001604051908101604052809291908181526020018280546104b290612a43565b80156104ff5780601f106104d4576101008083540402835291602001916104ff565b820191906000526020600020905b8154815290600101906020018083116104e257829003601f168201915b5050505050905090565b600061051482610ac1565b5061051e82610b49565b9050919050565b6105378282610532610b86565b610b8e565b5050565b6000600754905090565b600073ffffffffffffffffffffffffffffffffffffffff168273ffffffffffffffffffffffffffffffffffffffff16036105b75760006040517f64a0ae920000000000000000000000000000000000000000000000000000000081526004016105ae919061267f565b60405180910390fd5b60006105cb83836105c6610b86565b610ba0565b90508373ffffffffffffffffffffffffffffffffffffffff168173ffffffffffffffffffffffffffffffffffffffff1614610641578382826040517f64283d7b00000000000000000000000000000000000000000000000000000000815260040161063893929190612a74565b60405180910390fd5b50505050565b61066283838360405180602001604052806000815250610855565b505050565b600061067282610ac1565b9050919050565b6000610683610dba565b6007600081548092919061069690612ada565b9190505550600060075490506106ac8382610e41565b80915050919050565b60008073ffffffffffffffffffffffffffffffffffffffff168273ffffffffffffffffffffffffffffffffffffffff16036107285760006040517f89c62b6400000000000000000000000000000000000000000000000000000000815260040161071f919061267f565b60405180910390fd5b600360008373ffffffffffffffffffffffffffffffffffffffff1673ffffffffffffffffffffffffffffffffffffffff168152602001908152602001600020549050919050565b610777610dba565b6107816000610f3a565b565b6000600660009054906101000a900473ffffffffffffffffffffffffffffffffffffffff16905090565b6060600180546107bc90612a43565b80601f01602080910402602001604051908101604052809291908181526020018280546107e890612a43565b80156108355780601f1061080a57610100808354040283529160200191610835565b820191906000526020600020905b81548152906001019060200180831161081857829003601f168201915b5050505050905090565b61085161084a610b86565b8383611000565b5050565b610860848484610545565b61087461086b610b86565b8585858561116f565b50505050565b6060600073ffffffffffffffffffffffffffffffffffffffff1661089d83610667565b73ffffffffffffffffffffffffffffffffffffffff16036108f3576040517f08c379a00000000000000000000000000000000000000000000000000000000081526004016108ea90612b6e565b60405180910390fd5b60006108fd611320565b9050600061090a82611400565b90506109158161143b565b6040516020016109259190612c16565b60405160208183030381529060405292505050919050565b6000600560008473ffffffffffffffffffffffffffffffffffffffff1673ffffffffffffffffffffffffffffffffffffffff16815260200190815260200160002060008373ffffffffffffffffffffffffffffffffffffffff1673ffffffffffffffffffffffffffffffffffffffff16815260200190815260200160002060009054906101000a900460ff16905092915050565b6109d9610dba565b600073ffffffffffffffffffffffffffffffffffffffff168173ffffffffffffffffffffffffffffffffffffffff1603610a4b5760006040517f1e4fbdf7000000000000000000000000000000000000000000000000000000008152600401610a42919061267f565b60405180910390fd5b610a5481610f3a565b50565b60007f01ffc9a7000000000000000000000000000000000000000000000000000000007bffffffffffffffffffffffffffffffffffffffffffffffffffffffff1916827bffffffffffffffffffffffffffffffffffffffffffffffffffffffff1916149050919050565b600080610acd83611468565b9050600073ffffffffffffffffffffffffffffffffffffffff168173ffffffffffffffffffffffffffffffffffffffff1603610b4057826040517f7e273289000000000000000000000000000000000000000000000000000000008152600401610b379190612715565b60405180910390fd5b80915050919050565b60006004600083815260200190815260200160002060009054906101000a900473ffffffffffffffffffffffffffffffffffffffff169050919050565b600033905090565b610b9b83838360016114a5565b505050565b600080610bac84611468565b9050600073ffffffffffffffffffffffffffffffffffffffff168373ffffffffffffffffffffffffffffffffffffffff1614610bee57610bed81848661166a565b5b600073ffffffffffffffffffffffffffffffffffffffff168173ffffffffffffffffffffffffffffffffffffffff1614610c7f57610c306000856000806114a5565b6001600360008373ffffffffffffffffffffffffffffffffffffffff1673ffffffffffffffffffffffffffffffffffffffff168152602001908152602001600020600082825403925050819055505b600073ffffffffffffffffffffffffffffffffffffffff168573ffffffffffffffffffffffffffffffffffffffff1614610d02576001600360008773ffffffffffffffffffffffffffffffffffffffff1673ffffffffffffffffffffffffffffffffffffffff168152602001908152602001600020600082825401925050819055505b846002600086815260200190815260200160002060006101000a81548173ffffffffffffffffffffffffffffffffffffffff021916908373ffffffffffffffffffffffffffffffffffffffff160217905550838573ffffffffffffffffffffffffffffffffffffffff168273ffffffffffffffffffffffffffffffffffffffff167fddf252ad1be2c89b69c2b068fc378daa952ba7f163c4a11628f55a4df523b3ef60405160405180910390a4809150509392505050565b610dc2610b86565b73ffffffffffffffffffffffffffffffffffffffff16610de0610783565b73ffffffffffffffffffffffffffffffffffffffff1614610e3f57610e03610b86565b6040517f118cdaa7000000000000000000000000000000000000000000000000000000008152600401610e36919061267f565b60405180910390fd5b565b600073ffffffffffffffffffffffffffffffffffffffff168273ffffffffffffffffffffffffffffffffffffffff1603610eb35760006040517f64a0ae92000000000000000000000000000000000000000000000000000000008152600401610eaa919061267f565b60405180910390fd5b6000610ec183836000610ba0565b9050600073ffffffffffffffffffffffffffffffffffffffff168173ffffffffffffffffffffffffffffffffffffffff1614610f355760006040517f73c6ac6e000000000000000000000000000000000000000000000000000000008152600401610f2c919061267f565b60405180910390fd5b505050565b6000600660009054906101000a900473ffffffffffffffffffffffffffffffffffffffff16905081600660006101000a81548173ffffffffffffffffffffffffffffffffffffffff021916908373ffffffffffffffffffffffffffffffffffffffff1602179055508173ffffffffffffffffffffffffffffffffffffffff168173ffffffffffffffffffffffffffffffffffffffff167f8be0079c531659141344cd1fd0a4f28419497f9722a3daafe3b4186f6b6457e060405160405180910390a35050565b600073ffffffffffffffffffffffffffffffffffffffff168273ffffffffffffffffffffffffffffffffffffffff160361107157816040517f5b08ba18000000000000000000000000000000000000000000000000000000008152600401611068919061267f565b60405180910390fd5b80600560008573ffffffffffffffffffffffffffffffffffffffff1673ffffffffffffffffffffffffffffffffffffffff16815260200190815260200160002060008473ffffffffffffffffffffffffffffffffffffffff1673ffffffffffffffffffffffffffffffffffffffff16815260200190815260200160002060006101000a81548160ff0219169083151502179055508173ffffffffffffffffffffffffffffffffffffffff168373ffffffffffffffffffffffffffffffffffffffff167f17307eab39ab6107e8899845ad3d59bd9653f200f220920489ca2b5937696c3183604051611162919061250e565b60405180910390a3505050565b60008373ffffffffffffffffffffffffffffffffffffffff163b1115611319578273ffffffffffffffffffffffffffffffffffffffff1663150b7a02868685856040518563ffffffff1660e01b81526004016111ce9493929190612c8d565b6020604051808303816000875af192505050801561120a57506040513d601f19601f820116820180604052508101906112079190612cee565b60015b61128e573d806000811461123a576040519150601f19603f3d011682016040523d82523d6000602084013e61123f565b606091505b50600081510361128657836040517f64a0ae9200000000000000000000000000000000000000000000000000000000815260040161127d919061267f565b60405180910390fd5b805160208201fd5b63150b7a0260e01b7bffffffffffffffffffffffffffffffffffffffffffffffffffffffff1916817bffffffffffffffffffffffffffffffffffffffffffffffffffffffff19161461131757836040517f64a0ae9200000000000000000000000000000000000000000000000000000000815260040161130e919061267f565b60405180910390fd5b505b5050505050565b6060600042905060008060006113358461172e565b925092509250600061134684611788565b90506000611353856118c1565b90506000611360866119fa565b611369866119fa565b611372866119fa565b60405160200161138493929190612d67565b604051602081830303815290604052905060006113a088611a45565b905083836113ac611b23565b6113c3600c8b6113bc9190612ddd565b8a8a611cf1565b85856113ce8e611e65565b6040516020016113e49796959493929190613930565b6040516020818303038152906040529850505050505050505090565b606061140b42611e65565b6114148361143b565b604051602001611425929190613ea5565b6040516020818303038152906040529050919050565b606061146182604051806060016040528060408152602001614906604091396001611f33565b9050919050565b60006002600083815260200190815260200160002060009054906101000a900473ffffffffffffffffffffffffffffffffffffffff169050919050565b80806114de5750600073ffffffffffffffffffffffffffffffffffffffff168273ffffffffffffffffffffffffffffffffffffffff1614155b156116125760006114ee84610ac1565b9050600073ffffffffffffffffffffffffffffffffffffffff168373ffffffffffffffffffffffffffffffffffffffff161415801561155957508273ffffffffffffffffffffffffffffffffffffffff168173ffffffffffffffffffffffffffffffffffffffff1614155b801561156c575061156a818461093d565b155b156115ae57826040517fa9fbf51f0000000000000000000000000000000000000000000000000000000081526004016115a5919061267f565b60405180910390fd5b811561161057838573ffffffffffffffffffffffffffffffffffffffff168273ffffffffffffffffffffffffffffffffffffffff167f8c5be1e5ebec7d5bd14f71427d1e84f3dd0314c0f7b2291e5b200ac8c7c3b92560405160405180910390a45b505b836004600085815260200190815260200160002060006101000a81548173ffffffffffffffffffffffffffffffffffffffff021916908373ffffffffffffffffffffffffffffffffffffffff16021790555050505050565b6116758383836120c7565b61172957600073ffffffffffffffffffffffffffffffffffffffff168373ffffffffffffffffffffffffffffffffffffffff16036116ea57806040517f7e2732890000000000000000000000000000000000000000000000000000000081526004016116e19190612715565b60405180910390fd5b81816040517f177e802f000000000000000000000000000000000000000000000000000000008152600401611720929190613f37565b60405180910390fd5b505050565b60008060008062015180856117439190612ddd565b9050610e10816117539190613f60565b9350603c610e10826117659190612ddd565b61176f9190613f60565b9250603c8161177e9190612ddd565b9150509193909250565b60606006821015801561179b5750600c82105b156117dd576040518060400160405280600781526020017f233837434545420000000000000000000000000000000000000000000000000081525090506118bc565b600c82101580156117ee5750601282105b15611830576040518060400160405280600781526020017f234646443730300000000000000000000000000000000000000000000000000081525090506118bc565b601282101580156118415750601682105b15611883576040518060400160405280600781526020017f234646363334370000000000000000000000000000000000000000000000000081525090506118bc565b6040518060400160405280600781526020017f233139313937300000000000000000000000000000000000000000000000000081525090505b919050565b6060600682101580156118d45750600c82105b15611916576040518060400160405280600781526020017f233938464239380000000000000000000000000000000000000000000000000081525090506119f5565b600c82101580156119275750601282105b15611969576040518060400160405280600781526020017f234646413530300000000000000000000000000000000000000000000000000081525090506119f5565b6012821015801561197a5750601682105b156119bc576040518060400160405280600781526020017f233842303030300000000000000000000000000000000000000000000000000081525090506119f5565b6040518060400160405280600781526020017f233030303038300000000000000000000000000000000000000000000000000081525090505b919050565b6060600a821015611a3457611a0e82611e65565b604051602001611a1e9190613fdd565b6040516020818303038152906040529050611a40565b611a3d82611e65565b90505b919050565b606060006201518083611a589190613f60565b9050600061016d82611a6a9190613f60565b6107b2611a779190613fff565b905060006001601e61016d85611a8d9190612ddd565b611a979190613f60565b611aa19190613fff565b905060006001601e85611ab49190612ddd565b611abe9190613fff565b9050600c821115611ace57600c91505b601f811115611adc57601f90505b611ae582611e65565b611aee82611e65565b611af785611e65565b604051602001611b099392919061407f565b604051602081830303815290604052945050505050919050565b6060600060405180602001604052806000815250905060005b600c811015611c06576000601e82611b5491906140c6565b9050600080611b64608c84612188565b91509150600080611b76609b86612188565b9150915086611b9060c886611b8b9190614112565b611e65565b611ba560c886611ba09190614112565b611e65565b611bba60c886611bb59190614112565b611e65565b611bcf60c886611bca9190614112565b611e65565b604051602001611be39594939291906142f8565b604051602081830303815290604052965050505050508080600101915050611b3c565b5060005b603c811015611ce9576000600582611c229190612ddd565b14611cdc576000600682611c3691906140c6565b9050600080611c46609684612188565b91509150600080611c58609b86612188565b9150915086611c7260c886611c6d9190614112565b611e65565b611c8760c886611c829190614112565b611e65565b611c9c60c886611c979190614112565b611e65565b611cb160c886611cac9190614112565b611e65565b604051602001611cc59594939291906143ec565b604051602081830303815290604052965050505050505b8080600101915050611c0a565b508091505090565b60606000610168600684611d0591906140c6565b611d0f9190612ddd565b90506000610168600a85611d239190613f60565b600687611d3091906140c6565b611d3a9190613fff565b611d449190612ddd565b90506000610168600287611d589190613f60565b601e89611d6591906140c6565b611d6f9190613fff565b611d799190612ddd565b9050600080611d89605084612188565b91509150600080611d9b607887612188565b91509150600080611dad60828a612188565b91509150611dc660c887611dc19190614112565b611e65565b611ddb60c887611dd69190614112565b611e65565b611df060c887611deb9190614112565b611e65565b611e0560c887611e009190614112565b611e65565b611e1a60c887611e159190614112565b611e65565b611e2f60c887611e2a9190614112565b611e65565b604051602001611e449695949392919061471a565b60405160208183030381529060405299505050505050505050509392505050565b606060006001611e748461220d565b01905060008167ffffffffffffffff811115611e9357611e92612826565b5b6040519080825280601f01601f191660200182016040528015611ec55781602001600182028036833780820191505090505b509050600082602083010190505b600115611f28578080600190039150507f3031323334353637383961626364656600000000000000000000000000000000600a86061a8153600a8581611f1c57611f1b612dae565b5b04945060008503611ed3575b819350505050919050565b60606000845103611f55576040518060200160405280600081525090506120c0565b600082611f87576003600286516004611f6e91906140c6565b611f789190613fff565b611f829190613f60565b611fae565b600360028651611f979190613fff565b611fa19190613f60565b6004611fad91906140c6565b5b905060008167ffffffffffffffff811115611fcc57611fcb612826565b5b6040519080825280601f01601f191660200182016040528015611ffe5781602001600182028036833780820191505090505b50905060018501602082018788518901602081018051600082525b82841015612074576003840193508351603f8160121c168701518653600186019550603f81600c1c168701518653600186019550603f8160061c168701518653600186019550603f8116870151865360018601955050612019565b80825289156120b45760038c51066001811461209757600281146120aa576120b2565b603d6001870353603d60028703536120b2565b603d60018703535b505b50505050505080925050505b9392505050565b60008073ffffffffffffffffffffffffffffffffffffffff168373ffffffffffffffffffffffffffffffffffffffff161415801561217f57508273ffffffffffffffffffffffffffffffffffffffff168473ffffffffffffffffffffffffffffffffffffffff161480612140575061213f848461093d565b5b8061217e57508273ffffffffffffffffffffffffffffffffffffffff1661216683610b49565b73ffffffffffffffffffffffffffffffffffffffff16145b5b90509392505050565b6000806000629896806202a9c5856121a091906140c6565b6121aa91906147e0565b90506217f7ec816121bb919061484a565b9050629896806121ca82612360565b866121d5919061488d565b6121df91906147e0565b9250629896806121ee82612380565b866121f9919061488d565b61220391906147e0565b9150509250929050565b600080600090507a184f03e93ff9f4daa797ed6e38ed64bf6a1f010000000000000000831061226b577a184f03e93ff9f4daa797ed6e38ed64bf6a1f010000000000000000838161226157612260612dae565b5b0492506040810190505b6d04ee2d6d415b85acef810000000083106122a8576d04ee2d6d415b85acef8100000000838161229e5761229d612dae565b5b0492506020810190505b662386f26fc1000083106122d757662386f26fc1000083816122cd576122cc612dae565b5b0492506010810190505b6305f5e1008310612300576305f5e10083816122f6576122f5612dae565b5b0492506008810190505b612710831061232557612710838161231b5761231a612dae565b5b0492506004810190505b60648310612348576064838161233e5761233d612dae565b5b0492506002810190505b600a8310612357576001810190505b80915050919050565b600061237962efaf3b836123749190614112565b612380565b9050919050565b60005b60008212156123a3576303bebced8261239c9190614112565b9150612383565b5b6303bebced8213156123c7576303bebced826123c0919061484a565b91506123a4565b60006298968083846123d9919061488d565b6123e391906147e0565b905060006298968084836123f7919061488d565b61240191906147e0565b90506000629896808383612415919061488d565b61241f91906147e0565b905060788161242e91906147e0565b60068361243b91906147e0565b86612446919061484a565b6124509190614112565b9350505050919050565b6000604051905090565b600080fd5b600080fd5b60007fffffffff0000000000000000000000000000000000000000000000000000000082169050919050565b6124a38161246e565b81146124ae57600080fd5b50565b6000813590506124c08161249a565b92915050565b6000602082840312156124dc576124db612464565b5b60006124ea848285016124b1565b91505092915050565b60008115159050919050565b612508816124f3565b82525050565b600060208201905061252360008301846124ff565b92915050565b600081519050919050565b600082825260208201905092915050565b60005b83811015612563578082015181840152602081019050612548565b60008484015250505050565b6000601f19601f8301169050919050565b600061258b82612529565b6125958185612534565b93506125a5818560208601612545565b6125ae8161256f565b840191505092915050565b600060208201905081810360008301526125d38184612580565b905092915050565b6000819050919050565b6125ee816125db565b81146125f957600080fd5b50565b60008135905061260b816125e5565b92915050565b60006020828403121561262757612626612464565b5b6000612635848285016125fc565b91505092915050565b600073ffffffffffffffffffffffffffffffffffffffff82169050919050565b60006126698261263e565b9050919050565b6126798161265e565b82525050565b60006020820190506126946000830184612670565b92915050565b6126a38161265e565b81146126ae57600080fd5b50565b6000813590506126c08161269a565b92915050565b600080604083850312156126dd576126dc612464565b5b60006126eb858286016126b1565b92505060206126fc858286016125fc565b9150509250929050565b61270f816125db565b82525050565b600060208201905061272a6000830184612706565b92915050565b60008060006060848603121561274957612748612464565b5b6000612757868287016126b1565b9350506020612768868287016126b1565b9250506040612779868287016125fc565b9150509250925092565b60006020828403121561279957612798612464565b5b60006127a7848285016126b1565b91505092915050565b6127b9816124f3565b81146127c457600080fd5b50565b6000813590506127d6816127b0565b92915050565b600080604083850312156127f3576127f2612464565b5b6000612801858286016126b1565b9250506020612812858286016127c7565b9150509250929050565b600080fd5b600080fd5b7f4e487b7100000000000000000000000000000000000000000000000000000000600052604160045260246000fd5b61285e8261256f565b810181811067ffffffffffffffff8211171561287d5761287c612826565b5b80604052505050565b600061289061245a565b905061289c8282612855565b919050565b600067ffffffffffffffff8211156128bc576128bb612826565b5b6128c58261256f565b9050602081019050919050565b82818337600083830152505050565b60006128f46128ef846128a1565b612886565b9050828152602081018484840111156129105761290f612821565b5b61291b8482856128d2565b509392505050565b600082601f8301126129385761293761281c565b5b81356129488482602086016128e1565b91505092915050565b6000806000806080858703121561296b5761296a612464565b5b6000612979878288016126b1565b945050602061298a878288016126b1565b935050604061299b878288016125fc565b925050606085013567ffffffffffffffff8111156129bc576129bb612469565b5b6129c887828801612923565b91505092959194509250565b600080604083850312156129eb576129ea612464565b5b60006129f9858286016126b1565b9250506020612a0a858286016126b1565b9150509250929050565b7f4e487b7100000000000000000000000000000000000000000000000000000000600052602260045260246000fd5b60006002820490506001821680612a5b57607f821691505b602082108103612a6e57612a6d612a14565b5b50919050565b6000606082019050612a896000830186612670565b612a966020830185612706565b612aa36040830184612670565b949350505050565b7f4e487b7100000000000000000000000000000000000000000000000000000000600052601160045260246000fd5b6000612ae5826125db565b91507fffffffffffffffffffffffffffffffffffffffffffffffffffffffffffffffff8203612b1757612b16612aab565b5b600182019050919050565b7f546f6b656e20646f6573206e6f74206578697374000000000000000000000000600082015250565b6000612b58601483612534565b9150612b6382612b22565b602082019050919050565b60006020820190508181036000830152612b8781612b4b565b9050919050565b600081905092915050565b7f646174613a6170706c69636174696f6e2f6a736f6e3b6261736536342c000000600082015250565b6000612bcf601d83612b8e565b9150612bda82612b99565b601d82019050919050565b6000612bf082612529565b612bfa8185612b8e565b9350612c0a818560208601612545565b80840191505092915050565b6000612c2182612bc2565b9150612c2d8284612be5565b915081905092915050565b600081519050919050565b600082825260208201905092915050565b6000612c5f82612c38565b612c698185612c43565b9350612c79818560208601612545565b612c828161256f565b840191505092915050565b6000608082019050612ca26000830187612670565b612caf6020830186612670565b612cbc6040830185612706565b8181036060830152612cce8184612c54565b905095945050505050565b600081519050612ce88161249a565b92915050565b600060208284031215612d0457612d03612464565b5b6000612d1284828501612cd9565b91505092915050565b7f3a00000000000000000000000000000000000000000000000000000000000000600082015250565b6000612d51600183612b8e565b9150612d5c82612d1b565b600182019050919050565b6000612d738286612be5565b9150612d7e82612d44565b9150612d8a8285612be5565b9150612d9582612d44565b9150612da18284612be5565b9150819050949350505050565b7f4e487b7100000000000000000000000000000000000000000000000000000000600052601260045260246000fd5b6000612de8826125db565b9150612df3836125db565b925082612e0357612e02612dae565b5b828206905092915050565b7f3c7376672077696474683d2234303022206865696768743d223430302220786d60008201527f6c6e733d22687474703a2f2f7777772e77332e6f72672f323030302f7376672260208201527f3e00000000000000000000000000000000000000000000000000000000000000604082015250565b6000612e90604183612b8e565b9150612e9b82612e0e565b604182019050919050565b7f3c646566733e0000000000000000000000000000000000000000000000000000600082015250565b6000612edc600683612b8e565b9150612ee782612ea6565b600682019050919050565b7f3c72616469616c4772616469656e742069643d226267222063783d223530252260008201527f2063793d223530252220723d22353025223e0000000000000000000000000000602082015250565b6000612f4e603283612b8e565b9150612f5982612ef2565b603282019050919050565b7f3c73746f70206f66667365743d22302522207374796c653d2273746f702d636f60008201527f6c6f723a00000000000000000000000000000000000000000000000000000000602082015250565b6000612fc0602483612b8e565b9150612fcb82612f64565b602482019050919050565b7f3b73746f702d6f7061636974793a3122202f3e00000000000000000000000000600082015250565b600061300c601383612b8e565b915061301782612fd6565b601382019050919050565b7f3c73746f70206f66667365743d223130302522207374796c653d2273746f702d60008201527f636f6c6f723a0000000000000000000000000000000000000000000000000000602082015250565b600061307e602683612b8e565b915061308982613022565b602682019050919050565b7f3c2f72616469616c4772616469656e743e000000000000000000000000000000600082015250565b60006130ca601183612b8e565b91506130d582613094565b601182019050919050565b7f3c66696c7465722069643d22676c6f77223e0000000000000000000000000000600082015250565b6000613116601283612b8e565b9150613121826130e0565b601282019050919050565b7f3c6665476175737369616e426c757220737464446576696174696f6e3d22332260008201527f20726573756c743d22636f6c6f726564426c7572222f3e000000000000000000602082015250565b6000613188603783612b8e565b91506131938261312c565b603782019050919050565b7f3c66654d657267653e0000000000000000000000000000000000000000000000600082015250565b60006131d4600983612b8e565b91506131df8261319e565b600982019050919050565b7f3c66654d657267654e6f646520696e3d22636f6c6f726564426c7572222f3e00600082015250565b6000613220601f83612b8e565b915061322b826131ea565b601f82019050919050565b7f3c66654d657267654e6f646520696e3d22536f7572636547726170686963222f60008201527f3e00000000000000000000000000000000000000000000000000000000000000602082015250565b6000613292602183612b8e565b915061329d82613236565b602182019050919050565b7f3c2f66654d657267653e00000000000000000000000000000000000000000000600082015250565b60006132de600a83612b8e565b91506132e9826132a8565b600a82019050919050565b7f3c2f66696c7465723e0000000000000000000000000000000000000000000000600082015250565b600061332a600983612b8e565b9150613335826132f4565b600982019050919050565b7f3c2f646566733e00000000000000000000000000000000000000000000000000600082015250565b6000613376600783612b8e565b915061338182613340565b600782019050919050565b7f3c726563742077696474683d2234303022206865696768743d2234303022206660008201527f696c6c3d2275726c2823626729222f3e00000000000000000000000000000000602082015250565b60006133e8603083612b8e565b91506133f38261338c565b603082019050919050565b7f3c636972636c652063783d22323030222063793d223230302220723d2231383060008201527f222066696c6c3d226e6f6e6522207374726f6b653d2272676261283235352c3260208201527f35352c3235352c302e332922207374726f6b652d77696474683d2232222f3e00604082015250565b6000613480605f83612b8e565b915061348b826133fe565b605f82019050919050565b7f3c636972636c652063783d22323030222063793d223230302220723d2231363060008201527f222066696c6c3d226e6f6e6522207374726f6b653d2272676261283235352c3260208201527f35352c3235352c302e322922207374726f6b652d77696474683d2231222f3e00604082015250565b6000613518605f83612b8e565b915061352382613496565b605f82019050919050565b7f3c7265637420783d223132302220793d22323830222077696474683d2231363060008201527f22206865696768743d223530222072783d223130222066696c6c3d227267626160208201527f28302c302c302c302e372922207374726f6b653d2272676261283235352c323560408201527f352c3235352c302e352922207374726f6b652d77696474683d2231222f3e0000606082015250565b60006135d6607e83612b8e565b91506135e18261352e565b607e82019050919050565b7f3c7465787420783d223230302220793d223330352220746578742d616e63686f60008201527f723d226d6964646c652220666f6e742d66616d696c793d226d6f6e6f7370616360208201527f652220666f6e742d73697a653d2232342220666f6e742d7765696768743d226260408201527f6f6c64222066696c6c3d227768697465222066696c7465723d2275726c28236760608201527f6c6f7729223e0000000000000000000000000000000000000000000000000000608082015250565b60006136ba608683612b8e565b91506136c5826135ec565b608682019050919050565b7f3c2f746578743e00000000000000000000000000000000000000000000000000600082015250565b6000613706600783612b8e565b9150613711826136d0565b600782019050919050565b7f3c7465787420783d223230302220793d223335302220746578742d616e63686f60008201527f723d226d6964646c652220666f6e742d66616d696c793d22417269616c2c207360208201527f616e732d73657269662220666f6e742d73697a653d223134222066696c6c3d2260408201527f72676261283235352c3235352c3235352c302e3829223e000000000000000000606082015250565b60006137c4607783612b8e565b91506137cf8261371c565b607782019050919050565b7f3c7465787420783d223230302220793d223337302220746578742d616e63686f60008201527f723d226d6964646c652220666f6e742d66616d696c793d226d6f6e6f7370616360208201527f652220666f6e742d73697a653d223130222066696c6c3d22726762612832353560408201527f2c3235352c3235352c302e3629223e0000000000000000000000000000000000606082015250565b6000613882606f83612b8e565b915061388d826137da565b606f82019050919050565b7f426c6f636b3a2000000000000000000000000000000000000000000000000000600082015250565b60006138ce600783612b8e565b91506138d982613898565b600782019050919050565b7f3c2f7376673e0000000000000000000000000000000000000000000000000000600082015250565b600061391a600683612b8e565b9150613925826138e4565b600682019050919050565b600061393b82612e83565b915061394682612ecf565b915061395182612f41565b915061395c82612fb3565b9150613968828a612be5565b915061397382612fff565b915061397e82613071565b915061398a8289612be5565b915061399582612fff565b91506139a0826130bd565b91506139ab82613109565b91506139b68261317b565b91506139c1826131c7565b91506139cc82613213565b91506139d782613285565b91506139e2826132d1565b91506139ed8261331d565b91506139f882613369565b9150613a03826133db565b9150613a0e82613473565b9150613a198261350b565b9150613a258288612be5565b9150613a318287612be5565b9150613a3c826135c9565b9150613a47826136ad565b9150613a538286612be5565b9150613a5e826136f9565b9150613a69826137b7565b9150613a758285612be5565b9150613a80826136f9565b9150613a8b82613875565b9150613a96826138c1565b9150613aa28284612be5565b9150613aad826136f9565b9150613ab88261390d565b915081905098975050505050505050565b7f7b226e616d65223a202244796e616d69632054696d65204e4654222c00000000600082015250565b6000613aff601c83612b8e565b9150613b0a82613ac9565b601c82019050919050565b7f226465736372697074696f6e223a2022412066756c6c79206f6e2d636861696e60008201527f204e4654207468617420646973706c617973207468652063757272656e74206260208201527f6c6f636b636861696e2074696d65222c00000000000000000000000000000000604082015250565b6000613b97605083612b8e565b9150613ba282613b15565b605082019050919050565b7f2261747472696275746573223a205b0000000000000000000000000000000000600082015250565b6000613be3600f83612b8e565b9150613bee82613bad565b600f82019050919050565b7f7b2274726169745f74797065223a202254797065222c202276616c7565223a2060008201527f2244796e616d69632054696d6520446973706c6179227d2c0000000000000000602082015250565b6000613c55603883612b8e565b9150613c6082613bf9565b603882019050919050565b7f7b2274726169745f74797065223a202254696d657374616d70222c202276616c60008201527f7565223a20220000000000000000000000000000000000000000000000000000602082015250565b6000613cc7602683612b8e565b9150613cd282613c6b565b602682019050919050565b7f227d2c0000000000000000000000000000000000000000000000000000000000600082015250565b6000613d13600383612b8e565b9150613d1e82613cdd565b600382019050919050565b7f7b2274726169745f74797065223a202255706461746564222c202276616c756560008201527f223a20225265616c2d74696d65227d0000000000000000000000000000000000602082015250565b6000613d85602f83612b8e565b9150613d9082613d29565b602f82019050919050565b7f5d2c000000000000000000000000000000000000000000000000000000000000600082015250565b6000613dd1600283612b8e565b9150613ddc82613d9b565b600282019050919050565b7f22696d616765223a2022646174613a696d6167652f7376672b786d6c3b62617360008201527f6536342c00000000000000000000000000000000000000000000000000000000602082015250565b6000613e43602483612b8e565b9150613e4e82613de7565b602482019050919050565b7f227d000000000000000000000000000000000000000000000000000000000000600082015250565b6000613e8f600283612b8e565b9150613e9a82613e59565b600282019050919050565b6000613eb082613af2565b9150613ebb82613b8a565b9150613ec682613bd6565b9150613ed182613c48565b9150613edc82613cba565b9150613ee88285612be5565b9150613ef382613d06565b9150613efe82613d78565b9150613f0982613dc4565b9150613f1482613e36565b9150613f208284612be5565b9150613f2b82613e82565b91508190509392505050565b6000604082019050613f4c6000830185612670565b613f596020830184612706565b9392505050565b6000613f6b826125db565b9150613f76836125db565b925082613f8657613f85612dae565b5b828204905092915050565b7f3000000000000000000000000000000000000000000000000000000000000000600082015250565b6000613fc7600183612b8e565b9150613fd282613f91565b600182019050919050565b6000613fe882613fba565b9150613ff48284612be5565b915081905092915050565b600061400a826125db565b9150614015836125db565b925082820190508082111561402d5761402c612aab565b5b92915050565b7f2f00000000000000000000000000000000000000000000000000000000000000600082015250565b6000614069600183612b8e565b915061407482614033565b600182019050919050565b600061408b8286612be5565b91506140968261405c565b91506140a28285612be5565b91506140ad8261405c565b91506140b98284612be5565b9150819050949350505050565b60006140d1826125db565b91506140dc836125db565b92508282026140ea816125db565b9150828204841483151761410157614100612aab565b5b5092915050565b6000819050919050565b600061411d82614108565b915061412883614108565b9250828201905082811215600083121683821260008412151617156141505761414f612aab565b5b92915050565b7f3c6c696e652078313d2200000000000000000000000000000000000000000000600082015250565b600061418c600a83612b8e565b915061419782614156565b600a82019050919050565b7f222079313d220000000000000000000000000000000000000000000000000000600082015250565b60006141d8600683612b8e565b91506141e3826141a2565b600682019050919050565b7f222078323d220000000000000000000000000000000000000000000000000000600082015250565b6000614224600683612b8e565b915061422f826141ee565b600682019050919050565b7f222079323d220000000000000000000000000000000000000000000000000000600082015250565b6000614270600683612b8e565b915061427b8261423a565b600682019050919050565b7f22207374726f6b653d2272676261283235352c3235352c3235352c302e38292260008201527f207374726f6b652d77696474683d2233222f3e00000000000000000000000000602082015250565b60006142e2603383612b8e565b91506142ed82614286565b603382019050919050565b60006143048288612be5565b915061430f8261417f565b915061431b8287612be5565b9150614326826141cb565b91506143328286612be5565b915061433d82614217565b91506143498285612be5565b915061435482614263565b91506143608284612be5565b915061436b826142d5565b91508190509695505050505050565b7f22207374726f6b653d2272676261283235352c3235352c3235352c302e34292260008201527f207374726f6b652d77696474683d2231222f3e00000000000000000000000000602082015250565b60006143d6603383612b8e565b91506143e18261437a565b603382019050919050565b60006143f88288612be5565b91506144038261417f565b915061440f8287612be5565b915061441a826141cb565b91506144268286612be5565b915061443182614217565b915061443d8285612be5565b915061444882614263565b91506144548284612be5565b915061445f826143c9565b91508190509695505050505050565b7f3c6c696e652078313d22323030222079313d22323030222078323d2200000000600082015250565b60006144a4601c83612b8e565b91506144af8261446e565b601c82019050919050565b7f22207374726f6b653d22776869746522207374726f6b652d77696474683d223660008201527f22207374726f6b652d6c696e656361703d22726f756e64222066696c7465723d60208201527f2275726c2823676c6f7729222f3e000000000000000000000000000000000000604082015250565b600061453c604e83612b8e565b9150614547826144ba565b604e82019050919050565b7f22207374726f6b653d22776869746522207374726f6b652d77696474683d223460008201527f22207374726f6b652d6c696e656361703d22726f756e64222066696c7465723d60208201527f2275726c2823676c6f7729222f3e000000000000000000000000000000000000604082015250565b60006145d4604e83612b8e565b91506145df82614552565b604e82019050919050565b7f22207374726f6b653d222366663662366222207374726f6b652d77696474683d60008201527f223222207374726f6b652d6c696e656361703d22726f756e64222f3e00000000602082015250565b6000614646603c83612b8e565b9150614651826145ea565b603c82019050919050565b7f3c636972636c652063783d22323030222063793d223230302220723d2238222060008201527f66696c6c3d22776869746522207374726f6b653d222333333322207374726f6b60208201527f652d77696474683d2232222066696c7465723d2275726c2823676c6f7729222f60408201527f3e00000000000000000000000000000000000000000000000000000000000000606082015250565b6000614704606183612b8e565b915061470f8261465c565b606182019050919050565b600061472582614497565b91506147318289612be5565b915061473c82614263565b91506147488288612be5565b91506147538261452f565b915061475e82614497565b915061476a8287612be5565b915061477582614263565b91506147818286612be5565b915061478c826145c7565b915061479782614497565b91506147a38285612be5565b91506147ae82614263565b91506147ba8284612be5565b91506147c582614639565b91506147d0826146f7565b9150819050979650505050505050565b60006147eb82614108565b91506147f683614108565b92508261480657614805612dae565b5b600160000383147f80000000000000000000000000000000000000000000000000000000000000008314161561483f5761483e612aab565b5b828205905092915050565b600061485582614108565b915061486083614108565b925082820390508181126000841216828213600085121516171561488757614886612aab565b5b92915050565b600061489882614108565b91506148a383614108565b92508282026148b181614108565b91507f800000000000000000000000000000000000000000000000000000000000000084146000841216156148e9576148e8612aab565b5b82820584148315176148fe576148fd612aab565b5b509291505056fe4142434445464748494a4b4c4d4e4f505152535455565758595a6162636465666768696a6b6c6d6e6f707172737475767778797a303132333435363738392b2fa264697066735822122004a7bb604ac0bda8e7409b86a0680c4865d8f83ecb38b9ab7e9067c7bef4c0eb64736f6c634300081c0033",
  "linkReferences": {},
  "deployedLinkReferences": {}
}