{
  "_format": "hh-sol-artifact-1",
  "contractName": "MultiSigWalletFactory",
  "sourceName": "contracts/MultiSigWallet.sol",
  "abi": [
    {
      "anonymous": false,
      "inputs": [
        {
          "indexed": true,
          "internalType": "address",
          "name": "wallet",
          "type": "address"
        },
        {
          "indexed": false,
          "internalType": "address[]",
          "name": "owners",
          "type": "address[]"
        },
        {
          "indexed": true,
          "internalType": "uint256",
          "name": "walletIndex",
          "type": "uint256"
        }
      ],
      "name": "WalletCreated",
      "type": "event"
    },
    {
      "inputs": [
        {
          "internalType": "address[]",
          "name": "_owners",
          "type": "address[]"
        }
      ],
      "name": "createWallet",
      "outputs": [
        {
          "internalType": "address",
          "name": "wallet",
          "type": "address"
        }
      ],
      "stateMutability": "nonpayable",
      "type": "function"
    },
    {
      "inputs": [
        {
          "internalType": "address",
          "name": "_user",
          "type": "address"
        }
      ],
      "name": "getUserWallets",
      "outputs": [
        {
          "internalType": "address[]",
          "name": "",
          "type": "address[]"
        }
      ],
      "stateMutability": "view",
      "type": "function"
    },
    {
      "inputs": [
        {
          "internalType": "uint256",
          "name": "_index",
          "type": "uint256"
        }
      ],
      "name": "getWallet",
      "outputs": [
        {
          "internalType": "address",
          "name": "",
          "type": "address"
        }
      ],
      "stateMutability": "view",
      "type": "function"
    },
    {
      "inputs": [],
      "name": "getWalletsCount",
      "outputs": [
        {
          "internalType": "uint256",
          "name": "",
          "type": "uint256"
        }
      ],
      "stateMutability": "view",
      "type": "function"
    },
    {
      "inputs": [
        {
          "internalType": "address",
          "name": "",
          "type": "address"
        },
        {
          "internalType": "uint256",
          "name": "",
          "type": "uint256"
        }
      ],
      "name": "userWallets",
      "outputs": [
        {
          "internalType": "address",
          "name": "",
          "type": "address"
        }
      ],
      "stateMutability": "view",
      "type": "function"
    },
    {
      "inputs": [
        {
          "internalType": "uint256",
          "name": "",
          "type": "uint256"
        }
      ],
      "name": "wallets",
      "outputs": [
        {
          "internalType": "contract MultiSigWallet",
          "name": "",
          "type": "address"
        }
      ],
      "stateMutability": "view",
      "type": "function"
    }
  ],
  "bytecode": "0x6080604052348015600f57600080fd5b506130a18061001f6000396000f3fe608060405234801561001057600080fd5b50600436106100625760003560e01c80630155e098146100675780631cf89b4b146100975780635470b13b146100c75780636cbae157146100f7578063778b5aee146101275780637ad71f7214610145575b600080fd5b610081600480360381019061007c919061063d565b610175565b60405161008e919061068c565b60405180910390f35b6100b160048036038101906100ac9190610800565b6101c3565b6040516100be919061068c565b60405180910390f35b6100e160048036038101906100dc9190610849565b6103e2565b6040516100ee919061068c565b60405180910390f35b610111600480360381019061010c9190610876565b610470565b60405161011e9190610961565b60405180910390f35b61012f61053d565b60405161013c9190610992565b60405180910390f35b61015f600480360381019061015a9190610849565b610549565b60405161016c9190610a0c565b60405180910390f35b6001602052816000526040600020818154811061019157600080fd5b906000526020600020016000915091509054906101000a900473ffffffffffffffffffffffffffffffffffffffff1681565b600060038251101561020a576040517f08c379a000000000000000000000000000000000000000000000000000000000815260040161020190610a84565b60405180910390fd5b60008260405161021990610588565b6102239190610961565b604051809103906000f08015801561023f573d6000803e3d6000fd5b5090506000819080600181540180825580915050600190039060005260206000200160009091909190916101000a81548173ffffffffffffffffffffffffffffffffffffffff021916908373ffffffffffffffffffffffffffffffffffffffff16021790555060005b835181101561037857600160008583815181106102c8576102c7610aa4565b5b602002602001015173ffffffffffffffffffffffffffffffffffffffff1673ffffffffffffffffffffffffffffffffffffffff168152602001908152602001600020829080600181540180825580915050600190039060005260206000200160009091909190916101000a81548173ffffffffffffffffffffffffffffffffffffffff021916908373ffffffffffffffffffffffffffffffffffffffff16021790555080806001019150506102a8565b50600160008054905061038b9190610b02565b8173ffffffffffffffffffffffffffffffffffffffff167fe981d41cfcc707f2fa59586347099614ffa99754751f6000ade1fbd3514ebd4d856040516103d19190610961565b60405180910390a380915050919050565b60008080549050821061042a576040517f08c379a000000000000000000000000000000000000000000000000000000000815260040161042190610b82565b60405180910390fd5b6000828154811061043e5761043d610aa4565b5b9060005260206000200160009054906101000a900473ffffffffffffffffffffffffffffffffffffffff169050919050565b6060600160008373ffffffffffffffffffffffffffffffffffffffff1673ffffffffffffffffffffffffffffffffffffffff16815260200190815260200160002080548060200260200160405190810160405280929190818152602001828054801561053157602002820191906000526020600020905b8160009054906101000a900473ffffffffffffffffffffffffffffffffffffffff1673ffffffffffffffffffffffffffffffffffffffff16815260200190600101908083116104e7575b50505050509050919050565b60008080549050905090565b6000818154811061055957600080fd5b906000526020600020016000915054906101000a900473ffffffffffffffffffffffffffffffffffffffff1681565b6124c980610ba383390190565b6000604051905090565b600080fd5b600080fd5b600073ffffffffffffffffffffffffffffffffffffffff82169050919050565b60006105d4826105a9565b9050919050565b6105e4816105c9565b81146105ef57600080fd5b50565b600081359050610601816105db565b92915050565b6000819050919050565b61061a81610607565b811461062557600080fd5b50565b60008135905061063781610611565b92915050565b600080604083850312156106545761065361059f565b5b6000610662858286016105f2565b925050602061067385828601610628565b9150509250929050565b610686816105c9565b82525050565b60006020820190506106a1600083018461067d565b92915050565b600080fd5b6000601f19601f8301169050919050565b7f4e487b7100000000000000000000000000000000000000000000000000000000600052604160045260246000fd5b6106f5826106ac565b810181811067ffffffffffffffff82111715610714576107136106bd565b5b80604052505050565b6000610727610595565b905061073382826106ec565b919050565b600067ffffffffffffffff821115610753576107526106bd565b5b602082029050602081019050919050565b600080fd5b600061077c61077784610738565b61071d565b9050808382526020820190506020840283018581111561079f5761079e610764565b5b835b818110156107c857806107b488826105f2565b8452602084019350506020810190506107a1565b5050509392505050565b600082601f8301126107e7576107e66106a7565b5b81356107f7848260208601610769565b91505092915050565b6000602082840312156108165761081561059f565b5b600082013567ffffffffffffffff811115610834576108336105a4565b5b610840848285016107d2565b91505092915050565b60006020828403121561085f5761085e61059f565b5b600061086d84828501610628565b91505092915050565b60006020828403121561088c5761088b61059f565b5b600061089a848285016105f2565b91505092915050565b600081519050919050565b600082825260208201905092915050565b6000819050602082019050919050565b6108d8816105c9565b82525050565b60006108ea83836108cf565b60208301905092915050565b6000602082019050919050565b600061090e826108a3565b61091881856108ae565b9350610923836108bf565b8060005b8381101561095457815161093b88826108de565b9750610946836108f6565b925050600181019050610927565b5085935050505092915050565b6000602082019050818103600083015261097b8184610903565b905092915050565b61098c81610607565b82525050565b60006020820190506109a76000830184610983565b92915050565b6000819050919050565b60006109d26109cd6109c8846105a9565b6109ad565b6105a9565b9050919050565b60006109e4826109b7565b9050919050565b60006109f6826109d9565b9050919050565b610a06816109eb565b82525050565b6000602082019050610a2160008301846109fd565b92915050565b600082825260208201905092915050565b7f4e656564206174206c656173742033206f776e65727300000000000000000000600082015250565b6000610a6e601683610a27565b9150610a7982610a38565b602082019050919050565b60006020820190508181036000830152610a9d81610a61565b9050919050565b7f4e487b7100000000000000000000000000000000000000000000000000000000600052603260045260246000fd5b7f4e487b7100000000000000000000000000000000000000000000000000000000600052601160045260246000fd5b6000610b0d82610607565b9150610b1883610607565b9250828203905081811115610b3057610b2f610ad3565b5b92915050565b7f57616c6c657420646f6573206e6f742065786973740000000000000000000000600082015250565b6000610b6c601583610a27565b9150610b7782610b36565b602082019050919050565b60006020820190508181036000830152610b9b81610b5f565b905091905056fe608060405234801561001057600080fd5b506040516124c93803806124c983398181016040528101906100329190610438565b600381511015610077576040517f08c379a000000000000000000000000000000000000000000000000000000000815260040161006e90610504565b60405180910390fd5b60005b815181101561026657600082828151811061009857610097610524565b5b60200260200101519050600073ffffffffffffffffffffffffffffffffffffffff168173ffffffffffffffffffffffffffffffffffffffff1603610111576040517f08c379a00000000000000000000000000000000000000000000000000000000081526004016101089061059f565b60405180910390fd5b600160008273ffffffffffffffffffffffffffffffffffffffff1673ffffffffffffffffffffffffffffffffffffffff16815260200190815260200160002060009054906101000a900460ff161561019e576040517f08c379a00000000000000000000000000000000000000000000000000000000081526004016101959061060b565b60405180910390fd5b60018060008373ffffffffffffffffffffffffffffffffffffffff1673ffffffffffffffffffffffffffffffffffffffff16815260200190815260200160002060006101000a81548160ff0219169083151502179055506000819080600181540180825580915050600190039060005260206000200160009091909190916101000a81548173ffffffffffffffffffffffffffffffffffffffff021916908373ffffffffffffffffffffffffffffffffffffffff16021790555050808060010191505061007a565b505061062b565b6000604051905090565b600080fd5b600080fd5b600080fd5b6000601f19601f8301169050919050565b7f4e487b7100000000000000000000000000000000000000000000000000000000600052604160045260246000fd5b6102cf82610286565b810181811067ffffffffffffffff821117156102ee576102ed610297565b5b80604052505050565b600061030161026d565b905061030d82826102c6565b919050565b600067ffffffffffffffff82111561032d5761032c610297565b5b602082029050602081019050919050565b600080fd5b600073ffffffffffffffffffffffffffffffffffffffff82169050919050565b600061036e82610343565b9050919050565b61037e81610363565b811461038957600080fd5b50565b60008151905061039b81610375565b92915050565b60006103b46103af84610312565b6102f7565b905080838252602082019050602084028301858111156103d7576103d661033e565b5b835b8181101561040057806103ec888261038c565b8452602084019350506020810190506103d9565b5050509392505050565b600082601f83011261041f5761041e610281565b5b815161042f8482602086016103a1565b91505092915050565b60006020828403121561044e5761044d610277565b5b600082015167ffffffffffffffff81111561046c5761046b61027c565b5b6104788482850161040a565b91505092915050565b600082825260208201905092915050565b7f6f776e657273207265717569726564206d757374206265206174206c6561737460008201527f2033000000000000000000000000000000000000000000000000000000000000602082015250565b60006104ee602283610481565b91506104f982610492565b604082019050919050565b6000602082019050818103600083015261051d816104e1565b9050919050565b7f4e487b7100000000000000000000000000000000000000000000000000000000600052603260045260246000fd5b7f696e76616c6964206f776e657200000000000000000000000000000000000000600082015250565b6000610589600d83610481565b915061059482610553565b602082019050919050565b600060208201905081810360008301526105b88161057c565b9050919050565b7f6f776e6572206e6f7420756e6971756500000000000000000000000000000000600082015250565b60006105f5601083610481565b9150610600826105bf565b602082019050919050565b60006020820190508181036000830152610624816105e8565b9050919050565b611e8f8061063a6000396000f3fe6080604052600436106100ab5760003560e01c80639ace38c2116100645780639ace38c214610253578063a0e67e2b14610294578063c01a8c84146102bf578063c6427474146102e8578063d0549b8514610311578063ee22610b1461033c57610102565b8063025e7c271461010757806320ea8d86146101445780632e7700f01461016d5780632f54bf6e1461019857806333ea3dc8146101d557806380f59a651461021657610102565b36610102573373ffffffffffffffffffffffffffffffffffffffff167f90890809c654f11d6e72a28fa60149770a0d11ec6c92319d6ceb2bb0a4ea1a1534476040516100f892919061116b565b60405180910390a2005b600080fd5b34801561011357600080fd5b5061012e600480360381019061012991906111d4565b610365565b60405161013b9190611242565b60405180910390f35b34801561015057600080fd5b5061016b600480360381019061016691906111d4565b6103a4565b005b34801561017957600080fd5b5061018261067e565b60405161018f919061125d565b60405180910390f35b3480156101a457600080fd5b506101bf60048036038101906101ba91906112a4565b61068b565b6040516101cc91906112ec565b60405180910390f35b3480156101e157600080fd5b506101fc60048036038101906101f791906111d4565b6106ab565b60405161020d959493929190611397565b60405180910390f35b34801561022257600080fd5b5061023d600480360381019061023891906113f1565b6107be565b60405161024a91906112ec565b60405180910390f35b34801561025f57600080fd5b5061027a600480360381019061027591906111d4565b6107ed565b60405161028b959493929190611397565b60405180910390f35b3480156102a057600080fd5b506102a96108e8565b6040516102b691906114ef565b60405180910390f35b3480156102cb57600080fd5b506102e660048036038101906102e191906111d4565b610976565b005b3480156102f457600080fd5b5061030f600480360381019061030a9190611646565b610c53565b005b34801561031d57600080fd5b50610326610e56565b604051610333919061125d565b60405180910390f35b34801561034857600080fd5b50610363600480360381019061035e91906111d4565b610e5b565b005b6000818154811061037557600080fd5b906000526020600020016000915054906101000a900473ffffffffffffffffffffffffffffffffffffffff1681565b600160003373ffffffffffffffffffffffffffffffffffffffff1673ffffffffffffffffffffffffffffffffffffffff16815260200190815260200160002060009054906101000a900460ff16610430576040517f08c379a000000000000000000000000000000000000000000000000000000000815260040161042790611712565b60405180910390fd5b806003805490508110610478576040517f08c379a000000000000000000000000000000000000000000000000000000000815260040161046f9061177e565b60405180910390fd5b816003818154811061048d5761048c61179e565b5b906000526020600020906005020160030160009054906101000a900460ff16156104ec576040517f08c379a00000000000000000000000000000000000000000000000000000000081526004016104e390611819565b60405180910390fd5b6000600384815481106105025761050161179e565b5b906000526020600020906005020190506002600085815260200190815260200160002060003373ffffffffffffffffffffffffffffffffffffffff1673ffffffffffffffffffffffffffffffffffffffff16815260200190815260200160002060009054906101000a900460ff166105af576040517f08c379a00000000000000000000000000000000000000000000000000000000081526004016105a690611885565b60405180910390fd5b60018160040160008282546105c491906118d4565b9250508190555060006002600086815260200190815260200160002060003373ffffffffffffffffffffffffffffffffffffffff1673ffffffffffffffffffffffffffffffffffffffff16815260200190815260200160002060006101000a81548160ff021916908315150217905550833373ffffffffffffffffffffffffffffffffffffffff167ff0dca620e2e81f7841d07bcc105e1704fb01475b278a9d4c236e1c62945edd5560405160405180910390a350505050565b6000600380549050905090565b60016020528060005260406000206000915054906101000a900460ff1681565b60008060606000806000600387815481106106c9576106c861179e565b5b906000526020600020906005020190508060000160009054906101000a900473ffffffffffffffffffffffffffffffffffffffff168160010154826002018360030160009054906101000a900460ff16846004015482805461072a90611937565b80601f016020809104026020016040519081016040528092919081815260200182805461075690611937565b80156107a35780601f10610778576101008083540402835291602001916107a3565b820191906000526020600020905b81548152906001019060200180831161078657829003601f168201915b50505050509250955095509550955095505091939590929450565b60026020528160005260406000206020528060005260406000206000915091509054906101000a900460ff1681565b600381815481106107fd57600080fd5b90600052602060002090600502016000915090508060000160009054906101000a900473ffffffffffffffffffffffffffffffffffffffff169080600101549080600201805461084c90611937565b80601f016020809104026020016040519081016040528092919081815260200182805461087890611937565b80156108c55780601f1061089a576101008083540402835291602001916108c5565b820191906000526020600020905b8154815290600101906020018083116108a857829003601f168201915b5050505050908060030160009054906101000a900460ff16908060040154905085565b6060600080548060200260200160405190810160405280929190818152602001828054801561096c57602002820191906000526020600020905b8160009054906101000a900473ffffffffffffffffffffffffffffffffffffffff1673ffffffffffffffffffffffffffffffffffffffff1681526020019060010190808311610922575b5050505050905090565b600160003373ffffffffffffffffffffffffffffffffffffffff1673ffffffffffffffffffffffffffffffffffffffff16815260200190815260200160002060009054906101000a900460ff16610a02576040517f08c379a00000000000000000000000000000000000000000000000000000000081526004016109f990611712565b60405180910390fd5b806003805490508110610a4a576040517f08c379a0000000000000000000000000000000000000000000000000000000008152600401610a419061177e565b60405180910390fd5b8160038181548110610a5f57610a5e61179e565b5b906000526020600020906005020160030160009054906101000a900460ff1615610abe576040517f08c379a0000000000000000000000000000000000000000000000000000000008152600401610ab590611819565b60405180910390fd5b826002600082815260200190815260200160002060003373ffffffffffffffffffffffffffffffffffffffff1673ffffffffffffffffffffffffffffffffffffffff16815260200190815260200160002060009054906101000a900460ff1615610b5d576040517f08c379a0000000000000000000000000000000000000000000000000000000008152600401610b54906119b4565b60405180910390fd5b600060038581548110610b7357610b7261179e565b5b906000526020600020906005020190506001816004016000828254610b9891906119d4565b9250508190555060016002600087815260200190815260200160002060003373ffffffffffffffffffffffffffffffffffffffff1673ffffffffffffffffffffffffffffffffffffffff16815260200190815260200160002060006101000a81548160ff021916908315150217905550843373ffffffffffffffffffffffffffffffffffffffff167f5cbe105e36805f7820e291f799d5794ff948af2a5f664e580382defb6339004160405160405180910390a35050505050565b600160003373ffffffffffffffffffffffffffffffffffffffff1673ffffffffffffffffffffffffffffffffffffffff16815260200190815260200160002060009054906101000a900460ff16610cdf576040517f08c379a0000000000000000000000000000000000000000000000000000000008152600401610cd690611712565b60405180910390fd5b6000600380549050905060036040518060a001604052808673ffffffffffffffffffffffffffffffffffffffff1681526020018581526020018481526020016000151581526020016000815250908060018154018082558091505060019003906000526020600020906005020160009091909190915060008201518160000160006101000a81548173ffffffffffffffffffffffffffffffffffffffff021916908373ffffffffffffffffffffffffffffffffffffffff160217905550602082015181600101556040820151816002019081610dbb9190611bb4565b5060608201518160030160006101000a81548160ff0219169083151502179055506080820151816004015550508373ffffffffffffffffffffffffffffffffffffffff16813373ffffffffffffffffffffffffffffffffffffffff167fd5a05bf70715ad82a09a756320284a1b54c9ff74cd0f8cce6219e79b563fe59d8686604051610e48929190611c86565b60405180910390a450505050565b600381565b600160003373ffffffffffffffffffffffffffffffffffffffff1673ffffffffffffffffffffffffffffffffffffffff16815260200190815260200160002060009054906101000a900460ff16610ee7576040517f08c379a0000000000000000000000000000000000000000000000000000000008152600401610ede90611712565b60405180910390fd5b806003805490508110610f2f576040517f08c379a0000000000000000000000000000000000000000000000000000000008152600401610f269061177e565b60405180910390fd5b8160038181548110610f4457610f4361179e565b5b906000526020600020906005020160030160009054906101000a900460ff1615610fa3576040517f08c379a0000000000000000000000000000000000000000000000000000000008152600401610f9a90611819565b60405180910390fd5b600060038481548110610fb957610fb861179e565b5b90600052602060002090600502019050600381600401541015611011576040517f08c379a000000000000000000000000000000000000000000000000000000000815260040161100890611d28565b60405180910390fd5b60018160030160006101000a81548160ff02191690831515021790555060008160000160009054906101000a900473ffffffffffffffffffffffffffffffffffffffff1673ffffffffffffffffffffffffffffffffffffffff168260010154836002016040516110819190611dd6565b60006040518083038185875af1925050503d80600081146110be576040519150601f19603f3d011682016040523d82523d6000602084013e6110c3565b606091505b5050905080611107576040517f08c379a00000000000000000000000000000000000000000000000000000000081526004016110fe90611e39565b60405180910390fd5b843373ffffffffffffffffffffffffffffffffffffffff167f5445f318f4f5fcfb66592e68e0cc5822aa15664039bd5f0ffde24c5a8142b1ac60405160405180910390a35050505050565b6000819050919050565b61116581611152565b82525050565b6000604082019050611180600083018561115c565b61118d602083018461115c565b9392505050565b6000604051905090565b600080fd5b600080fd5b6111b181611152565b81146111bc57600080fd5b50565b6000813590506111ce816111a8565b92915050565b6000602082840312156111ea576111e961119e565b5b60006111f8848285016111bf565b91505092915050565b600073ffffffffffffffffffffffffffffffffffffffff82169050919050565b600061122c82611201565b9050919050565b61123c81611221565b82525050565b60006020820190506112576000830184611233565b92915050565b6000602082019050611272600083018461115c565b92915050565b61128181611221565b811461128c57600080fd5b50565b60008135905061129e81611278565b92915050565b6000602082840312156112ba576112b961119e565b5b60006112c88482850161128f565b91505092915050565b60008115159050919050565b6112e6816112d1565b82525050565b600060208201905061130160008301846112dd565b92915050565b600081519050919050565b600082825260208201905092915050565b60005b83811015611341578082015181840152602081019050611326565b60008484015250505050565b6000601f19601f8301169050919050565b600061136982611307565b6113738185611312565b9350611383818560208601611323565b61138c8161134d565b840191505092915050565b600060a0820190506113ac6000830188611233565b6113b9602083018761115c565b81810360408301526113cb818661135e565b90506113da60608301856112dd565b6113e7608083018461115c565b9695505050505050565b600080604083850312156114085761140761119e565b5b6000611416858286016111bf565b92505060206114278582860161128f565b9150509250929050565b600081519050919050565b600082825260208201905092915050565b6000819050602082019050919050565b61146681611221565b82525050565b6000611478838361145d565b60208301905092915050565b6000602082019050919050565b600061149c82611431565b6114a6818561143c565b93506114b18361144d565b8060005b838110156114e25781516114c9888261146c565b97506114d483611484565b9250506001810190506114b5565b5085935050505092915050565b600060208201905081810360008301526115098184611491565b905092915050565b600080fd5b600080fd5b7f4e487b7100000000000000000000000000000000000000000000000000000000600052604160045260246000fd5b6115538261134d565b810181811067ffffffffffffffff821117156115725761157161151b565b5b80604052505050565b6000611585611194565b9050611591828261154a565b919050565b600067ffffffffffffffff8211156115b1576115b061151b565b5b6115ba8261134d565b9050602081019050919050565b82818337600083830152505050565b60006115e96115e484611596565b61157b565b90508281526020810184848401111561160557611604611516565b5b6116108482856115c7565b509392505050565b600082601f83011261162d5761162c611511565b5b813561163d8482602086016115d6565b91505092915050565b60008060006060848603121561165f5761165e61119e565b5b600061166d8682870161128f565b935050602061167e868287016111bf565b925050604084013567ffffffffffffffff81111561169f5761169e6111a3565b5b6116ab86828701611618565b9150509250925092565b600082825260208201905092915050565b7f6e6f74206f776e65720000000000000000000000000000000000000000000000600082015250565b60006116fc6009836116b5565b9150611707826116c6565b602082019050919050565b6000602082019050818103600083015261172b816116ef565b9050919050565b7f747820646f6573206e6f74206578697374000000000000000000000000000000600082015250565b60006117686011836116b5565b915061177382611732565b602082019050919050565b600060208201905081810360008301526117978161175b565b9050919050565b7f4e487b7100000000000000000000000000000000000000000000000000000000600052603260045260246000fd5b7f747820616c726561647920657865637574656400000000000000000000000000600082015250565b60006118036013836116b5565b915061180e826117cd565b602082019050919050565b60006020820190508181036000830152611832816117f6565b9050919050565b7f7478206e6f7420636f6e6669726d656400000000000000000000000000000000600082015250565b600061186f6010836116b5565b915061187a82611839565b602082019050919050565b6000602082019050818103600083015261189e81611862565b9050919050565b7f4e487b7100000000000000000000000000000000000000000000000000000000600052601160045260246000fd5b60006118df82611152565b91506118ea83611152565b9250828203905081811115611902576119016118a5565b5b92915050565b7f4e487b7100000000000000000000000000000000000000000000000000000000600052602260045260246000fd5b6000600282049050600182168061194f57607f821691505b60208210810361196257611961611908565b5b50919050565b7f747820616c726561647920636f6e6669726d6564000000000000000000000000600082015250565b600061199e6014836116b5565b91506119a982611968565b602082019050919050565b600060208201905081810360008301526119cd81611991565b9050919050565b60006119df82611152565b91506119ea83611152565b9250828201905080821115611a0257611a016118a5565b5b92915050565b60008190508160005260206000209050919050565b60006020601f8301049050919050565b600082821b905092915050565b600060088302611a6a7fffffffffffffffffffffffffffffffffffffffffffffffffffffffffffffffff82611a2d565b611a748683611a2d565b95508019841693508086168417925050509392505050565b6000819050919050565b6000611ab1611aac611aa784611152565b611a8c565b611152565b9050919050565b6000819050919050565b611acb83611a96565b611adf611ad782611ab8565b848454611a3a565b825550505050565b600090565b611af4611ae7565b611aff818484611ac2565b505050565b5b81811015611b2357611b18600082611aec565b600181019050611b05565b5050565b601f821115611b6857611b3981611a08565b611b4284611a1d565b81016020851015611b51578190505b611b65611b5d85611a1d565b830182611b04565b50505b505050565b600082821c905092915050565b6000611b8b60001984600802611b6d565b1980831691505092915050565b6000611ba48383611b7a565b9150826002028217905092915050565b611bbd82611307565b67ffffffffffffffff811115611bd657611bd561151b565b5b611be08254611937565b611beb828285611b27565b600060209050601f831160018114611c1e5760008415611c0c578287015190505b611c168582611b98565b865550611c7e565b601f198416611c2c86611a08565b60005b82811015611c5457848901518255600182019150602085019450602081019050611c2f565b86831015611c715784890151611c6d601f891682611b7a565b8355505b6001600288020188555050505b505050505050565b6000604082019050611c9b600083018561115c565b8181036020830152611cad818461135e565b90509392505050565b7f63616e6e6f742065786563757465207478202d206e656564206174206c65617360008201527f74203320636f6e6669726d6174696f6e73000000000000000000000000000000602082015250565b6000611d126031836116b5565b9150611d1d82611cb6565b604082019050919050565b60006020820190508181036000830152611d4181611d05565b9050919050565b600081905092915050565b60008154611d6081611937565b611d6a8186611d48565b94506001821660008114611d855760018114611d9a57611dcd565b60ff1983168652811515820286019350611dcd565b611da385611a08565b60005b83811015611dc557815481890152600182019150602081019050611da6565b838801955050505b50505092915050565b6000611de28284611d53565b915081905092915050565b7f7478206661696c65640000000000000000000000000000000000000000000000600082015250565b6000611e236009836116b5565b9150611e2e82611ded565b602082019050919050565b60006020820190508181036000830152611e5281611e16565b905091905056fea26469706673582212209fb2c7d72280f8851edb4f85ce095b3bbbe3cca3b39b3f648f8ccd893f909af264736f6c634300081c0033a2646970667358221220f5af195e998a9a1129dd6e4e49f7013709e0279e8e96451eac1abb982180f05264736f6c634300081c0033",
  "linkReferences": {},
  "deployedLinkReferences": {}
}