{
  "_format": "hh-sol-artifact-1",
  "contractName": "SchoolManagementSystem",
  "sourceName": "contracts/SchoolMnagementSystem.sol",
  "abi": [
    {
      "anonymous": false,
      "inputs": [
        {
          "indexed": false,
          "internalType": "uint256",
          "name": "id",
          "type": "uint256"
        }
      ],
      "name": "StudentDeleted",
      "type": "event"
    },
    {
      "anonymous": false,
      "inputs": [
        {
          "indexed": false,
          "internalType": "uint256",
          "name": "id",
          "type": "uint256"
        },
        {
          "indexed": false,
          "internalType": "string",
          "name": "name",
          "type": "string"
        },
        {
          "indexed": false,
          "internalType": "uint256",
          "name": "age",
          "type": "uint256"
        },
        {
          "indexed": false,
          "internalType": "enum SchoolManagementSystem.Status",
          "name": "status",
          "type": "uint8"
        }
      ],
      "name": "StudentRegistered",
      "type": "event"
    },
    {
      "anonymous": false,
      "inputs": [
        {
          "indexed": false,
          "internalType": "uint256",
          "name": "id",
          "type": "uint256"
        },
        {
          "indexed": false,
          "internalType": "string",
          "name": "name",
          "type": "string"
        },
        {
          "indexed": false,
          "internalType": "uint256",
          "name": "age",
          "type": "uint256"
        },
        {
          "indexed": false,
          "internalType": "enum SchoolManagementSystem.Status",
          "name": "status",
          "type": "uint8"
        }
      ],
      "name": "StudentUpdated",
      "type": "event"
    },
    {
      "inputs": [
        {
          "internalType": "uint256",
          "name": "_id",
          "type": "uint256"
        }
      ],
      "name": "deleteStudent",
      "outputs": [],
      "stateMutability": "nonpayable",
      "type": "function"
    },
    {
      "inputs": [],
      "name": "getAllStudents",
      "outputs": [
        {
          "components": [
            {
              "internalType": "uint256",
              "name": "id",
              "type": "uint256"
            },
            {
              "internalType": "string",
              "name": "name",
              "type": "string"
            },
            {
              "internalType": "uint256",
              "name": "age",
              "type": "uint256"
            },
            {
              "internalType": "enum SchoolManagementSystem.Status",
              "name": "status",
              "type": "uint8"
            },
            {
              "internalType": "bool",
              "name": "exists",
              "type": "bool"
            }
          ],
          "internalType": "struct SchoolManagementSystem.Student[]",
          "name": "",
          "type": "tuple[]"
        }
      ],
      "stateMutability": "view",
      "type": "function"
    },
    {
      "inputs": [
        {
          "internalType": "uint256",
          "name": "_id",
          "type": "uint256"
        }
      ],
      "name": "getStudent",
      "outputs": [
        {
          "internalType": "uint256",
          "name": "",
          "type": "uint256"
        },
        {
          "internalType": "string",
          "name": "",
          "type": "string"
        },
        {
          "internalType": "uint256",
          "name": "",
          "type": "uint256"
        },
        {
          "internalType": "enum SchoolManagementSystem.Status",
          "name": "",
          "type": "uint8"
        }
      ],
      "stateMutability": "view",
      "type": "function"
    },
    {
      "inputs": [],
      "name": "getStudentCount",
      "outputs": [
        {
          "internalType": "uint256",
          "name": "",
          "type": "uint256"
        }
      ],
      "stateMutability": "view",
      "type": "function"
    },
    {
      "inputs": [
        {
          "internalType": "string",
          "name": "_name",
          "type": "string"
        },
        {
          "internalType": "uint256",
          "name": "_age",
          "type": "uint256"
        }
      ],
      "name": "registerStudent",
      "outputs": [],
      "stateMutability": "nonpayable",
      "type": "function"
    },
    {
      "inputs": [
        {
          "internalType": "uint256",
          "name": "",
          "type": "uint256"
        }
      ],
      "name": "students",
      "outputs": [
        {
          "internalType": "uint256",
          "name": "id",
          "type": "uint256"
        },
        {
          "internalType": "string",
          "name": "name",
          "type": "string"
        },
        {
          "internalType": "uint256",
          "name": "age",
          "type": "uint256"
        },
        {
          "internalType": "enum SchoolManagementSystem.Status",
          "name": "status",
          "type": "uint8"
        },
        {
          "internalType": "bool",
          "name": "exists",
          "type": "bool"
        }
      ],
      "stateMutability": "view",
      "type": "function"
    },
    {
      "inputs": [
        {
          "internalType": "uint256",
          "name": "_id",
          "type": "uint256"
        },
        {
          "internalType": "string",
          "name": "_name",
          "type": "string"
        },
        {
          "internalType": "uint256",
          "name": "_age",
          "type": "uint256"
        }
      ],
      "name": "updateStudent",
      "outputs": [],
      "stateMutability": "nonpayable",
      "type": "function"
    },
    {
      "inputs": [
        {
          "internalType": "uint256",
          "name": "_id",
          "type": "uint256"
        },
        {
          "internalType": "enum SchoolManagementSystem.Status",
          "name": "_status",
          "type": "uint8"
        }
      ],
      "name": "updateStudentStatus",
      "outputs": [],
      "stateMutability": "nonpayable",
      "type": "function"
    }
  ],
  "bytecode": "0x608060405260018055348015601357600080fd5b50611df6806100236000396000f3fe608060405234801561001057600080fd5b50600436106100885760003560e01c8063b645307d1161005b578063b645307d1461012e578063e7e58d071461014a578063e9e3092714610166578063ec7505b11461018457610088565b806306ead22e1461008d57806312a0b744146100c157806341e0c407146100dd578063642f9163146100fb575b600080fd5b6100a760048036038101906100a29190611167565b6101a0565b6040516100b89594939291906112c5565b60405180910390f35b6100db60048036038101906100d69190611454565b610288565b005b6100e5610451565b6040516100f291906114b0565b60405180910390f35b61011560048036038101906101109190611167565b6104c4565b60405161012594939291906114cb565b60405180910390f35b61014860048036038101906101439190611167565b6107a4565b005b610164600480360381019061015f919061153c565b610979565b005b61016e610bae565b60405161017b919061172b565b60405180910390f35b61019e6004803603810190610199919061174d565b610e24565b005b600081815481106101b057600080fd5b90600052602060002090600402016000915090508060000154908060010180546101d9906117eb565b80601f0160208091040260200160405190810160405280929190818152602001828054610205906117eb565b80156102525780601f1061022757610100808354040283529160200191610252565b820191906000526020600020905b81548152906001019060200180831161023557829003601f168201915b5050505050908060020154908060030160009054906101000a900460ff16908060030160019054906101000a900460ff16905085565b60008251116102cc576040517f08c379a00000000000000000000000000000000000000000000000000000000081526004016102c390611868565b60405180910390fd5b6000811161030f576040517f08c379a0000000000000000000000000000000000000000000000000000000008152600401610306906118d4565b60405180910390fd5b60006040518060a0016040528060015481526020018481526020018381526020016000600281111561034457610343611233565b5b81526020016001151581525090806001815401808255809150506001900390600052602060002090600402016000909190919091506000820151816000015560208201518160010190816103989190611aa0565b506040820151816002015560608201518160030160006101000a81548160ff021916908360028111156103ce576103cd611233565b5b021790555060808201518160030160016101000a81548160ff02191690831515021790555050507f9f90c88a56c50549d190eeeecb05ab6a94c8d64eebb3dff61a9897ad69786c1a6001548383600060405161042d94939291906114cb565b60405180910390a16001600081548092919061044890611ba1565b91905055505050565b6000806000905060005b6000805490508110156104bc576000818154811061047c5761047b611be9565b5b906000526020600020906004020160030160019054906101000a900460ff16156104af5781806104ab90611ba1565b9250505b808060010191505061045b565b508091505090565b60006060600080846000805b60008054905081101561055b5782600082815481106104f2576104f1611be9565b5b9060005260206000209060040201600001541480156105405750600081815481106105205761051f611be9565b5b906000526020600020906004020160030160019054906101000a900460ff165b1561054e576001915061055b565b80806001019150506104d0565b508061059c576040517f08c379a000000000000000000000000000000000000000000000000000000000815260040161059390611c64565b60405180910390fd5b60005b60008054905081101561075f5787600082815481106105c1576105c0611be9565b5b90600052602060002090600402016000015414801561060f5750600081815481106105ef576105ee611be9565b5b906000526020600020906004020160030160019054906101000a900460ff165b15610752576000818154811061062857610627611be9565b5b9060005260206000209060040201600001546000828154811061064e5761064d611be9565b5b90600052602060002090600402016001016000838154811061067357610672611be9565b5b9060005260206000209060040201600201546000848154811061069957610698611be9565b5b906000526020600020906004020160030160009054906101000a900460ff168280546106c4906117eb565b80601f01602080910402602001604051908101604052809291908181526020018280546106f0906117eb565b801561073d5780601f106107125761010080835404028352916020019161073d565b820191906000526020600020905b81548152906001019060200180831161072057829003601f168201915b5050505050925096509650965096505061079b565b808060010191505061059f565b506040517f08c379a000000000000000000000000000000000000000000000000000000000815260040161079290611cd0565b60405180910390fd5b50509193509193565b806000805b6000805490508110156108345782600082815481106107cb576107ca611be9565b5b9060005260206000209060040201600001541480156108195750600081815481106107f9576107f8611be9565b5b906000526020600020906004020160030160019054906101000a900460ff165b156108275760019150610834565b80806001019150506107a9565b5080610875576040517f08c379a000000000000000000000000000000000000000000000000000000000815260040161086c90611c64565b60405180910390fd5b60005b60008054905081101561097357836000828154811061089a57610899611be9565b5b9060005260206000209060040201600001541480156108e85750600081815481106108c8576108c7611be9565b5b906000526020600020906004020160030160019054906101000a900460ff165b1561096657600080828154811061090257610901611be9565b5b906000526020600020906004020160030160016101000a81548160ff0219169083151502179055507f34de6b871245ed0a89b82912e8e5ee6d9c3104b3e5bb1d67a71ad7e68239e41c8460405161095991906114b0565b60405180910390a1610973565b8080600101915050610878565b50505050565b816000805b600080549050811015610a095782600082815481106109a05761099f611be9565b5b9060005260206000209060040201600001541480156109ee5750600081815481106109ce576109cd611be9565b5b906000526020600020906004020160030160019054906101000a900460ff165b156109fc5760019150610a09565b808060010191505061097e565b5080610a4a576040517f08c379a0000000000000000000000000000000000000000000000000000000008152600401610a4190611c64565b60405180910390fd5b60005b600080549050811015610ba7578460008281548110610a6f57610a6e611be9565b5b906000526020600020906004020160000154148015610abd575060008181548110610a9d57610a9c611be9565b5b906000526020600020906004020160030160019054906101000a900460ff165b15610b9a578360008281548110610ad757610ad6611be9565b5b906000526020600020906004020160030160006101000a81548160ff02191690836002811115610b0a57610b09611233565b5b02179055507ffb06b05041a115c64a08388e4c0b6ab470ae861c4dcca2f79adedccbfed13eca8560008381548110610b4557610b44611be9565b5b906000526020600020906004020160010160008481548110610b6a57610b69611be9565b5b90600052602060002090600402016002015487604051610b8d9493929190611d74565b60405180910390a1610ba7565b8080600101915050610a4d565b5050505050565b60606000805b600080549050811015610c155760008181548110610bd557610bd4611be9565b5b906000526020600020906004020160030160019054906101000a900460ff1615610c08578180610c0490611ba1565b9250505b8080600101915050610bb4565b5060008167ffffffffffffffff811115610c3257610c31611329565b5b604051908082528060200260200182016040528015610c6b57816020015b610c586110da565b815260200190600190039081610c505790505b5090506000805b600080549050811015610e1a5760008181548110610c9357610c92611be9565b5b906000526020600020906004020160030160019054906101000a900460ff1615610e0d5760008181548110610ccb57610cca611be9565b5b90600052602060002090600402016040518060a001604052908160008201548152602001600182018054610cfe906117eb565b80601f0160208091040260200160405190810160405280929190818152602001828054610d2a906117eb565b8015610d775780601f10610d4c57610100808354040283529160200191610d77565b820191906000526020600020905b815481529060010190602001808311610d5a57829003601f168201915b50505050508152602001600282015481526020016003820160009054906101000a900460ff166002811115610daf57610dae611233565b5b6002811115610dc157610dc0611233565b5b81526020016003820160019054906101000a900460ff161515151581525050838381518110610df357610df2611be9565b5b60200260200101819052508180610e0990611ba1565b9250505b8080600101915050610c72565b5081935050505090565b826000805b600080549050811015610eb4578260008281548110610e4b57610e4a611be9565b5b906000526020600020906004020160000154148015610e99575060008181548110610e7957610e78611be9565b5b906000526020600020906004020160030160019054906101000a900460ff165b15610ea75760019150610eb4565b8080600101915050610e29565b5080610ef5576040517f08c379a0000000000000000000000000000000000000000000000000000000008152600401610eec90611c64565b60405180910390fd5b6000845111610f39576040517f08c379a0000000000000000000000000000000000000000000000000000000008152600401610f3090611868565b60405180910390fd5b60008311610f7c576040517f08c379a0000000000000000000000000000000000000000000000000000000008152600401610f73906118d4565b60405180910390fd5b60005b6000805490508110156110d2578560008281548110610fa157610fa0611be9565b5b906000526020600020906004020160000154148015610fef575060008181548110610fcf57610fce611be9565b5b906000526020600020906004020160030160019054906101000a900460ff165b156110c557846000828154811061100957611008611be9565b5b906000526020600020906004020160010190816110269190611aa0565b50836000828154811061103c5761103b611be9565b5b9060005260206000209060040201600201819055507ffb06b05041a115c64a08388e4c0b6ab470ae861c4dcca2f79adedccbfed13eca8686866000858154811061108957611088611be9565b5b906000526020600020906004020160030160009054906101000a900460ff166040516110b894939291906114cb565b60405180910390a16110d2565b8080600101915050610f7f565b505050505050565b6040518060a001604052806000815260200160608152602001600081526020016000600281111561110e5761110d611233565b5b81526020016000151581525090565b6000604051905090565b600080fd5b600080fd5b6000819050919050565b61114481611131565b811461114f57600080fd5b50565b6000813590506111618161113b565b92915050565b60006020828403121561117d5761117c611127565b5b600061118b84828501611152565b91505092915050565b61119d81611131565b82525050565b600081519050919050565b600082825260208201905092915050565b60005b838110156111dd5780820151818401526020810190506111c2565b60008484015250505050565b6000601f19601f8301169050919050565b6000611205826111a3565b61120f81856111ae565b935061121f8185602086016111bf565b611228816111e9565b840191505092915050565b7f4e487b7100000000000000000000000000000000000000000000000000000000600052602160045260246000fd5b6003811061127357611272611233565b5b50565b600081905061128482611262565b919050565b600061129482611276565b9050919050565b6112a481611289565b82525050565b60008115159050919050565b6112bf816112aa565b82525050565b600060a0820190506112da6000830188611194565b81810360208301526112ec81876111fa565b90506112fb6040830186611194565b611308606083018561129b565b61131560808301846112b6565b9695505050505050565b600080fd5b600080fd5b7f4e487b7100000000000000000000000000000000000000000000000000000000600052604160045260246000fd5b611361826111e9565b810181811067ffffffffffffffff821117156113805761137f611329565b5b80604052505050565b600061139361111d565b905061139f8282611358565b919050565b600067ffffffffffffffff8211156113bf576113be611329565b5b6113c8826111e9565b9050602081019050919050565b82818337600083830152505050565b60006113f76113f2846113a4565b611389565b90508281526020810184848401111561141357611412611324565b5b61141e8482856113d5565b509392505050565b600082601f83011261143b5761143a61131f565b5b813561144b8482602086016113e4565b91505092915050565b6000806040838503121561146b5761146a611127565b5b600083013567ffffffffffffffff8111156114895761148861112c565b5b61149585828601611426565b92505060206114a685828601611152565b9150509250929050565b60006020820190506114c56000830184611194565b92915050565b60006080820190506114e06000830187611194565b81810360208301526114f281866111fa565b90506115016040830185611194565b61150e606083018461129b565b95945050505050565b6003811061152457600080fd5b50565b60008135905061153681611517565b92915050565b6000806040838503121561155357611552611127565b5b600061156185828601611152565b925050602061157285828601611527565b9150509250929050565b600081519050919050565b600082825260208201905092915050565b6000819050602082019050919050565b6115b181611131565b82525050565b600082825260208201905092915050565b60006115d3826111a3565b6115dd81856115b7565b93506115ed8185602086016111bf565b6115f6816111e9565b840191505092915050565b61160a81611289565b82525050565b611619816112aa565b82525050565b600060a08301600083015161163760008601826115a8565b506020830151848203602086015261164f82826115c8565b915050604083015161166460408601826115a8565b5060608301516116776060860182611601565b50608083015161168a6080860182611610565b508091505092915050565b60006116a1838361161f565b905092915050565b6000602082019050919050565b60006116c18261157c565b6116cb8185611587565b9350836020820285016116dd85611598565b8060005b8581101561171957848403895281516116fa8582611695565b9450611705836116a9565b925060208a019950506001810190506116e1565b50829750879550505050505092915050565b6000602082019050818103600083015261174581846116b6565b905092915050565b60008060006060848603121561176657611765611127565b5b600061177486828701611152565b935050602084013567ffffffffffffffff8111156117955761179461112c565b5b6117a186828701611426565b92505060406117b286828701611152565b9150509250925092565b7f4e487b7100000000000000000000000000000000000000000000000000000000600052602260045260246000fd5b6000600282049050600182168061180357607f821691505b602082108103611816576118156117bc565b5b50919050565b7f4e616d652063616e6e6f7420626520656d707479000000000000000000000000600082015250565b60006118526014836111ae565b915061185d8261181c565b602082019050919050565b6000602082019050818103600083015261188181611845565b9050919050565b7f416765206d7573742062652067726561746572207468616e2030000000000000600082015250565b60006118be601a836111ae565b91506118c982611888565b602082019050919050565b600060208201905081810360008301526118ed816118b1565b9050919050565b60008190508160005260206000209050919050565b60006020601f8301049050919050565b600082821b905092915050565b6000600883026119567fffffffffffffffffffffffffffffffffffffffffffffffffffffffffffffffff82611919565b6119608683611919565b95508019841693508086168417925050509392505050565b6000819050919050565b600061199d61199861199384611131565b611978565b611131565b9050919050565b6000819050919050565b6119b783611982565b6119cb6119c3826119a4565b848454611926565b825550505050565b600090565b6119e06119d3565b6119eb8184846119ae565b505050565b5b81811015611a0f57611a046000826119d8565b6001810190506119f1565b5050565b601f821115611a5457611a25816118f4565b611a2e84611909565b81016020851015611a3d578190505b611a51611a4985611909565b8301826119f0565b50505b505050565b600082821c905092915050565b6000611a7760001984600802611a59565b1980831691505092915050565b6000611a908383611a66565b9150826002028217905092915050565b611aa9826111a3565b67ffffffffffffffff811115611ac257611ac1611329565b5b611acc82546117eb565b611ad7828285611a13565b600060209050601f831160018114611b0a5760008415611af8578287015190505b611b028582611a84565b865550611b6a565b601f198416611b18866118f4565b60005b82811015611b4057848901518255600182019150602085019450602081019050611b1b565b86831015611b5d5784890151611b59601f891682611a66565b8355505b6001600288020188555050505b505050505050565b7f4e487b7100000000000000000000000000000000000000000000000000000000600052601160045260246000fd5b6000611bac82611131565b91507fffffffffffffffffffffffffffffffffffffffffffffffffffffffffffffffff8203611bde57611bdd611b72565b5b600182019050919050565b7f4e487b7100000000000000000000000000000000000000000000000000000000600052603260045260246000fd5b7f53747564656e7420646f6573206e6f7420657869737400000000000000000000600082015250565b6000611c4e6016836111ae565b9150611c5982611c18565b602082019050919050565b60006020820190508181036000830152611c7d81611c41565b9050919050565b7f53747564656e74206e6f7420666f756e64000000000000000000000000000000600082015250565b6000611cba6011836111ae565b9150611cc582611c84565b602082019050919050565b60006020820190508181036000830152611ce981611cad565b9050919050565b60008154611cfd816117eb565b611d0781866111ae565b94506001821660008114611d225760018114611d3857611d6b565b60ff198316865281151560200286019350611d6b565b611d41856118f4565b60005b83811015611d6357815481890152600182019150602081019050611d44565b808801955050505b50505092915050565b6000608082019050611d896000830187611194565b8181036020830152611d9b8186611cf0565b9050611daa6040830185611194565b611db7606083018461129b565b9594505050505056fea264697066735822122065e2d38e38de3f641adfdf4deb34b9c84c68c6a26aaf5fcd39eee9d7b356df1564736f6c634300081c0033",
  "linkReferences": {},
  "deployedLinkReferences": {}
}