{
  "_format": "hh-sol-artifact-1",
  "contractName": "School",
  "sourceName": "contracts/School.sol",
  "abi": [
    {
      "inputs": [],
      "name": "INVALID_ID",
      "type": "error"
    },
    {
      "inputs": [],
      "name": "STUDENT_NOT_FOUND",
      "type": "error"
    },
    {
      "anonymous": false,
      "inputs": [
        {
          "indexed": true,
          "internalType": "address",
          "name": "user",
          "type": "address"
        },
        {
          "indexed": false,
          "internalType": "uint256",
          "name": "id",
          "type": "uint256"
        },
        {
          "indexed": false,
          "internalType": "string",
          "name": "name",
          "type": "string"
        },
        {
          "indexed": false,
          "internalType": "string",
          "name": "course",
          "type": "string"
        },
        {
          "indexed": false,
          "internalType": "uint256",
          "name": "age",
          "type": "uint256"
        },
        {
          "indexed": false,
          "internalType": "enum School.Status",
          "name": "status",
          "type": "uint8"
        }
      ],
      "name": "StudentAdded",
      "type": "event"
    },
    {
      "anonymous": false,
      "inputs": [
        {
          "indexed": true,
          "internalType": "address",
          "name": "user",
          "type": "address"
        },
        {
          "indexed": false,
          "internalType": "uint256",
          "name": "id",
          "type": "uint256"
        }
      ],
      "name": "StudentDeleted",
      "type": "event"
    },
    {
      "anonymous": false,
      "inputs": [
        {
          "indexed": true,
          "internalType": "address",
          "name": "user",
          "type": "address"
        },
        {
          "indexed": false,
          "internalType": "uint256",
          "name": "id",
          "type": "uint256"
        },
        {
          "indexed": false,
          "internalType": "string",
          "name": "name",
          "type": "string"
        },
        {
          "indexed": false,
          "internalType": "string",
          "name": "course",
          "type": "string"
        },
        {
          "indexed": false,
          "internalType": "uint256",
          "name": "age",
          "type": "uint256"
        },
        {
          "indexed": false,
          "internalType": "enum School.Status",
          "name": "status",
          "type": "uint8"
        }
      ],
      "name": "StudentUpdated",
      "type": "event"
    },
    {
      "inputs": [
        {
          "internalType": "uint256",
          "name": "_id",
          "type": "uint256"
        }
      ],
      "name": "deleteStudent",
      "outputs": [],
      "stateMutability": "nonpayable",
      "type": "function"
    },
    {
      "inputs": [
        {
          "internalType": "uint256",
          "name": "_id",
          "type": "uint256"
        }
      ],
      "name": "getStudentById",
      "outputs": [
        {
          "components": [
            {
              "internalType": "uint256",
              "name": "id",
              "type": "uint256"
            },
            {
              "internalType": "string",
              "name": "name",
              "type": "string"
            },
            {
              "internalType": "string",
              "name": "course",
              "type": "string"
            },
            {
              "internalType": "uint256",
              "name": "age",
              "type": "uint256"
            },
            {
              "internalType": "enum School.Status",
              "name": "status",
              "type": "uint8"
            },
            {
              "internalType": "bool",
              "name": "exists",
              "type": "bool"
            }
          ],
          "internalType": "struct School.StudentDetails",
          "name": "",
          "type": "tuple"
        }
      ],
      "stateMutability": "view",
      "type": "function"
    },
    {
      "inputs": [
        {
          "internalType": "string",
          "name": "_name",
          "type": "string"
        },
        {
          "internalType": "string",
          "name": "_course",
          "type": "string"
        },
        {
          "internalType": "uint256",
          "name": "_age",
          "type": "uint256"
        }
      ],
      "name": "registerStudent",
      "outputs": [],
      "stateMutability": "nonpayable",
      "type": "function"
    },
    {
      "inputs": [
        {
          "internalType": "address",
          "name": "",
          "type": "address"
        },
        {
          "internalType": "uint256",
          "name": "",
          "type": "uint256"
        }
      ],
      "name": "students",
      "outputs": [
        {
          "internalType": "uint256",
          "name": "id",
          "type": "uint256"
        },
        {
          "internalType": "string",
          "name": "name",
          "type": "string"
        },
        {
          "internalType": "string",
          "name": "course",
          "type": "string"
        },
        {
          "internalType": "uint256",
          "name": "age",
          "type": "uint256"
        },
        {
          "internalType": "enum School.Status",
          "name": "status",
          "type": "uint8"
        },
        {
          "internalType": "bool",
          "name": "exists",
          "type": "bool"
        }
      ],
      "stateMutability": "view",
      "type": "function"
    },
    {
      "inputs": [
        {
          "internalType": "uint256",
          "name": "_id",
          "type": "uint256"
        },
        {
          "internalType": "string",
          "name": "_name",
          "type": "string"
        },
        {
          "internalType": "string",
          "name": "_course",
          "type": "string"
        },
        {
          "internalType": "uint256",
          "name": "_age",
          "type": "uint256"
        }
      ],
      "name": "updateStudent",
      "outputs": [],
      "stateMutability": "nonpayable",
      "type": "function"
    },
    {
      "inputs": [
        {
          "internalType": "uint256",
          "name": "_id",
          "type": "uint256"
        },
        {
          "internalType": "enum School.Status",
          "name": "_status",
          "type": "uint8"
        }
      ],
      "name": "updateStudentStatus",
      "outputs": [],
      "stateMutability": "nonpayable",
      "type": "function"
    }
  ],
  "bytecode": "0x6080604052348015600f57600080fd5b50611c708061001f6000396000f3fe608060405234801561001057600080fd5b50600436106100625760003560e01c806358b88d4b146100675780637312f5531461009c578063b645307d146100b8578063c8fb0793146100d4578063d815692414610104578063e7e58d0714610120575b600080fd5b610081600480360381019061007c9190610fda565b61013c565b6040516100939695949392919061114b565b60405180910390f35b6100b660048036038101906100b191906112ef565b6102af565b005b6100d260048036038101906100cd919061138e565b6105eb565b005b6100ee60048036038101906100e9919061138e565b610746565b6040516100fb91906114c2565b60405180910390f35b61011e600480360381019061011991906114e4565b6109dc565b005b61013a60048036038101906101359190611594565b610c81565b005b60006020528160005260406000206020528060005260406000206000915091505080600001549080600101805461017290611603565b80601f016020809104026020016040519081016040528092919081815260200182805461019e90611603565b80156101eb5780601f106101c0576101008083540402835291602001916101eb565b820191906000526020600020905b8154815290600101906020018083116101ce57829003601f168201915b50505050509080600201805461020090611603565b80601f016020809104026020016040519081016040528092919081815260200182805461022c90611603565b80156102795780601f1061024e57610100808354040283529160200191610279565b820191906000526020600020905b81548152906001019060200180831161025c57829003601f168201915b5050505050908060030154908060040160009054906101000a900460ff16908060040160019054906101000a900460ff16905086565b6000803373ffffffffffffffffffffffffffffffffffffffff1673ffffffffffffffffffffffffffffffffffffffff168152602001908152602001600020600085815260200190815260200160002060040160019054906101000a900460ff1661034e576040517f08c379a000000000000000000000000000000000000000000000000000000000815260040161034590611680565b60405180910390fd5b6000835111610392576040517f08c379a0000000000000000000000000000000000000000000000000000000008152600401610389906116ec565b60405180910390fd5b60008251116103d6576040517f08c379a00000000000000000000000000000000000000000000000000000000081526004016103cd90611758565b60405180910390fd5b60008111610419576040517f08c379a0000000000000000000000000000000000000000000000000000000008152600401610410906117c4565b60405180910390fd5b826000803373ffffffffffffffffffffffffffffffffffffffff1673ffffffffffffffffffffffffffffffffffffffff168152602001908152602001600020600086815260200190815260200160002060010190816104789190611990565b50816000803373ffffffffffffffffffffffffffffffffffffffff1673ffffffffffffffffffffffffffffffffffffffff168152602001908152602001600020600086815260200190815260200160002060020190816104d89190611990565b50806000803373ffffffffffffffffffffffffffffffffffffffff1673ffffffffffffffffffffffffffffffffffffffff1681526020019081526020016000206000868152602001908152602001600020600301819055503373ffffffffffffffffffffffffffffffffffffffff167f90ad9f0bd1b06a8bb7c36c434817464dc8690ae35c09f00731246f2b73c3f609858585856000803373ffffffffffffffffffffffffffffffffffffffff1673ffffffffffffffffffffffffffffffffffffffff16815260200190815260200160002060008b815260200190815260200160002060040160009054906101000a900460ff166040516105dd959493929190611a62565b60405180910390a250505050565b6000803373ffffffffffffffffffffffffffffffffffffffff1673ffffffffffffffffffffffffffffffffffffffff168152602001908152602001600020600082815260200190815260200160002060040160019054906101000a900460ff1661068a576040517f08c379a000000000000000000000000000000000000000000000000000000000815260040161068190611680565b60405180910390fd5b60008060003373ffffffffffffffffffffffffffffffffffffffff1673ffffffffffffffffffffffffffffffffffffffff168152602001908152602001600020600083815260200190815260200160002060040160016101000a81548160ff0219169083151502179055503373ffffffffffffffffffffffffffffffffffffffff167f87a9409304a832d230fba7119d3ad70914f2be93e3854db0b20ca8a1400c6e258260405161073b9190611ac3565b60405180910390a250565b61074e610ee8565b6000803373ffffffffffffffffffffffffffffffffffffffff1673ffffffffffffffffffffffffffffffffffffffff168152602001908152602001600020600083815260200190815260200160002060040160019054906101000a900460ff166107ed576040517f08c379a00000000000000000000000000000000000000000000000000000000081526004016107e490611680565b60405180910390fd5b6000803373ffffffffffffffffffffffffffffffffffffffff1673ffffffffffffffffffffffffffffffffffffffff16815260200190815260200160002060008381526020019081526020016000206040518060c00160405290816000820154815260200160018201805461086190611603565b80601f016020809104026020016040519081016040528092919081815260200182805461088d90611603565b80156108da5780601f106108af576101008083540402835291602001916108da565b820191906000526020600020905b8154815290600101906020018083116108bd57829003601f168201915b505050505081526020016002820180546108f390611603565b80601f016020809104026020016040519081016040528092919081815260200182805461091f90611603565b801561096c5780601f106109415761010080835404028352916020019161096c565b820191906000526020600020905b81548152906001019060200180831161094f57829003601f168201915b50505050508152602001600382015481526020016004820160009054906101000a900460ff1660028111156109a4576109a36110b9565b5b60028111156109b6576109b56110b9565b5b81526020016004820160019054906101000a900460ff1615151515815250509050919050565b6000835111610a20576040517f08c379a0000000000000000000000000000000000000000000000000000000008152600401610a17906116ec565b60405180910390fd5b6000825111610a64576040517f08c379a0000000000000000000000000000000000000000000000000000000008152600401610a5b90611758565b60405180910390fd5b60008111610aa7576040517f08c379a0000000000000000000000000000000000000000000000000000000008152600401610a9e906117c4565b60405180910390fd5b6000600160003373ffffffffffffffffffffffffffffffffffffffff1673ffffffffffffffffffffffffffffffffffffffff1681526020019081526020016000206000815480929190610af990611b0d565b9190505590506040518060c0016040528082815260200185815260200184815260200183815260200160006002811115610b3657610b356110b9565b5b8152602001600115158152506000803373ffffffffffffffffffffffffffffffffffffffff1673ffffffffffffffffffffffffffffffffffffffff1681526020019081526020016000206000838152602001908152602001600020600082015181600001556020820151816001019081610bb09190611990565b506040820151816002019081610bc69190611990565b506060820151816003015560808201518160040160006101000a81548160ff02191690836002811115610bfc57610bfb6110b9565b5b021790555060a08201518160040160016101000a81548160ff0219169083151502179055509050503373ffffffffffffffffffffffffffffffffffffffff167ff6279933ab25deb6330dee64e3879fa969e6f83e7f0b502af9e167749c4851d5828686866000604051610c73959493929190611a62565b60405180910390a250505050565b6000803373ffffffffffffffffffffffffffffffffffffffff1673ffffffffffffffffffffffffffffffffffffffff168152602001908152602001600020600083815260200190815260200160002060040160019054906101000a900460ff16610d20576040517f08c379a0000000000000000000000000000000000000000000000000000000008152600401610d1790611680565b60405180910390fd5b806000803373ffffffffffffffffffffffffffffffffffffffff1673ffffffffffffffffffffffffffffffffffffffff168152602001908152602001600020600084815260200190815260200160002060040160006101000a81548160ff02191690836002811115610d9557610d946110b9565b5b02179055503373ffffffffffffffffffffffffffffffffffffffff167f90ad9f0bd1b06a8bb7c36c434817464dc8690ae35c09f00731246f2b73c3f609836000803373ffffffffffffffffffffffffffffffffffffffff1673ffffffffffffffffffffffffffffffffffffffff16815260200190815260200160002060008681526020019081526020016000206001016000803373ffffffffffffffffffffffffffffffffffffffff1673ffffffffffffffffffffffffffffffffffffffff16815260200190815260200160002060008781526020019081526020016000206002016000803373ffffffffffffffffffffffffffffffffffffffff1673ffffffffffffffffffffffffffffffffffffffff16815260200190815260200160002060008881526020019081526020016000206003015486604051610edc959493929190611bd9565b60405180910390a25050565b6040518060c001604052806000815260200160608152602001606081526020016000815260200160006002811115610f2357610f226110b9565b5b81526020016000151581525090565b6000604051905090565b600080fd5b600080fd5b600073ffffffffffffffffffffffffffffffffffffffff82169050919050565b6000610f7182610f46565b9050919050565b610f8181610f66565b8114610f8c57600080fd5b50565b600081359050610f9e81610f78565b92915050565b6000819050919050565b610fb781610fa4565b8114610fc257600080fd5b50565b600081359050610fd481610fae565b92915050565b60008060408385031215610ff157610ff0610f3c565b5b6000610fff85828601610f8f565b925050602061101085828601610fc5565b9150509250929050565b61102381610fa4565b82525050565b600081519050919050565b600082825260208201905092915050565b60005b83811015611063578082015181840152602081019050611048565b60008484015250505050565b6000601f19601f8301169050919050565b600061108b82611029565b6110958185611034565b93506110a5818560208601611045565b6110ae8161106f565b840191505092915050565b7f4e487b7100000000000000000000000000000000000000000000000000000000600052602160045260246000fd5b600381106110f9576110f86110b9565b5b50565b600081905061110a826110e8565b919050565b600061111a826110fc565b9050919050565b61112a8161110f565b82525050565b60008115159050919050565b61114581611130565b82525050565b600060c082019050611160600083018961101a565b81810360208301526111728188611080565b905081810360408301526111868187611080565b9050611195606083018661101a565b6111a26080830185611121565b6111af60a083018461113c565b979650505050505050565b600080fd5b600080fd5b7f4e487b7100000000000000000000000000000000000000000000000000000000600052604160045260246000fd5b6111fc8261106f565b810181811067ffffffffffffffff8211171561121b5761121a6111c4565b5b80604052505050565b600061122e610f32565b905061123a82826111f3565b919050565b600067ffffffffffffffff82111561125a576112596111c4565b5b6112638261106f565b9050602081019050919050565b82818337600083830152505050565b600061129261128d8461123f565b611224565b9050828152602081018484840111156112ae576112ad6111bf565b5b6112b9848285611270565b509392505050565b600082601f8301126112d6576112d56111ba565b5b81356112e684826020860161127f565b91505092915050565b6000806000806080858703121561130957611308610f3c565b5b600061131787828801610fc5565b945050602085013567ffffffffffffffff81111561133857611337610f41565b5b611344878288016112c1565b935050604085013567ffffffffffffffff81111561136557611364610f41565b5b611371878288016112c1565b925050606061138287828801610fc5565b91505092959194509250565b6000602082840312156113a4576113a3610f3c565b5b60006113b284828501610fc5565b91505092915050565b6113c481610fa4565b82525050565b600082825260208201905092915050565b60006113e682611029565b6113f081856113ca565b9350611400818560208601611045565b6114098161106f565b840191505092915050565b61141d8161110f565b82525050565b61142c81611130565b82525050565b600060c08301600083015161144a60008601826113bb565b506020830151848203602086015261146282826113db565b9150506040830151848203604086015261147c82826113db565b915050606083015161149160608601826113bb565b5060808301516114a46080860182611414565b5060a08301516114b760a0860182611423565b508091505092915050565b600060208201905081810360008301526114dc8184611432565b905092915050565b6000806000606084860312156114fd576114fc610f3c565b5b600084013567ffffffffffffffff81111561151b5761151a610f41565b5b611527868287016112c1565b935050602084013567ffffffffffffffff81111561154857611547610f41565b5b611554868287016112c1565b925050604061156586828701610fc5565b9150509250925092565b6003811061157c57600080fd5b50565b60008135905061158e8161156f565b92915050565b600080604083850312156115ab576115aa610f3c565b5b60006115b985828601610fc5565b92505060206115ca8582860161157f565b9150509250929050565b7f4e487b7100000000000000000000000000000000000000000000000000000000600052602260045260246000fd5b6000600282049050600182168061161b57607f821691505b60208210810361162e5761162d6115d4565b5b50919050565b7f53747564656e7420646f6573206e6f7420657869737400000000000000000000600082015250565b600061166a601683611034565b915061167582611634565b602082019050919050565b600060208201905081810360008301526116998161165d565b9050919050565b7f4e616d652063616e6e6f7420626520656d707479000000000000000000000000600082015250565b60006116d6601483611034565b91506116e1826116a0565b602082019050919050565b60006020820190508181036000830152611705816116c9565b9050919050565b7f436f757273652063616e6e6f7420626520656d70747900000000000000000000600082015250565b6000611742601683611034565b915061174d8261170c565b602082019050919050565b6000602082019050818103600083015261177181611735565b9050919050565b7f416765206d7573742062652067726561746572207468616e2030000000000000600082015250565b60006117ae601a83611034565b91506117b982611778565b602082019050919050565b600060208201905081810360008301526117dd816117a1565b9050919050565b60008190508160005260206000209050919050565b60006020601f8301049050919050565b600082821b905092915050565b6000600883026118467fffffffffffffffffffffffffffffffffffffffffffffffffffffffffffffffff82611809565b6118508683611809565b95508019841693508086168417925050509392505050565b6000819050919050565b600061188d61188861188384610fa4565b611868565b610fa4565b9050919050565b6000819050919050565b6118a783611872565b6118bb6118b382611894565b848454611816565b825550505050565b600090565b6118d06118c3565b6118db81848461189e565b505050565b5b818110156118ff576118f46000826118c8565b6001810190506118e1565b5050565b601f82111561194457611915816117e4565b61191e846117f9565b8101602085101561192d578190505b611941611939856117f9565b8301826118e0565b50505b505050565b600082821c905092915050565b600061196760001984600802611949565b1980831691505092915050565b60006119808383611956565b9150826002028217905092915050565b61199982611029565b67ffffffffffffffff8111156119b2576119b16111c4565b5b6119bc8254611603565b6119c7828285611903565b600060209050601f8311600181146119fa57600084156119e8578287015190505b6119f28582611974565b865550611a5a565b601f198416611a08866117e4565b60005b82811015611a3057848901518255600182019150602085019450602081019050611a0b565b86831015611a4d5784890151611a49601f891682611956565b8355505b6001600288020188555050505b505050505050565b600060a082019050611a77600083018861101a565b8181036020830152611a898187611080565b90508181036040830152611a9d8186611080565b9050611aac606083018561101a565b611ab96080830184611121565b9695505050505050565b6000602082019050611ad8600083018461101a565b92915050565b7f4e487b7100000000000000000000000000000000000000000000000000000000600052601160045260246000fd5b6000611b1882610fa4565b91507fffffffffffffffffffffffffffffffffffffffffffffffffffffffffffffffff8203611b4a57611b49611ade565b5b600182019050919050565b60008154611b6281611603565b611b6c8186611034565b94506001821660008114611b875760018114611b9d57611bd0565b60ff198316865281151560200286019350611bd0565b611ba6856117e4565b60005b83811015611bc857815481890152600182019150602081019050611ba9565b808801955050505b50505092915050565b600060a082019050611bee600083018861101a565b8181036020830152611c008187611b55565b90508181036040830152611c148186611b55565b9050611c23606083018561101a565b611c306080830184611121565b969550505050505056fea2646970667358221220529a70222c35931adf145705013c24d74f11027867a0305f5f87e6d2f2d8127b64736f6c634300081c0033",
  "linkReferences": {},
  "deployedLinkReferences": {}
}