{
  "_format": "hh-sol-artifact-1",
  "contractName": "TodoList",
  "sourceName": "contracts/TodoList.sol",
  "abi": [
    {
      "anonymous": false,
      "inputs": [
        {
          "indexed": true,
          "internalType": "address",
          "name": "user",
          "type": "address"
        },
        {
          "indexed": false,
          "internalType": "uint256",
          "name": "id",
          "type": "uint256"
        },
        {
          "indexed": false,
          "internalType": "string",
          "name": "title",
          "type": "string"
        },
        {
          "indexed": false,
          "internalType": "string",
          "name": "description",
          "type": "string"
        }
      ],
      "name": "TodoAdded",
      "type": "event"
    },
    {
      "anonymous": false,
      "inputs": [
        {
          "indexed": true,
          "internalType": "address",
          "name": "user",
          "type": "address"
        },
        {
          "indexed": false,
          "internalType": "uint256",
          "name": "id",
          "type": "uint256"
        }
      ],
      "name": "TodoDeleted",
      "type": "event"
    },
    {
      "anonymous": false,
      "inputs": [
        {
          "indexed": true,
          "internalType": "address",
          "name": "user",
          "type": "address"
        },
        {
          "indexed": false,
          "internalType": "uint256",
          "name": "id",
          "type": "uint256"
        },
        {
          "indexed": false,
          "internalType": "string",
          "name": "title",
          "type": "string"
        },
        {
          "indexed": false,
          "internalType": "string",
          "name": "description",
          "type": "string"
        },
        {
          "indexed": false,
          "internalType": "bool",
          "name": "status",
          "type": "bool"
        }
      ],
      "name": "TodoUpdated",
      "type": "event"
    },
    {
      "inputs": [
        {
          "internalType": "string",
          "name": "_title",
          "type": "string"
        },
        {
          "internalType": "string",
          "name": "_description",
          "type": "string"
        }
      ],
      "name": "createTodo",
      "outputs": [],
      "stateMutability": "nonpayable",
      "type": "function"
    },
    {
      "inputs": [
        {
          "internalType": "uint256",
          "name": "_id",
          "type": "uint256"
        }
      ],
      "name": "deleteTodo",
      "outputs": [],
      "stateMutability": "nonpayable",
      "type": "function"
    },
    {
      "inputs": [
        {
          "internalType": "uint256",
          "name": "_id",
          "type": "uint256"
        }
      ],
      "name": "getTodo",
      "outputs": [
        {
          "internalType": "uint256",
          "name": "",
          "type": "uint256"
        },
        {
          "internalType": "string",
          "name": "",
          "type": "string"
        },
        {
          "internalType": "string",
          "name": "",
          "type": "string"
        },
        {
          "internalType": "bool",
          "name": "",
          "type": "bool"
        }
      ],
      "stateMutability": "view",
      "type": "function"
    },
    {
      "inputs": [],
      "name": "getTodos",
      "outputs": [
        {
          "components": [
            {
              "internalType": "uint256",
              "name": "id",
              "type": "uint256"
            },
            {
              "internalType": "string",
              "name": "title",
              "type": "string"
            },
            {
              "internalType": "string",
              "name": "description",
              "type": "string"
            },
            {
              "internalType": "bool",
              "name": "status",
              "type": "bool"
            },
            {
              "internalType": "bool",
              "name": "exists",
              "type": "bool"
            }
          ],
          "internalType": "struct TodoList.Todo[]",
          "name": "",
          "type": "tuple[]"
        }
      ],
      "stateMutability": "view",
      "type": "function"
    },
    {
      "inputs": [
        {
          "internalType": "address",
          "name": "",
          "type": "address"
        },
        {
          "internalType": "uint256",
          "name": "",
          "type": "uint256"
        }
      ],
      "name": "todos",
      "outputs": [
        {
          "internalType": "uint256",
          "name": "id",
          "type": "uint256"
        },
        {
          "internalType": "string",
          "name": "title",
          "type": "string"
        },
        {
          "internalType": "string",
          "name": "description",
          "type": "string"
        },
        {
          "internalType": "bool",
          "name": "status",
          "type": "bool"
        },
        {
          "internalType": "bool",
          "name": "exists",
          "type": "bool"
        }
      ],
      "stateMutability": "view",
      "type": "function"
    },
    {
      "inputs": [
        {
          "internalType": "uint256",
          "name": "_id",
          "type": "uint256"
        }
      ],
      "name": "toggleTodoStatus",
      "outputs": [],
      "stateMutability": "nonpayable",
      "type": "function"
    },
    {
      "inputs": [
        {
          "internalType": "uint256",
          "name": "_id",
          "type": "uint256"
        },
        {
          "internalType": "string",
          "name": "_title",
          "type": "string"
        },
        {
          "internalType": "string",
          "name": "_description",
          "type": "string"
        }
      ],
      "name": "updateTodo",
      "outputs": [],
      "stateMutability": "nonpayable",
      "type": "function"
    }
  ],
  "bytecode": "0x6080604052348015600f57600080fd5b5061215e8061001f6000396000f3fe608060405234801561001057600080fd5b506004361061007d5760003560e01c80636e3c67381161005b5780636e3c6738146100ee57806381e941991461010a578063c33926cb14610126578063dd68afb6146101445761007d565b8063188e8de5146100825780633380b99f1461009e578063428c1889146100ba575b600080fd5b61009c6004803603810190610097919061155b565b610177565b005b6100b860048036038101906100b391906116ce565b610515565b005b6100d460048036038101906100cf91906117a4565b610714565b6040516100e595949392919061188d565b60405180910390f35b6101086004803603810190610103919061155b565b610891565b005b610124600480360381019061011f91906118ee565b610a8d565b005b61012e610da7565b60405161013b9190611b20565b60405180910390f35b61015e6004803603810190610159919061155b565b6111b1565b60405161016e9493929190611b42565b60405180910390f35b6000803373ffffffffffffffffffffffffffffffffffffffff1673ffffffffffffffffffffffffffffffffffffffff1681526020019081526020016000208054905081106101fa576040517f08c379a00000000000000000000000000000000000000000000000000000000081526004016101f190611be1565b60405180910390fd5b6000803373ffffffffffffffffffffffffffffffffffffffff1673ffffffffffffffffffffffffffffffffffffffff168152602001908152602001600020818154811061024a57610249611c01565b5b906000526020600020906004020160030160019054906101000a900460ff166102a8576040517f08c379a000000000000000000000000000000000000000000000000000000000815260040161029f90611be1565b60405180910390fd5b6000803373ffffffffffffffffffffffffffffffffffffffff1673ffffffffffffffffffffffffffffffffffffffff16815260200190815260200160002081815481106102f8576102f7611c01565b5b906000526020600020906004020160030160009054906101000a900460ff16156000803373ffffffffffffffffffffffffffffffffffffffff1673ffffffffffffffffffffffffffffffffffffffff168152602001908152602001600020828154811061036857610367611c01565b5b906000526020600020906004020160030160006101000a81548160ff0219169083151502179055503373ffffffffffffffffffffffffffffffffffffffff167fb66b6ba7a2585e6258bb6e1c14d9fafbd7c2f5f406d7b03bb05393e2da69b3e8826000803373ffffffffffffffffffffffffffffffffffffffff1673ffffffffffffffffffffffffffffffffffffffff168152602001908152602001600020848154811061041957610418611c01565b5b90600052602060002090600402016001016000803373ffffffffffffffffffffffffffffffffffffffff1673ffffffffffffffffffffffffffffffffffffffff168152602001908152602001600020858154811061047a57610479611c01565b5b90600052602060002090600402016002016000803373ffffffffffffffffffffffffffffffffffffffff1673ffffffffffffffffffffffffffffffffffffffff16815260200190815260200160002086815481106104db576104da611c01565b5b906000526020600020906004020160030160009054906101000a900460ff1660405161050a9493929190611d29565b60405180910390a250565b6000825111610559576040517f08c379a000000000000000000000000000000000000000000000000000000000815260040161055090611dc8565b60405180910390fd5b6000600160003373ffffffffffffffffffffffffffffffffffffffff1673ffffffffffffffffffffffffffffffffffffffff16815260200190815260200160002060008154809291906105ab90611e17565b9190505590506000803373ffffffffffffffffffffffffffffffffffffffff1673ffffffffffffffffffffffffffffffffffffffff1681526020019081526020016000206040518060a001604052808381526020018581526020018481526020016000151581526020016001151581525090806001815401808255809150506001900390600052602060002090600402016000909190919091506000820151816000015560208201518160010190816106649190611ff6565b50604082015181600201908161067a9190611ff6565b5060608201518160030160006101000a81548160ff02191690831515021790555060808201518160030160016101000a81548160ff02191690831515021790555050503373ffffffffffffffffffffffffffffffffffffffff167fce88ca4ccf4201f82c1a520117eba637d21332f03a462fd2443c551bce837f7d828585604051610707939291906120c8565b60405180910390a2505050565b6000602052816000526040600020818154811061073057600080fd5b90600052602060002090600402016000915091505080600001549080600101805461075a90611c5f565b80601f016020809104026020016040519081016040528092919081815260200182805461078690611c5f565b80156107d35780601f106107a8576101008083540402835291602001916107d3565b820191906000526020600020905b8154815290600101906020018083116107b657829003601f168201915b5050505050908060020180546107e890611c5f565b80601f016020809104026020016040519081016040528092919081815260200182805461081490611c5f565b80156108615780601f1061083657610100808354040283529160200191610861565b820191906000526020600020905b81548152906001019060200180831161084457829003601f168201915b5050505050908060030160009054906101000a900460ff16908060030160019054906101000a900460ff16905085565b6000803373ffffffffffffffffffffffffffffffffffffffff1673ffffffffffffffffffffffffffffffffffffffff168152602001908152602001600020805490508110610914576040517f08c379a000000000000000000000000000000000000000000000000000000000815260040161090b90611be1565b60405180910390fd5b6000803373ffffffffffffffffffffffffffffffffffffffff1673ffffffffffffffffffffffffffffffffffffffff168152602001908152602001600020818154811061096457610963611c01565b5b906000526020600020906004020160030160019054906101000a900460ff166109c2576040517f08c379a00000000000000000000000000000000000000000000000000000000081526004016109b990611be1565b60405180910390fd5b60008060003373ffffffffffffffffffffffffffffffffffffffff1673ffffffffffffffffffffffffffffffffffffffff1681526020019081526020016000208281548110610a1457610a13611c01565b5b906000526020600020906004020160030160016101000a81548160ff0219169083151502179055503373ffffffffffffffffffffffffffffffffffffffff167f24d84cd6bd5cc33dafa556a214e7d9e1b4fccca98b3e7d1413909e4710f02ff382604051610a82919061210d565b60405180910390a250565b6000803373ffffffffffffffffffffffffffffffffffffffff1673ffffffffffffffffffffffffffffffffffffffff168152602001908152602001600020805490508310610b10576040517f08c379a0000000000000000000000000000000000000000000000000000000008152600401610b0790611be1565b60405180910390fd5b6000803373ffffffffffffffffffffffffffffffffffffffff1673ffffffffffffffffffffffffffffffffffffffff1681526020019081526020016000208381548110610b6057610b5f611c01565b5b906000526020600020906004020160030160019054906101000a900460ff16610bbe576040517f08c379a0000000000000000000000000000000000000000000000000000000008152600401610bb590611be1565b60405180910390fd5b6000825111610c02576040517f08c379a0000000000000000000000000000000000000000000000000000000008152600401610bf990611dc8565b60405180910390fd5b816000803373ffffffffffffffffffffffffffffffffffffffff1673ffffffffffffffffffffffffffffffffffffffff1681526020019081526020016000208481548110610c5357610c52611c01565b5b90600052602060002090600402016001019081610c709190611ff6565b50806000803373ffffffffffffffffffffffffffffffffffffffff1673ffffffffffffffffffffffffffffffffffffffff1681526020019081526020016000208481548110610cc257610cc1611c01565b5b90600052602060002090600402016002019081610cdf9190611ff6565b503373ffffffffffffffffffffffffffffffffffffffff167fb66b6ba7a2585e6258bb6e1c14d9fafbd7c2f5f406d7b03bb05393e2da69b3e88484846000803373ffffffffffffffffffffffffffffffffffffffff1673ffffffffffffffffffffffffffffffffffffffff1681526020019081526020016000208881548110610d6b57610d6a611c01565b5b906000526020600020906004020160030160009054906101000a900460ff16604051610d9a9493929190611b42565b60405180910390a2505050565b60606000805b6000803373ffffffffffffffffffffffffffffffffffffffff1673ffffffffffffffffffffffffffffffffffffffff16815260200190815260200160002080549050811015610e86576000803373ffffffffffffffffffffffffffffffffffffffff1673ffffffffffffffffffffffffffffffffffffffff1681526020019081526020016000208181548110610e4657610e45611c01565b5b906000526020600020906004020160030160019054906101000a900460ff1615610e79578180610e7590611e17565b9250505b8080600101915050610dad565b5060008167ffffffffffffffff811115610ea357610ea26115a3565b5b604051908082528060200260200182016040528015610edc57816020015b610ec96114de565b815260200190600190039081610ec15790505b5090506000805b6000803373ffffffffffffffffffffffffffffffffffffffff1673ffffffffffffffffffffffffffffffffffffffff168152602001908152602001600020805490508110156111a7576000803373ffffffffffffffffffffffffffffffffffffffff1673ffffffffffffffffffffffffffffffffffffffff1681526020019081526020016000208181548110610f7c57610f7b611c01565b5b906000526020600020906004020160030160019054906101000a900460ff161561119a576000803373ffffffffffffffffffffffffffffffffffffffff1673ffffffffffffffffffffffffffffffffffffffff1681526020019081526020016000208181548110610ff057610fef611c01565b5b90600052602060002090600402016040518060a00160405290816000820154815260200160018201805461102390611c5f565b80601f016020809104026020016040519081016040528092919081815260200182805461104f90611c5f565b801561109c5780601f106110715761010080835404028352916020019161109c565b820191906000526020600020905b81548152906001019060200180831161107f57829003601f168201915b505050505081526020016002820180546110b590611c5f565b80601f01602080910402602001604051908101604052809291908181526020018280546110e190611c5f565b801561112e5780601f106111035761010080835404028352916020019161112e565b820191906000526020600020905b81548152906001019060200180831161111157829003601f168201915b505050505081526020016003820160009054906101000a900460ff161515151581526020016003820160019054906101000a900460ff1615151515815250508383815181106111805761117f611c01565b5b6020026020010181905250818061119690611e17565b9250505b8080600101915050610ee3565b5081935050505090565b600060608060008060003373ffffffffffffffffffffffffffffffffffffffff1673ffffffffffffffffffffffffffffffffffffffff16815260200190815260200160002080549050851061123b576040517f08c379a000000000000000000000000000000000000000000000000000000000815260040161123290611be1565b60405180910390fd5b6000803373ffffffffffffffffffffffffffffffffffffffff1673ffffffffffffffffffffffffffffffffffffffff168152602001908152602001600020858154811061128b5761128a611c01565b5b906000526020600020906004020160030160019054906101000a900460ff166112e9576040517f08c379a00000000000000000000000000000000000000000000000000000000081526004016112e090611be1565b60405180910390fd5b60008060003373ffffffffffffffffffffffffffffffffffffffff1673ffffffffffffffffffffffffffffffffffffffff168152602001908152602001600020868154811061133b5761133a611c01565b5b90600052602060002090600402016040518060a00160405290816000820154815260200160018201805461136e90611c5f565b80601f016020809104026020016040519081016040528092919081815260200182805461139a90611c5f565b80156113e75780601f106113bc576101008083540402835291602001916113e7565b820191906000526020600020905b8154815290600101906020018083116113ca57829003601f168201915b5050505050815260200160028201805461140090611c5f565b80601f016020809104026020016040519081016040528092919081815260200182805461142c90611c5f565b80156114795780601f1061144e57610100808354040283529160200191611479565b820191906000526020600020905b81548152906001019060200180831161145c57829003601f168201915b505050505081526020016003820160009054906101000a900460ff161515151581526020016003820160019054906101000a900460ff161515151581525050905080600001518160200151826040015183606001519450945094509450509193509193565b6040518060a001604052806000815260200160608152602001606081526020016000151581526020016000151581525090565b6000604051905090565b600080fd5b600080fd5b6000819050919050565b61153881611525565b811461154357600080fd5b50565b6000813590506115558161152f565b92915050565b6000602082840312156115715761157061151b565b5b600061157f84828501611546565b91505092915050565b600080fd5b600080fd5b6000601f19601f8301169050919050565b7f4e487b7100000000000000000000000000000000000000000000000000000000600052604160045260246000fd5b6115db82611592565b810181811067ffffffffffffffff821117156115fa576115f96115a3565b5b80604052505050565b600061160d611511565b905061161982826115d2565b919050565b600067ffffffffffffffff821115611639576116386115a3565b5b61164282611592565b9050602081019050919050565b82818337600083830152505050565b600061167161166c8461161e565b611603565b90508281526020810184848401111561168d5761168c61158d565b5b61169884828561164f565b509392505050565b600082601f8301126116b5576116b4611588565b5b81356116c584826020860161165e565b91505092915050565b600080604083850312156116e5576116e461151b565b5b600083013567ffffffffffffffff81111561170357611702611520565b5b61170f858286016116a0565b925050602083013567ffffffffffffffff8111156117305761172f611520565b5b61173c858286016116a0565b9150509250929050565b600073ffffffffffffffffffffffffffffffffffffffff82169050919050565b600061177182611746565b9050919050565b61178181611766565b811461178c57600080fd5b50565b60008135905061179e81611778565b92915050565b600080604083850312156117bb576117ba61151b565b5b60006117c98582860161178f565b92505060206117da85828601611546565b9150509250929050565b6117ed81611525565b82525050565b600081519050919050565b600082825260208201905092915050565b60005b8381101561182d578082015181840152602081019050611812565b60008484015250505050565b6000611844826117f3565b61184e81856117fe565b935061185e81856020860161180f565b61186781611592565b840191505092915050565b60008115159050919050565b61188781611872565b82525050565b600060a0820190506118a260008301886117e4565b81810360208301526118b48187611839565b905081810360408301526118c88186611839565b90506118d7606083018561187e565b6118e4608083018461187e565b9695505050505050565b6000806000606084860312156119075761190661151b565b5b600061191586828701611546565b935050602084013567ffffffffffffffff81111561193657611935611520565b5b611942868287016116a0565b925050604084013567ffffffffffffffff81111561196357611962611520565b5b61196f868287016116a0565b9150509250925092565b600081519050919050565b600082825260208201905092915050565b6000819050602082019050919050565b6119ae81611525565b82525050565b600082825260208201905092915050565b60006119d0826117f3565b6119da81856119b4565b93506119ea81856020860161180f565b6119f381611592565b840191505092915050565b611a0781611872565b82525050565b600060a083016000830151611a2560008601826119a5565b5060208301518482036020860152611a3d82826119c5565b91505060408301518482036040860152611a5782826119c5565b9150506060830151611a6c60608601826119fe565b506080830151611a7f60808601826119fe565b508091505092915050565b6000611a968383611a0d565b905092915050565b6000602082019050919050565b6000611ab682611979565b611ac08185611984565b935083602082028501611ad285611995565b8060005b85811015611b0e5784840389528151611aef8582611a8a565b9450611afa83611a9e565b925060208a01995050600181019050611ad6565b50829750879550505050505092915050565b60006020820190508181036000830152611b3a8184611aab565b905092915050565b6000608082019050611b5760008301876117e4565b8181036020830152611b698186611839565b90508181036040830152611b7d8185611839565b9050611b8c606083018461187e565b95945050505050565b7f546f2d646f20646f6573206e6f74206578697374000000000000000000000000600082015250565b6000611bcb6014836117fe565b9150611bd682611b95565b602082019050919050565b60006020820190508181036000830152611bfa81611bbe565b9050919050565b7f4e487b7100000000000000000000000000000000000000000000000000000000600052603260045260246000fd5b7f4e487b7100000000000000000000000000000000000000000000000000000000600052602260045260246000fd5b60006002820490506001821680611c7757607f821691505b602082108103611c8a57611c89611c30565b5b50919050565b60008190508160005260206000209050919050565b60008154611cb281611c5f565b611cbc81866117fe565b94506001821660008114611cd75760018114611ced57611d20565b60ff198316865281151560200286019350611d20565b611cf685611c90565b60005b83811015611d1857815481890152600182019150602081019050611cf9565b808801955050505b50505092915050565b6000608082019050611d3e60008301876117e4565b8181036020830152611d508186611ca5565b90508181036040830152611d648185611ca5565b9050611d73606083018461187e565b95945050505050565b7f5469746c652063616e6e6f7420626520656d7074790000000000000000000000600082015250565b6000611db26015836117fe565b9150611dbd82611d7c565b602082019050919050565b60006020820190508181036000830152611de181611da5565b9050919050565b7f4e487b7100000000000000000000000000000000000000000000000000000000600052601160045260246000fd5b6000611e2282611525565b91507fffffffffffffffffffffffffffffffffffffffffffffffffffffffffffffffff8203611e5457611e53611de8565b5b600182019050919050565b60006020601f8301049050919050565b600082821b905092915050565b600060088302611eac7fffffffffffffffffffffffffffffffffffffffffffffffffffffffffffffffff82611e6f565b611eb68683611e6f565b95508019841693508086168417925050509392505050565b6000819050919050565b6000611ef3611eee611ee984611525565b611ece565b611525565b9050919050565b6000819050919050565b611f0d83611ed8565b611f21611f1982611efa565b848454611e7c565b825550505050565b600090565b611f36611f29565b611f41818484611f04565b505050565b5b81811015611f6557611f5a600082611f2e565b600181019050611f47565b5050565b601f821115611faa57611f7b81611c90565b611f8484611e5f565b81016020851015611f93578190505b611fa7611f9f85611e5f565b830182611f46565b50505b505050565b600082821c905092915050565b6000611fcd60001984600802611faf565b1980831691505092915050565b6000611fe68383611fbc565b9150826002028217905092915050565b611fff826117f3565b67ffffffffffffffff811115612018576120176115a3565b5b6120228254611c5f565b61202d828285611f69565b600060209050601f831160018114612060576000841561204e578287015190505b6120588582611fda565b8655506120c0565b601f19841661206e86611c90565b60005b8281101561209657848901518255600182019150602085019450602081019050612071565b868310156120b357848901516120af601f891682611fbc565b8355505b6001600288020188555050505b505050505050565b60006060820190506120dd60008301866117e4565b81810360208301526120ef8185611839565b905081810360408301526121038184611839565b9050949350505050565b600060208201905061212260008301846117e4565b9291505056fea2646970667358221220c9fdc3e6fd8dfedefc36ee572c5e694974eba620b38ee7b63f13a3d3e9694ae364736f6c634300081c0033",
  "linkReferences": {},
  "deployedLinkReferences": {}
}