{
  "contracts/PiggyBank.sol": {
    "PiggyBank": {
      "abi": [
        {
          "inputs": [
            {
              "internalType": "address",
              "name": "_owner",
              "type": "address"
            },
            {
              "internalType": "address",
              "name": "_factoryAdmin",
              "type": "address"
            },
            {
              "internalType": "bool",
              "name": "_isETH",
              "type": "bool"
            },
            {
              "internalType": "address",
              "name": "_token",
              "type": "address"
            },
            {
              "internalType": "uint256",
              "name": "_lockPeriod",
              "type": "uint256"
            }
          ],
          "stateMutability": "nonpayable",
          "type": "constructor"
        },
        {
          "inputs": [],
          "name": "InvalidDeposit",
          "type": "error"
        },
        {
          "inputs": [],
          "name": "InvalidLockPeriod",
          "type": "error"
        },
        {
          "inputs": [
            {
              "internalType": "address",
              "name": "owner",
              "type": "address"
            }
          ],
          "name": "OwnableInvalidOwner",
          "type": "error"
        },
        {
          "inputs": [
            {
              "internalType": "address",
              "name": "account",
              "type": "address"
            }
          ],
          "name": "OwnableUnauthorizedAccount",
          "type": "error"
        },
        {
          "inputs": [
            {
              "internalType": "address",
              "name": "token",
              "type": "address"
            }
          ],
          "name": "SafeERC20FailedOperation",
          "type": "error"
        },
        {
          "inputs": [],
          "name": "WithdrawalFailed",
          "type": "error"
        },
        {
          "anonymous": false,
          "inputs": [
            {
              "indexed": true,
              "internalType": "address",
              "name": "user",
              "type": "address"
            },
            {
              "indexed": false,
              "internalType": "uint256",
              "name": "fee",
              "type": "uint256"
            }
          ],
          "name": "BrokenEarly",
          "type": "event"
        },
        {
          "anonymous": false,
          "inputs": [
            {
              "indexed": true,
              "internalType": "address",
              "name": "user",
              "type": "address"
            },
            {
              "indexed": false,
              "internalType": "uint256",
              "name": "amount",
              "type": "uint256"
            }
          ],
          "name": "Deposited",
          "type": "event"
        },
        {
          "anonymous": false,
          "inputs": [
            {
              "indexed": true,
              "internalType": "address",
              "name": "previousOwner",
              "type": "address"
            },
            {
              "indexed": true,
              "internalType": "address",
              "name": "newOwner",
              "type": "address"
            }
          ],
          "name": "OwnershipTransferred",
          "type": "event"
        },
        {
          "anonymous": false,
          "inputs": [
            {
              "indexed": true,
              "internalType": "address",
              "name": "user",
              "type": "address"
            },
            {
              "indexed": false,
              "internalType": "uint256",
              "name": "amount",
              "type": "uint256"
            },
            {
              "indexed": false,
              "internalType": "uint256",
              "name": "fee",
              "type": "uint256"
            }
          ],
          "name": "Withdrawn",
          "type": "event"
        },
        {
          "inputs": [],
          "name": "balance",
          "outputs": [
            {
              "internalType": "uint256",
              "name": "",
              "type": "uint256"
            }
          ],
          "stateMutability": "view",
          "type": "function"
        },
        {
          "inputs": [
            {
              "internalType": "uint256",
              "name": "amount",
              "type": "uint256"
            }
          ],
          "name": "deposit",
          "outputs": [],
          "stateMutability": "payable",
          "type": "function"
        },
        {
          "inputs": [],
          "name": "factoryAdmin",
          "outputs": [
            {
              "internalType": "address",
              "name": "",
              "type": "address"
            }
          ],
          "stateMutability": "view",
          "type": "function"
        },
        {
          "inputs": [],
          "name": "getBalance",
          "outputs": [
            {
              "internalType": "uint256",
              "name": "",
              "type": "uint256"
            }
          ],
          "stateMutability": "view",
          "type": "function"
        },
        {
          "inputs": [],
          "name": "isETH",
          "outputs": [
            {
              "internalType": "bool",
              "name": "",
              "type": "bool"
            }
          ],
          "stateMutability": "view",
          "type": "function"
        },
        {
          "inputs": [],
          "name": "lastDepositTime",
          "outputs": [
            {
              "internalType": "uint256",
              "name": "",
              "type": "uint256"
            }
          ],
          "stateMutability": "view",
          "type": "function"
        },
        {
          "inputs": [],
          "name": "lockPeriod",
          "outputs": [
            {
              "internalType": "uint256",
              "name": "",
              "type": "uint256"
            }
          ],
          "stateMutability": "view",
          "type": "function"
        },
        {
          "inputs": [],
          "name": "owner",
          "outputs": [
            {
              "internalType": "address",
              "name": "",
              "type": "address"
            }
          ],
          "stateMutability": "view",
          "type": "function"
        },
        {
          "inputs": [],
          "name": "renounceOwnership",
          "outputs": [],
          "stateMutability": "nonpayable",
          "type": "function"
        },
        {
          "inputs": [],
          "name": "token",
          "outputs": [
            {
              "internalType": "contract IERC20",
              "name": "",
              "type": "address"
            }
          ],
          "stateMutability": "view",
          "type": "function"
        },
        {
          "inputs": [
            {
              "internalType": "address",
              "name": "newOwner",
              "type": "address"
            }
          ],
          "name": "transferOwnership",
          "outputs": [],
          "stateMutability": "nonpayable",
          "type": "function"
        },
        {
          "inputs": [],
          "name": "withdraw",
          "outputs": [],
          "stateMutability": "nonpayable",
          "type": "function"
        }
      ],
      "evm": {
        "bytecode": {
          "linkReferences": {},
          "object": "60e060405234801561001057600080fd5b506040516113d23803806113d28339818101604052810190610032919061031d565b84600073ffffffffffffffffffffffffffffffffffffffff168173ffffffffffffffffffffffffffffffffffffffff16036100a55760006040517f1e4fbdf700000000000000000000000000000000000000000000000000000000815260040161009c91906103a7565b60405180910390fd5b6100b48161018860201b60201c565b50600081036100ef576040517f2a82a34f00000000000000000000000000000000000000000000000000000000815260040160405180910390fd5b8373ffffffffffffffffffffffffffffffffffffffff1660808173ffffffffffffffffffffffffffffffffffffffff168152505082151560a081151581525050826101765781600160006101000a81548173ffffffffffffffffffffffffffffffffffffffff021916908373ffffffffffffffffffffffffffffffffffffffff1602179055505b8060c0818152505050505050506103c2565b60008060009054906101000a900473ffffffffffffffffffffffffffffffffffffffff169050816000806101000a81548173ffffffffffffffffffffffffffffffffffffffff021916908373ffffffffffffffffffffffffffffffffffffffff1602179055508173ffffffffffffffffffffffffffffffffffffffff168173ffffffffffffffffffffffffffffffffffffffff167f8be0079c531659141344cd1fd0a4f28419497f9722a3daafe3b4186f6b6457e060405160405180910390a35050565b600080fd5b600073ffffffffffffffffffffffffffffffffffffffff82169050919050565b600061027c82610251565b9050919050565b61028c81610271565b811461029757600080fd5b50565b6000815190506102a981610283565b92915050565b60008115159050919050565b6102c4816102af565b81146102cf57600080fd5b50565b6000815190506102e1816102bb565b92915050565b6000819050919050565b6102fa816102e7565b811461030557600080fd5b50565b600081519050610317816102f1565b92915050565b600080600080600060a086880312156103395761033861024c565b5b60006103478882890161029a565b95505060206103588882890161029a565b9450506040610369888289016102d2565b935050606061037a8882890161029a565b925050608061038b88828901610308565b9150509295509295909350565b6103a181610271565b82525050565b60006020820190506103bc6000830184610398565b92915050565b60805160a05160c051610fa9610429600039600081816102fd01526105c9015260008181610365015281816104b40152818161062a0152818161065c015281816106fe015261074d0152600081816102830152818161038b01526103fa0152610fa96000f3fe6080604052600436106100a75760003560e01c8063a41d3c2e11610064578063a41d3c2e14610186578063b69ef8a8146101b1578063b6b55f25146101dc578063bd28f351146101f8578063f2fde38b14610223578063fc0c546a1461024c576100a7565b806312065fe0146100ac57806317d8ec7f146100d75780633ccfd60b146101025780633fd8b02f14610119578063715018a6146101445780638da5cb5b1461015b575b600080fd5b3480156100b857600080fd5b506100c1610277565b6040516100ce9190610bd3565b60405180910390f35b3480156100e357600080fd5b506100ec610281565b6040516100f99190610c2f565b60405180910390f35b34801561010e57600080fd5b506101176102a5565b005b34801561012557600080fd5b5061012e6105c7565b60405161013b9190610bd3565b60405180910390f35b34801561015057600080fd5b506101596105eb565b005b34801561016757600080fd5b506101706105ff565b60405161017d9190610c2f565b60405180910390f35b34801561019257600080fd5b5061019b610628565b6040516101a89190610c65565b60405180910390f35b3480156101bd57600080fd5b506101c661064c565b6040516101d39190610bd3565b60405180910390f35b6101f660048036038101906101f19190610cb1565b610652565b005b34801561020457600080fd5b5061020d610812565b60405161021a9190610bd3565b60405180910390f35b34801561022f57600080fd5b5061024a60048036038101906102459190610d0a565b610818565b005b34801561025857600080fd5b5061026161089e565b60405161026e9190610d96565b60405180910390f35b6000600354905090565b7f000000000000000000000000000000000000000000000000000000000000000081565b6102ad6108c4565b6000600354036102e9576040517f27fcd9d100000000000000000000000000000000000000000000000000000000815260040160405180910390fd5b6000600354905060008060038190555060007f00000000000000000000000000000000000000000000000000000000000000006002546103299190610de0565b42109050801561035d5760646003846103429190610e14565b61034c9190610e85565b9150818361035a9190610eb6565b92505b80156104b2577f0000000000000000000000000000000000000000000000000000000000000000156103f5577f000000000000000000000000000000000000000000000000000000000000000073ffffffffffffffffffffffffffffffffffffffff166108fc839081150290604051600060405180830381858888f193505050501580156103ef573d6000803e3d6000fd5b50610463565b6104627f000000000000000000000000000000000000000000000000000000000000000083600160009054906101000a900473ffffffffffffffffffffffffffffffffffffffff1673ffffffffffffffffffffffffffffffffffffffff1661094b9092919063ffffffff16565b5b3373ffffffffffffffffffffffffffffffffffffffff167fc81dbe087466fa581b2057cf30edd784e6bc1ef91d02c58c9386389da2f9e224836040516104a99190610bd3565b60405180910390a25b7f000000000000000000000000000000000000000000000000000000000000000015610524573373ffffffffffffffffffffffffffffffffffffffff166108fc849081150290604051600060405180830381858888f1935050505015801561051e573d6000803e3d6000fd5b50610572565b6105713384600160009054906101000a900473ffffffffffffffffffffffffffffffffffffffff1673ffffffffffffffffffffffffffffffffffffffff1661094b9092919063ffffffff16565b5b3373ffffffffffffffffffffffffffffffffffffffff167f92ccf450a286a957af52509bc1c9939d1a6a481783e142e41e2499f0bb66ebc684846040516105ba929190610eea565b60405180910390a2505050565b7f000000000000000000000000000000000000000000000000000000000000000081565b6105f36108c4565b6105fd60006109ca565b565b60008060009054906101000a900473ffffffffffffffffffffffffffffffffffffffff16905090565b7f000000000000000000000000000000000000000000000000000000000000000081565b60035481565b61065a6108c4565b7f0000000000000000000000000000000000000000000000000000000000000000156106bf57600034036106ba576040517fb2e532de00000000000000000000000000000000000000000000000000000000815260040160405180910390fd5b6106fa565b600081036106f9576040517fb2e532de00000000000000000000000000000000000000000000000000000000815260040160405180910390fd5b5b60007f00000000000000000000000000000000000000000000000000000000000000006107275781610729565b345b9050806003600082825461073d9190610de0565b92505081905550426002819055507f00000000000000000000000000000000000000000000000000000000000000006107c0576107bf333084600160009054906101000a900473ffffffffffffffffffffffffffffffffffffffff1673ffffffffffffffffffffffffffffffffffffffff16610a8e909392919063ffffffff16565b5b3373ffffffffffffffffffffffffffffffffffffffff167f2da466a7b24304f47e87fa2e1e5a81b9831ce54fec19055ce277ca2f39ba42c4826040516108069190610bd3565b60405180910390a25050565b60025481565b6108206108c4565b600073ffffffffffffffffffffffffffffffffffffffff168173ffffffffffffffffffffffffffffffffffffffff16036108925760006040517f1e4fbdf70000000000000000000000000000000000000000000000000000000081526004016108899190610c2f565b60405180910390fd5b61089b816109ca565b50565b600160009054906101000a900473ffffffffffffffffffffffffffffffffffffffff1681565b6108cc610b10565b73ffffffffffffffffffffffffffffffffffffffff166108ea6105ff565b73ffffffffffffffffffffffffffffffffffffffff16146109495761090d610b10565b6040517f118cdaa70000000000000000000000000000000000000000000000000000000081526004016109409190610c2f565b60405180910390fd5b565b6109c5838473ffffffffffffffffffffffffffffffffffffffff1663a9059cbb858560405160240161097e929190610f13565b604051602081830303815290604052915060e01b6020820180517bffffffffffffffffffffffffffffffffffffffffffffffffffffffff8381831617835250505050610b18565b505050565b60008060009054906101000a900473ffffffffffffffffffffffffffffffffffffffff169050816000806101000a81548173ffffffffffffffffffffffffffffffffffffffff021916908373ffffffffffffffffffffffffffffffffffffffff1602179055508173ffffffffffffffffffffffffffffffffffffffff168173ffffffffffffffffffffffffffffffffffffffff167f8be0079c531659141344cd1fd0a4f28419497f9722a3daafe3b4186f6b6457e060405160405180910390a35050565b610b0a848573ffffffffffffffffffffffffffffffffffffffff166323b872dd868686604051602401610ac393929190610f3c565b604051602081830303815290604052915060e01b6020820180517bffffffffffffffffffffffffffffffffffffffffffffffffffffffff8381831617835250505050610b18565b50505050565b600033905090565b600080602060008451602086016000885af180610b3b576040513d6000823e3d81fd5b3d925060005191505060008214610b56576001811415610b72565b60008473ffffffffffffffffffffffffffffffffffffffff163b145b15610bb457836040517f5274afe7000000000000000000000000000000000000000000000000000000008152600401610bab9190610c2f565b60405180910390fd5b50505050565b6000819050919050565b610bcd81610bba565b82525050565b6000602082019050610be86000830184610bc4565b92915050565b600073ffffffffffffffffffffffffffffffffffffffff82169050919050565b6000610c1982610bee565b9050919050565b610c2981610c0e565b82525050565b6000602082019050610c446000830184610c20565b92915050565b60008115159050919050565b610c5f81610c4a565b82525050565b6000602082019050610c7a6000830184610c56565b92915050565b600080fd5b610c8e81610bba565b8114610c9957600080fd5b50565b600081359050610cab81610c85565b92915050565b600060208284031215610cc757610cc6610c80565b5b6000610cd584828501610c9c565b91505092915050565b610ce781610c0e565b8114610cf257600080fd5b50565b600081359050610d0481610cde565b92915050565b600060208284031215610d2057610d1f610c80565b5b6000610d2e84828501610cf5565b91505092915050565b6000819050919050565b6000610d5c610d57610d5284610bee565b610d37565b610bee565b9050919050565b6000610d6e82610d41565b9050919050565b6000610d8082610d63565b9050919050565b610d9081610d75565b82525050565b6000602082019050610dab6000830184610d87565b92915050565b7f4e487b7100000000000000000000000000000000000000000000000000000000600052601160045260246000fd5b6000610deb82610bba565b9150610df683610bba565b9250828201905080821115610e0e57610e0d610db1565b5b92915050565b6000610e1f82610bba565b9150610e2a83610bba565b9250828202610e3881610bba565b91508282048414831517610e4f57610e4e610db1565b5b5092915050565b7f4e487b7100000000000000000000000000000000000000000000000000000000600052601260045260246000fd5b6000610e9082610bba565b9150610e9b83610bba565b925082610eab57610eaa610e56565b5b828204905092915050565b6000610ec182610bba565b9150610ecc83610bba565b9250828203905081811115610ee457610ee3610db1565b5b92915050565b6000604082019050610eff6000830185610bc4565b610f0c6020830184610bc4565b9392505050565b6000604082019050610f286000830185610c20565b610f356020830184610bc4565b9392505050565b6000606082019050610f516000830186610c20565b610f5e6020830185610c20565b610f6b6040830184610bc4565b94935050505056fea2646970667358221220d087be046afe137cb594681132ecaf8ee6b332e71f00d619f4d645a0f6a2ccb864736f6c634300081c0033",
          "opcodes": "PUSH1 0xE0 PUSH1 0x40 MSTORE CALLVALUE DUP1 ISZERO PUSH2 0x10 JUMPI PUSH1 0x0 DUP1 REVERT JUMPDEST POP PUSH1 0x40 MLOAD PUSH2 0x13D2 CODESIZE SUB DUP1 PUSH2 0x13D2 DUP4 CODECOPY DUP2 DUP2 ADD PUSH1 0x40 MSTORE DUP2 ADD SWAP1 PUSH2 0x32 SWAP2 SWAP1 PUSH2 0x31D JUMP JUMPDEST DUP5 PUSH1 0x0 PUSH20 0xFFFFFFFFFFFFFFFFFFFFFFFFFFFFFFFFFFFFFFFF AND DUP2 PUSH20 0xFFFFFFFFFFFFFFFFFFFFFFFFFFFFFFFFFFFFFFFF AND SUB PUSH2 0xA5 JUMPI PUSH1 0x0 PUSH1 0x40 MLOAD PUSH32 0x1E4FBDF700000000000000000000000000000000000000000000000000000000 DUP2 MSTORE PUSH1 0x4 ADD PUSH2 0x9C SWAP2 SWAP1 PUSH2 0x3A7 JUMP JUMPDEST PUSH1 0x40 MLOAD DUP1 SWAP2 SUB SWAP1 REVERT JUMPDEST PUSH2 0xB4 DUP2 PUSH2 0x188 PUSH1 0x20 SHL PUSH1 0x20 SHR JUMP JUMPDEST POP PUSH1 0x0 DUP2 SUB PUSH2 0xEF JUMPI PUSH1 0x40 MLOAD PUSH32 0x2A82A34F00000000000000000000000000000000000000000000000000000000 DUP2 MSTORE PUSH1 0x4 ADD PUSH1 0x40 MLOAD DUP1 SWAP2 SUB SWAP1 REVERT JUMPDEST DUP4 PUSH20 0xFFFFFFFFFFFFFFFFFFFFFFFFFFFFFFFFFFFFFFFF AND PUSH1 0x80 DUP2 PUSH20 0xFFFFFFFFFFFFFFFFFFFFFFFFFFFFFFFFFFFFFFFF AND DUP2 MSTORE POP POP DUP3 ISZERO ISZERO PUSH1 0xA0 DUP2 ISZERO ISZERO DUP2 MSTORE POP POP DUP3 PUSH2 0x176 JUMPI DUP2 PUSH1 0x1 PUSH1 0x0 PUSH2 0x100 EXP DUP2 SLOAD DUP2 PUSH20 0xFFFFFFFFFFFFFFFFFFFFFFFFFFFFFFFFFFFFFFFF MUL NOT AND SWAP1 DUP4 PUSH20 0xFFFFFFFFFFFFFFFFFFFFFFFFFFFFFFFFFFFFFFFF AND MUL OR SWAP1 SSTORE POP JUMPDEST DUP1 PUSH1 0xC0 DUP2 DUP2 MSTORE POP POP POP POP POP POP POP PUSH2 0x3C2 JUMP JUMPDEST PUSH1 0x0 DUP1 PUSH1 0x0 SWAP1 SLOAD SWAP1 PUSH2 0x100 EXP SWAP1 DIV PUSH20 0xFFFFFFFFFFFFFFFFFFFFFFFFFFFFFFFFFFFFFFFF AND SWAP1 POP DUP2 PUSH1 0x0 DUP1 PUSH2 0x100 EXP DUP2 SLOAD DUP2 PUSH20 0xFFFFFFFFFFFFFFFFFFFFFFFFFFFFFFFFFFFFFFFF MUL NOT AND SWAP1 DUP4 PUSH20 0xFFFFFFFFFFFFFFFFFFFFFFFFFFFFFFFFFFFFFFFF AND MUL OR SWAP1 SSTORE POP DUP2 PUSH20 0xFFFFFFFFFFFFFFFFFFFFFFFFFFFFFFFFFFFFFFFF AND DUP2 PUSH20 0xFFFFFFFFFFFFFFFFFFFFFFFFFFFFFFFFFFFFFFFF AND PUSH32 0x8BE0079C531659141344CD1FD0A4F28419497F9722A3DAAFE3B4186F6B6457E0 PUSH1 0x40 MLOAD PUSH1 0x40 MLOAD DUP1 SWAP2 SUB SWAP1 LOG3 POP POP JUMP JUMPDEST PUSH1 0x0 DUP1 REVERT JUMPDEST PUSH1 0x0 PUSH20 0xFFFFFFFFFFFFFFFFFFFFFFFFFFFFFFFFFFFFFFFF DUP3 AND SWAP1 POP SWAP2 SWAP1 POP JUMP JUMPDEST PUSH1 0x0 PUSH2 0x27C DUP3 PUSH2 0x251 JUMP JUMPDEST SWAP1 POP SWAP2 SWAP1 POP JUMP JUMPDEST PUSH2 0x28C DUP2 PUSH2 0x271 JUMP JUMPDEST DUP2 EQ PUSH2 0x297 JUMPI PUSH1 0x0 DUP1 REVERT JUMPDEST POP JUMP JUMPDEST PUSH1 0x0 DUP2 MLOAD SWAP1 POP PUSH2 0x2A9 DUP2 PUSH2 0x283 JUMP JUMPDEST SWAP3 SWAP2 POP POP JUMP JUMPDEST PUSH1 0x0 DUP2 ISZERO ISZERO SWAP1 POP SWAP2 SWAP1 POP JUMP JUMPDEST PUSH2 0x2C4 DUP2 PUSH2 0x2AF JUMP JUMPDEST DUP2 EQ PUSH2 0x2CF JUMPI PUSH1 0x0 DUP1 REVERT JUMPDEST POP JUMP JUMPDEST PUSH1 0x0 DUP2 MLOAD SWAP1 POP PUSH2 0x2E1 DUP2 PUSH2 0x2BB JUMP JUMPDEST SWAP3 SWAP2 POP POP JUMP JUMPDEST PUSH1 0x0 DUP2 SWAP1 POP SWAP2 SWAP1 POP JUMP JUMPDEST PUSH2 0x2FA DUP2 PUSH2 0x2E7 JUMP JUMPDEST DUP2 EQ PUSH2 0x305 JUMPI PUSH1 0x0 DUP1 REVERT JUMPDEST POP JUMP JUMPDEST PUSH1 0x0 DUP2 MLOAD SWAP1 POP PUSH2 0x317 DUP2 PUSH2 0x2F1 JUMP JUMPDEST SWAP3 SWAP2 POP POP JUMP JUMPDEST PUSH1 0x0 DUP1 PUSH1 0x0 DUP1 PUSH1 0x0 PUSH1 0xA0 DUP7 DUP9 SUB SLT ISZERO PUSH2 0x339 JUMPI PUSH2 0x338 PUSH2 0x24C JUMP JUMPDEST JUMPDEST PUSH1 0x0 PUSH2 0x347 DUP9 DUP3 DUP10 ADD PUSH2 0x29A JUMP JUMPDEST SWAP6 POP POP PUSH1 0x20 PUSH2 0x358 DUP9 DUP3 DUP10 ADD PUSH2 0x29A JUMP JUMPDEST SWAP5 POP POP PUSH1 0x40 PUSH2 0x369 DUP9 DUP3 DUP10 ADD PUSH2 0x2D2 JUMP JUMPDEST SWAP4 POP POP PUSH1 0x60 PUSH2 0x37A DUP9 DUP3 DUP10 ADD PUSH2 0x29A JUMP JUMPDEST SWAP3 POP POP PUSH1 0x80 PUSH2 0x38B DUP9 DUP3 DUP10 ADD PUSH2 0x308 JUMP JUMPDEST SWAP2 POP POP SWAP3 SWAP6 POP SWAP3 SWAP6 SWAP1 SWAP4 POP JUMP JUMPDEST PUSH2 0x3A1 DUP2 PUSH2 0x271 JUMP JUMPDEST DUP3 MSTORE POP POP JUMP JUMPDEST PUSH1 0x0 PUSH1 0x20 DUP3 ADD SWAP1 POP PUSH2 0x3BC PUSH1 0x0 DUP4 ADD DUP5 PUSH2 0x398 JUMP JUMPDEST SWAP3 SWAP2 POP POP JUMP JUMPDEST PUSH1 0x80 MLOAD PUSH1 0xA0 MLOAD PUSH1 0xC0 MLOAD PUSH2 0xFA9 PUSH2 0x429 PUSH1 0x0 CODECOPY PUSH1 0x0 DUP2 DUP2 PUSH2 0x2FD ADD MSTORE PUSH2 0x5C9 ADD MSTORE PUSH1 0x0 DUP2 DUP2 PUSH2 0x365 ADD MSTORE DUP2 DUP2 PUSH2 0x4B4 ADD MSTORE DUP2 DUP2 PUSH2 0x62A ADD MSTORE DUP2 DUP2 PUSH2 0x65C ADD MSTORE DUP2 DUP2 PUSH2 0x6FE ADD MSTORE PUSH2 0x74D ADD MSTORE PUSH1 0x0 DUP2 DUP2 PUSH2 0x283 ADD MSTORE DUP2 DUP2 PUSH2 0x38B ADD MSTORE PUSH2 0x3FA ADD MSTORE PUSH2 0xFA9 PUSH1 0x0 RETURN INVALID PUSH1 0x80 PUSH1 0x40 MSTORE PUSH1 0x4 CALLDATASIZE LT PUSH2 0xA7 JUMPI PUSH1 0x0 CALLDATALOAD PUSH1 0xE0 SHR DUP1 PUSH4 0xA41D3C2E GT PUSH2 0x64 JUMPI DUP1 PUSH4 0xA41D3C2E EQ PUSH2 0x186 JUMPI DUP1 PUSH4 0xB69EF8A8 EQ PUSH2 0x1B1 JUMPI DUP1 PUSH4 0xB6B55F25 EQ PUSH2 0x1DC JUMPI DUP1 PUSH4 0xBD28F351 EQ PUSH2 0x1F8 JUMPI DUP1 PUSH4 0xF2FDE38B EQ PUSH2 0x223 JUMPI DUP1 PUSH4 0xFC0C546A EQ PUSH2 0x24C JUMPI PUSH2 0xA7 JUMP JUMPDEST DUP1 PUSH4 0x12065FE0 EQ PUSH2 0xAC JUMPI DUP1 PUSH4 0x17D8EC7F EQ PUSH2 0xD7 JUMPI DUP1 PUSH4 0x3CCFD60B EQ PUSH2 0x102 JUMPI DUP1 PUSH4 0x3FD8B02F EQ PUSH2 0x119 JUMPI DUP1 PUSH4 0x715018A6 EQ PUSH2 0x144 JUMPI DUP1 PUSH4 0x8DA5CB5B EQ PUSH2 0x15B JUMPI JUMPDEST PUSH1 0x0 DUP1 REVERT JUMPDEST CALLVALUE DUP1 ISZERO PUSH2 0xB8 JUMPI PUSH1 0x0 DUP1 REVERT JUMPDEST POP PUSH2 0xC1 PUSH2 0x277 JUMP JUMPDEST PUSH1 0x40 MLOAD PUSH2 0xCE SWAP2 SWAP1 PUSH2 0xBD3 JUMP JUMPDEST PUSH1 0x40 MLOAD DUP1 SWAP2 SUB SWAP1 RETURN JUMPDEST CALLVALUE DUP1 ISZERO PUSH2 0xE3 JUMPI PUSH1 0x0 DUP1 REVERT JUMPDEST POP PUSH2 0xEC PUSH2 0x281 JUMP JUMPDEST PUSH1 0x40 MLOAD PUSH2 0xF9 SWAP2 SWAP1 PUSH2 0xC2F JUMP JUMPDEST PUSH1 0x40 MLOAD DUP1 SWAP2 SUB SWAP1 RETURN JUMPDEST CALLVALUE DUP1 ISZERO PUSH2 0x10E JUMPI PUSH1 0x0 DUP1 REVERT JUMPDEST POP PUSH2 0x117 PUSH2 0x2A5 JUMP JUMPDEST STOP JUMPDEST CALLVALUE DUP1 ISZERO PUSH2 0x125 JUMPI PUSH1 0x0 DUP1 REVERT JUMPDEST POP PUSH2 0x12E PUSH2 0x5C7 JUMP JUMPDEST PUSH1 0x40 MLOAD PUSH2 0x13B SWAP2 SWAP1 PUSH2 0xBD3 JUMP JUMPDEST PUSH1 0x40 MLOAD DUP1 SWAP2 SUB SWAP1 RETURN JUMPDEST CALLVALUE DUP1 ISZERO PUSH2 0x150 JUMPI PUSH1 0x0 DUP1 REVERT JUMPDEST POP PUSH2 0x159 PUSH2 0x5EB JUMP JUMPDEST STOP JUMPDEST CALLVALUE DUP1 ISZERO PUSH2 0x167 JUMPI PUSH1 0x0 DUP1 REVERT JUMPDEST POP PUSH2 0x170 PUSH2 0x5FF JUMP JUMPDEST PUSH1 0x40 MLOAD PUSH2 0x17D SWAP2 SWAP1 PUSH2 0xC2F JUMP JUMPDEST PUSH1 0x40 MLOAD DUP1 SWAP2 SUB SWAP1 RETURN JUMPDEST CALLVALUE DUP1 ISZERO PUSH2 0x192 JUMPI PUSH1 0x0 DUP1 REVERT JUMPDEST POP PUSH2 0x19B PUSH2 0x628 JUMP JUMPDEST PUSH1 0x40 MLOAD PUSH2 0x1A8 SWAP2 SWAP1 PUSH2 0xC65 JUMP JUMPDEST PUSH1 0x40 MLOAD DUP1 SWAP2 SUB SWAP1 RETURN JUMPDEST CALLVALUE DUP1 ISZERO PUSH2 0x1BD JUMPI PUSH1 0x0 DUP1 REVERT JUMPDEST POP PUSH2 0x1C6 PUSH2 0x64C JUMP JUMPDEST PUSH1 0x40 MLOAD PUSH2 0x1D3 SWAP2 SWAP1 PUSH2 0xBD3 JUMP JUMPDEST PUSH1 0x40 MLOAD DUP1 SWAP2 SUB SWAP1 RETURN JUMPDEST PUSH2 0x1F6 PUSH1 0x4 DUP1 CALLDATASIZE SUB DUP2 ADD SWAP1 PUSH2 0x1F1 SWAP2 SWAP1 PUSH2 0xCB1 JUMP JUMPDEST PUSH2 0x652 JUMP JUMPDEST STOP JUMPDEST CALLVALUE DUP1 ISZERO PUSH2 0x204 JUMPI PUSH1 0x0 DUP1 REVERT JUMPDEST POP PUSH2 0x20D PUSH2 0x812 JUMP JUMPDEST PUSH1 0x40 MLOAD PUSH2 0x21A SWAP2 SWAP1 PUSH2 0xBD3 JUMP JUMPDEST PUSH1 0x40 MLOAD DUP1 SWAP2 SUB SWAP1 RETURN JUMPDEST CALLVALUE DUP1 ISZERO PUSH2 0x22F JUMPI PUSH1 0x0 DUP1 REVERT JUMPDEST POP PUSH2 0x24A PUSH1 0x4 DUP1 CALLDATASIZE SUB DUP2 ADD SWAP1 PUSH2 0x245 SWAP2 SWAP1 PUSH2 0xD0A JUMP JUMPDEST PUSH2 0x818 JUMP JUMPDEST STOP JUMPDEST CALLVALUE DUP1 ISZERO PUSH2 0x258 JUMPI PUSH1 0x0 DUP1 REVERT JUMPDEST POP PUSH2 0x261 PUSH2 0x89E JUMP JUMPDEST PUSH1 0x40 MLOAD PUSH2 0x26E SWAP2 SWAP1 PUSH2 0xD96 JUMP JUMPDEST PUSH1 0x40 MLOAD DUP1 SWAP2 SUB SWAP1 RETURN JUMPDEST PUSH1 0x0 PUSH1 0x3 SLOAD SWAP1 POP SWAP1 JUMP JUMPDEST PUSH32 0x0 DUP2 JUMP JUMPDEST PUSH2 0x2AD PUSH2 0x8C4 JUMP JUMPDEST PUSH1 0x0 PUSH1 0x3 SLOAD SUB PUSH2 0x2E9 JUMPI PUSH1 0x40 MLOAD PUSH32 0x27FCD9D100000000000000000000000000000000000000000000000000000000 DUP2 MSTORE PUSH1 0x4 ADD PUSH1 0x40 MLOAD DUP1 SWAP2 SUB SWAP1 REVERT JUMPDEST PUSH1 0x0 PUSH1 0x3 SLOAD SWAP1 POP PUSH1 0x0 DUP1 PUSH1 0x3 DUP2 SWAP1 SSTORE POP PUSH1 0x0 PUSH32 0x0 PUSH1 0x2 SLOAD PUSH2 0x329 SWAP2 SWAP1 PUSH2 0xDE0 JUMP JUMPDEST TIMESTAMP LT SWAP1 POP DUP1 ISZERO PUSH2 0x35D JUMPI PUSH1 0x64 PUSH1 0x3 DUP5 PUSH2 0x342 SWAP2 SWAP1 PUSH2 0xE14 JUMP JUMPDEST PUSH2 0x34C SWAP2 SWAP1 PUSH2 0xE85 JUMP JUMPDEST SWAP2 POP DUP2 DUP4 PUSH2 0x35A SWAP2 SWAP1 PUSH2 0xEB6 JUMP JUMPDEST SWAP3 POP JUMPDEST DUP1 ISZERO PUSH2 0x4B2 JUMPI PUSH32 0x0 ISZERO PUSH2 0x3F5 JUMPI PUSH32 0x0 PUSH20 0xFFFFFFFFFFFFFFFFFFFFFFFFFFFFFFFFFFFFFFFF AND PUSH2 0x8FC DUP4 SWAP1 DUP2 ISZERO MUL SWAP1 PUSH1 0x40 MLOAD PUSH1 0x0 PUSH1 0x40 MLOAD DUP1 DUP4 SUB DUP2 DUP6 DUP9 DUP9 CALL SWAP4 POP POP POP POP ISZERO DUP1 ISZERO PUSH2 0x3EF JUMPI RETURNDATASIZE PUSH1 0x0 DUP1 RETURNDATACOPY RETURNDATASIZE PUSH1 0x0 REVERT JUMPDEST POP PUSH2 0x463 JUMP JUMPDEST PUSH2 0x462 PUSH32 0x0 DUP4 PUSH1 0x1 PUSH1 0x0 SWAP1 SLOAD SWAP1 PUSH2 0x100 EXP SWAP1 DIV PUSH20 0xFFFFFFFFFFFFFFFFFFFFFFFFFFFFFFFFFFFFFFFF AND PUSH20 0xFFFFFFFFFFFFFFFFFFFFFFFFFFFFFFFFFFFFFFFF AND PUSH2 0x94B SWAP1 SWAP3 SWAP2 SWAP1 PUSH4 0xFFFFFFFF AND JUMP JUMPDEST JUMPDEST CALLER PUSH20 0xFFFFFFFFFFFFFFFFFFFFFFFFFFFFFFFFFFFFFFFF AND PUSH32 0xC81DBE087466FA581B2057CF30EDD784E6BC1EF91D02C58C9386389DA2F9E224 DUP4 PUSH1 0x40 MLOAD PUSH2 0x4A9 SWAP2 SWAP1 PUSH2 0xBD3 JUMP JUMPDEST PUSH1 0x40 MLOAD DUP1 SWAP2 SUB SWAP1 LOG2 JUMPDEST PUSH32 0x0 ISZERO PUSH2 0x524 JUMPI CALLER PUSH20 0xFFFFFFFFFFFFFFFFFFFFFFFFFFFFFFFFFFFFFFFF AND PUSH2 0x8FC DUP5 SWAP1 DUP2 ISZERO MUL SWAP1 PUSH1 0x40 MLOAD PUSH1 0x0 PUSH1 0x40 MLOAD DUP1 DUP4 SUB DUP2 DUP6 DUP9 DUP9 CALL SWAP4 POP POP POP POP ISZERO DUP1 ISZERO PUSH2 0x51E JUMPI RETURNDATASIZE PUSH1 0x0 DUP1 RETURNDATACOPY RETURNDATASIZE PUSH1 0x0 REVERT JUMPDEST POP PUSH2 0x572 JUMP JUMPDEST PUSH2 0x571 CALLER DUP5 PUSH1 0x1 PUSH1 0x0 SWAP1 SLOAD SWAP1 PUSH2 0x100 EXP SWAP1 DIV PUSH20 0xFFFFFFFFFFFFFFFFFFFFFFFFFFFFFFFFFFFFFFFF AND PUSH20 0xFFFFFFFFFFFFFFFFFFFFFFFFFFFFFFFFFFFFFFFF AND PUSH2 0x94B SWAP1 SWAP3 SWAP2 SWAP1 PUSH4 0xFFFFFFFF AND JUMP JUMPDEST JUMPDEST CALLER PUSH20 0xFFFFFFFFFFFFFFFFFFFFFFFFFFFFFFFFFFFFFFFF AND PUSH32 0x92CCF450A286A957AF52509BC1C9939D1A6A481783E142E41E2499F0BB66EBC6 DUP5 DUP5 PUSH1 0x40 MLOAD PUSH2 0x5BA SWAP3 SWAP2 SWAP1 PUSH2 0xEEA JUMP JUMPDEST PUSH1 0x40 MLOAD DUP1 SWAP2 SUB SWAP1 LOG2 POP POP POP JUMP JUMPDEST PUSH32 0x0 DUP2 JUMP JUMPDEST PUSH2 0x5F3 PUSH2 0x8C4 JUMP JUMPDEST PUSH2 0x5FD PUSH1 0x0 PUSH2 0x9CA JUMP JUMPDEST JUMP JUMPDEST PUSH1 0x0 DUP1 PUSH1 0x0 SWAP1 SLOAD SWAP1 PUSH2 0x100 EXP SWAP1 DIV PUSH20 0xFFFFFFFFFFFFFFFFFFFFFFFFFFFFFFFFFFFFFFFF AND SWAP1 POP SWAP1 JUMP JUMPDEST PUSH32 0x0 DUP2 JUMP JUMPDEST PUSH1 0x3 SLOAD DUP2 JUMP JUMPDEST PUSH2 0x65A PUSH2 0x8C4 JUMP JUMPDEST PUSH32 0x0 ISZERO PUSH2 0x6BF JUMPI PUSH1 0x0 CALLVALUE SUB PUSH2 0x6BA JUMPI PUSH1 0x40 MLOAD PUSH32 0xB2E532DE00000000000000000000000000000000000000000000000000000000 DUP2 MSTORE PUSH1 0x4 ADD PUSH1 0x40 MLOAD DUP1 SWAP2 SUB SWAP1 REVERT JUMPDEST PUSH2 0x6FA JUMP JUMPDEST PUSH1 0x0 DUP2 SUB PUSH2 0x6F9 JUMPI PUSH1 0x40 MLOAD PUSH32 0xB2E532DE00000000000000000000000000000000000000000000000000000000 DUP2 MSTORE PUSH1 0x4 ADD PUSH1 0x40 MLOAD DUP1 SWAP2 SUB SWAP1 REVERT JUMPDEST JUMPDEST PUSH1 0x0 PUSH32 0x0 PUSH2 0x727 JUMPI DUP2 PUSH2 0x729 JUMP JUMPDEST CALLVALUE JUMPDEST SWAP1 POP DUP1 PUSH1 0x3 PUSH1 0x0 DUP3 DUP3 SLOAD PUSH2 0x73D SWAP2 SWAP1 PUSH2 0xDE0 JUMP JUMPDEST SWAP3 POP POP DUP2 SWAP1 SSTORE POP TIMESTAMP PUSH1 0x2 DUP2 SWAP1 SSTORE POP PUSH32 0x0 PUSH2 0x7C0 JUMPI PUSH2 0x7BF CALLER ADDRESS DUP5 PUSH1 0x1 PUSH1 0x0 SWAP1 SLOAD SWAP1 PUSH2 0x100 EXP SWAP1 DIV PUSH20 0xFFFFFFFFFFFFFFFFFFFFFFFFFFFFFFFFFFFFFFFF AND PUSH20 0xFFFFFFFFFFFFFFFFFFFFFFFFFFFFFFFFFFFFFFFF AND PUSH2 0xA8E SWAP1 SWAP4 SWAP3 SWAP2 SWAP1 PUSH4 0xFFFFFFFF AND JUMP JUMPDEST JUMPDEST CALLER PUSH20 0xFFFFFFFFFFFFFFFFFFFFFFFFFFFFFFFFFFFFFFFF AND PUSH32 0x2DA466A7B24304F47E87FA2E1E5A81B9831CE54FEC19055CE277CA2F39BA42C4 DUP3 PUSH1 0x40 MLOAD PUSH2 0x806 SWAP2 SWAP1 PUSH2 0xBD3 JUMP JUMPDEST PUSH1 0x40 MLOAD DUP1 SWAP2 SUB SWAP1 LOG2 POP POP JUMP JUMPDEST PUSH1 0x2 SLOAD DUP2 JUMP JUMPDEST PUSH2 0x820 PUSH2 0x8C4 JUMP JUMPDEST PUSH1 0x0 PUSH20 0xFFFFFFFFFFFFFFFFFFFFFFFFFFFFFFFFFFFFFFFF AND DUP2 PUSH20 0xFFFFFFFFFFFFFFFFFFFFFFFFFFFFFFFFFFFFFFFF AND SUB PUSH2 0x892 JUMPI PUSH1 0x0 PUSH1 0x40 MLOAD PUSH32 0x1E4FBDF700000000000000000000000000000000000000000000000000000000 DUP2 MSTORE PUSH1 0x4 ADD PUSH2 0x889 SWAP2 SWAP1 PUSH2 0xC2F JUMP JUMPDEST PUSH1 0x40 MLOAD DUP1 SWAP2 SUB SWAP1 REVERT JUMPDEST PUSH2 0x89B DUP2 PUSH2 0x9CA JUMP JUMPDEST POP JUMP JUMPDEST PUSH1 0x1 PUSH1 0x0 SWAP1 SLOAD SWAP1 PUSH2 0x100 EXP SWAP1 DIV PUSH20 0xFFFFFFFFFFFFFFFFFFFFFFFFFFFFFFFFFFFFFFFF AND DUP2 JUMP JUMPDEST PUSH2 0x8CC PUSH2 0xB10 JUMP JUMPDEST PUSH20 0xFFFFFFFFFFFFFFFFFFFFFFFFFFFFFFFFFFFFFFFF AND PUSH2 0x8EA PUSH2 0x5FF JUMP JUMPDEST PUSH20 0xFFFFFFFFFFFFFFFFFFFFFFFFFFFFFFFFFFFFFFFF AND EQ PUSH2 0x949 JUMPI PUSH2 0x90D PUSH2 0xB10 JUMP JUMPDEST PUSH1 0x40 MLOAD PUSH32 0x118CDAA700000000000000000000000000000000000000000000000000000000 DUP2 MSTORE PUSH1 0x4 ADD PUSH2 0x940 SWAP2 SWAP1 PUSH2 0xC2F JUMP JUMPDEST PUSH1 0x40 MLOAD DUP1 SWAP2 SUB SWAP1 REVERT JUMPDEST JUMP JUMPDEST PUSH2 0x9C5 DUP4 DUP5 PUSH20 0xFFFFFFFFFFFFFFFFFFFFFFFFFFFFFFFFFFFFFFFF AND PUSH4 0xA9059CBB DUP6 DUP6 PUSH1 0x40 MLOAD PUSH1 0x24 ADD PUSH2 0x97E SWAP3 SWAP2 SWAP1 PUSH2 0xF13 JUMP JUMPDEST PUSH1 0x40 MLOAD PUSH1 0x20 DUP2 DUP4 SUB SUB DUP2 MSTORE SWAP1 PUSH1 0x40 MSTORE SWAP2 POP PUSH1 0xE0 SHL PUSH1 0x20 DUP3 ADD DUP1 MLOAD PUSH28 0xFFFFFFFFFFFFFFFFFFFFFFFFFFFFFFFFFFFFFFFFFFFFFFFFFFFFFFFF DUP4 DUP2 DUP4 AND OR DUP4 MSTORE POP POP POP POP PUSH2 0xB18 JUMP JUMPDEST POP POP POP JUMP JUMPDEST PUSH1 0x0 DUP1 PUSH1 0x0 SWAP1 SLOAD SWAP1 PUSH2 0x100 EXP SWAP1 DIV PUSH20 0xFFFFFFFFFFFFFFFFFFFFFFFFFFFFFFFFFFFFFFFF AND SWAP1 POP DUP2 PUSH1 0x0 DUP1 PUSH2 0x100 EXP DUP2 SLOAD DUP2 PUSH20 0xFFFFFFFFFFFFFFFFFFFFFFFFFFFFFFFFFFFFFFFF MUL NOT AND SWAP1 DUP4 PUSH20 0xFFFFFFFFFFFFFFFFFFFFFFFFFFFFFFFFFFFFFFFF AND MUL OR SWAP1 SSTORE POP DUP2 PUSH20 0xFFFFFFFFFFFFFFFFFFFFFFFFFFFFFFFFFFFFFFFF AND DUP2 PUSH20 0xFFFFFFFFFFFFFFFFFFFFFFFFFFFFFFFFFFFFFFFF AND PUSH32 0x8BE0079C531659141344CD1FD0A4F28419497F9722A3DAAFE3B4186F6B6457E0 PUSH1 0x40 MLOAD PUSH1 0x40 MLOAD DUP1 SWAP2 SUB SWAP1 LOG3 POP POP JUMP JUMPDEST PUSH2 0xB0A DUP5 DUP6 PUSH20 0xFFFFFFFFFFFFFFFFFFFFFFFFFFFFFFFFFFFFFFFF AND PUSH4 0x23B872DD DUP7 DUP7 DUP7 PUSH1 0x40 MLOAD PUSH1 0x24 ADD PUSH2 0xAC3 SWAP4 SWAP3 SWAP2 SWAP1 PUSH2 0xF3C JUMP JUMPDEST PUSH1 0x40 MLOAD PUSH1 0x20 DUP2 DUP4 SUB SUB DUP2 MSTORE SWAP1 PUSH1 0x40 MSTORE SWAP2 POP PUSH1 0xE0 SHL PUSH1 0x20 DUP3 ADD DUP1 MLOAD PUSH28 0xFFFFFFFFFFFFFFFFFFFFFFFFFFFFFFFFFFFFFFFFFFFFFFFFFFFFFFFF DUP4 DUP2 DUP4 AND OR DUP4 MSTORE POP POP POP POP PUSH2 0xB18 JUMP JUMPDEST POP POP POP POP JUMP JUMPDEST PUSH1 0x0 CALLER SWAP1 POP SWAP1 JUMP JUMPDEST PUSH1 0x0 DUP1 PUSH1 0x20 PUSH1 0x0 DUP5 MLOAD PUSH1 0x20 DUP7 ADD PUSH1 0x0 DUP9 GAS CALL DUP1 PUSH2 0xB3B JUMPI PUSH1 0x40 MLOAD RETURNDATASIZE PUSH1 0x0 DUP3 RETURNDATACOPY RETURNDATASIZE DUP2 REVERT JUMPDEST RETURNDATASIZE SWAP3 POP PUSH1 0x0 MLOAD SWAP2 POP POP PUSH1 0x0 DUP3 EQ PUSH2 0xB56 JUMPI PUSH1 0x1 DUP2 EQ ISZERO PUSH2 0xB72 JUMP JUMPDEST PUSH1 0x0 DUP5 PUSH20 0xFFFFFFFFFFFFFFFFFFFFFFFFFFFFFFFFFFFFFFFF AND EXTCODESIZE EQ JUMPDEST ISZERO PUSH2 0xBB4 JUMPI DUP4 PUSH1 0x40 MLOAD PUSH32 0x5274AFE700000000000000000000000000000000000000000000000000000000 DUP2 MSTORE PUSH1 0x4 ADD PUSH2 0xBAB SWAP2 SWAP1 PUSH2 0xC2F JUMP JUMPDEST PUSH1 0x40 MLOAD DUP1 SWAP2 SUB SWAP1 REVERT JUMPDEST POP POP POP POP JUMP JUMPDEST PUSH1 0x0 DUP2 SWAP1 POP SWAP2 SWAP1 POP JUMP JUMPDEST PUSH2 0xBCD DUP2 PUSH2 0xBBA JUMP JUMPDEST DUP3 MSTORE POP POP JUMP JUMPDEST PUSH1 0x0 PUSH1 0x20 DUP3 ADD SWAP1 POP PUSH2 0xBE8 PUSH1 0x0 DUP4 ADD DUP5 PUSH2 0xBC4 JUMP JUMPDEST SWAP3 SWAP2 POP POP JUMP JUMPDEST PUSH1 0x0 PUSH20 0xFFFFFFFFFFFFFFFFFFFFFFFFFFFFFFFFFFFFFFFF DUP3 AND SWAP1 POP SWAP2 SWAP1 POP JUMP JUMPDEST PUSH1 0x0 PUSH2 0xC19 DUP3 PUSH2 0xBEE JUMP JUMPDEST SWAP1 POP SWAP2 SWAP1 POP JUMP JUMPDEST PUSH2 0xC29 DUP2 PUSH2 0xC0E JUMP JUMPDEST DUP3 MSTORE POP POP JUMP JUMPDEST PUSH1 0x0 PUSH1 0x20 DUP3 ADD SWAP1 POP PUSH2 0xC44 PUSH1 0x0 DUP4 ADD DUP5 PUSH2 0xC20 JUMP JUMPDEST SWAP3 SWAP2 POP POP JUMP JUMPDEST PUSH1 0x0 DUP2 ISZERO ISZERO SWAP1 POP SWAP2 SWAP1 POP JUMP JUMPDEST PUSH2 0xC5F DUP2 PUSH2 0xC4A JUMP JUMPDEST DUP3 MSTORE POP POP JUMP JUMPDEST PUSH1 0x0 PUSH1 0x20 DUP3 ADD SWAP1 POP PUSH2 0xC7A PUSH1 0x0 DUP4 ADD DUP5 PUSH2 0xC56 JUMP JUMPDEST SWAP3 SWAP2 POP POP JUMP JUMPDEST PUSH1 0x0 DUP1 REVERT JUMPDEST PUSH2 0xC8E DUP2 PUSH2 0xBBA JUMP JUMPDEST DUP2 EQ PUSH2 0xC99 JUMPI PUSH1 0x0 DUP1 REVERT JUMPDEST POP JUMP JUMPDEST PUSH1 0x0 DUP2 CALLDATALOAD SWAP1 POP PUSH2 0xCAB DUP2 PUSH2 0xC85 JUMP JUMPDEST SWAP3 SWAP2 POP POP JUMP JUMPDEST PUSH1 0x0 PUSH1 0x20 DUP3 DUP5 SUB SLT ISZERO PUSH2 0xCC7 JUMPI PUSH2 0xCC6 PUSH2 0xC80 JUMP JUMPDEST JUMPDEST PUSH1 0x0 PUSH2 0xCD5 DUP5 DUP3 DUP6 ADD PUSH2 0xC9C JUMP JUMPDEST SWAP2 POP POP SWAP3 SWAP2 POP POP JUMP JUMPDEST PUSH2 0xCE7 DUP2 PUSH2 0xC0E JUMP JUMPDEST DUP2 EQ PUSH2 0xCF2 JUMPI PUSH1 0x0 DUP1 REVERT JUMPDEST POP JUMP JUMPDEST PUSH1 0x0 DUP2 CALLDATALOAD SWAP1 POP PUSH2 0xD04 DUP2 PUSH2 0xCDE JUMP JUMPDEST SWAP3 SWAP2 POP POP JUMP JUMPDEST PUSH1 0x0 PUSH1 0x20 DUP3 DUP5 SUB SLT ISZERO PUSH2 0xD20 JUMPI PUSH2 0xD1F PUSH2 0xC80 JUMP JUMPDEST JUMPDEST PUSH1 0x0 PUSH2 0xD2E DUP5 DUP3 DUP6 ADD PUSH2 0xCF5 JUMP JUMPDEST SWAP2 POP POP SWAP3 SWAP2 POP POP JUMP JUMPDEST PUSH1 0x0 DUP2 SWAP1 POP SWAP2 SWAP1 POP JUMP JUMPDEST PUSH1 0x0 PUSH2 0xD5C PUSH2 0xD57 PUSH2 0xD52 DUP5 PUSH2 0xBEE JUMP JUMPDEST PUSH2 0xD37 JUMP JUMPDEST PUSH2 0xBEE JUMP JUMPDEST SWAP1 POP SWAP2 SWAP1 POP JUMP JUMPDEST PUSH1 0x0 PUSH2 0xD6E DUP3 PUSH2 0xD41 JUMP JUMPDEST SWAP1 POP SWAP2 SWAP1 POP JUMP JUMPDEST PUSH1 0x0 PUSH2 0xD80 DUP3 PUSH2 0xD63 JUMP JUMPDEST SWAP1 POP SWAP2 SWAP1 POP JUMP JUMPDEST PUSH2 0xD90 DUP2 PUSH2 0xD75 JUMP JUMPDEST DUP3 MSTORE POP POP JUMP JUMPDEST PUSH1 0x0 PUSH1 0x20 DUP3 ADD SWAP1 POP PUSH2 0xDAB PUSH1 0x0 DUP4 ADD DUP5 PUSH2 0xD87 JUMP JUMPDEST SWAP3 SWAP2 POP POP JUMP JUMPDEST PUSH32 0x4E487B7100000000000000000000000000000000000000000000000000000000 PUSH1 0x0 MSTORE PUSH1 0x11 PUSH1 0x4 MSTORE PUSH1 0x24 PUSH1 0x0 REVERT JUMPDEST PUSH1 0x0 PUSH2 0xDEB DUP3 PUSH2 0xBBA JUMP JUMPDEST SWAP2 POP PUSH2 0xDF6 DUP4 PUSH2 0xBBA JUMP JUMPDEST SWAP3 POP DUP3 DUP3 ADD SWAP1 POP DUP1 DUP3 GT ISZERO PUSH2 0xE0E JUMPI PUSH2 0xE0D PUSH2 0xDB1 JUMP JUMPDEST JUMPDEST SWAP3 SWAP2 POP POP JUMP JUMPDEST PUSH1 0x0 PUSH2 0xE1F DUP3 PUSH2 0xBBA JUMP JUMPDEST SWAP2 POP PUSH2 0xE2A DUP4 PUSH2 0xBBA JUMP JUMPDEST SWAP3 POP DUP3 DUP3 MUL PUSH2 0xE38 DUP2 PUSH2 0xBBA JUMP JUMPDEST SWAP2 POP DUP3 DUP3 DIV DUP5 EQ DUP4 ISZERO OR PUSH2 0xE4F JUMPI PUSH2 0xE4E PUSH2 0xDB1 JUMP JUMPDEST JUMPDEST POP SWAP3 SWAP2 POP POP JUMP JUMPDEST PUSH32 0x4E487B7100000000000000000000000000000000000000000000000000000000 PUSH1 0x0 MSTORE PUSH1 0x12 PUSH1 0x4 MSTORE PUSH1 0x24 PUSH1 0x0 REVERT JUMPDEST PUSH1 0x0 PUSH2 0xE90 DUP3 PUSH2 0xBBA JUMP JUMPDEST SWAP2 POP PUSH2 0xE9B DUP4 PUSH2 0xBBA JUMP JUMPDEST SWAP3 POP DUP3 PUSH2 0xEAB JUMPI PUSH2 0xEAA PUSH2 0xE56 JUMP JUMPDEST JUMPDEST DUP3 DUP3 DIV SWAP1 POP SWAP3 SWAP2 POP POP JUMP JUMPDEST PUSH1 0x0 PUSH2 0xEC1 DUP3 PUSH2 0xBBA JUMP JUMPDEST SWAP2 POP PUSH2 0xECC DUP4 PUSH2 0xBBA JUMP JUMPDEST SWAP3 POP DUP3 DUP3 SUB SWAP1 POP DUP2 DUP2 GT ISZERO PUSH2 0xEE4 JUMPI PUSH2 0xEE3 PUSH2 0xDB1 JUMP JUMPDEST JUMPDEST SWAP3 SWAP2 POP POP JUMP JUMPDEST PUSH1 0x0 PUSH1 0x40 DUP3 ADD SWAP1 POP PUSH2 0xEFF PUSH1 0x0 DUP4 ADD DUP6 PUSH2 0xBC4 JUMP JUMPDEST PUSH2 0xF0C PUSH1 0x20 DUP4 ADD DUP5 PUSH2 0xBC4 JUMP JUMPDEST SWAP4 SWAP3 POP POP POP JUMP JUMPDEST PUSH1 0x0 PUSH1 0x40 DUP3 ADD SWAP1 POP PUSH2 0xF28 PUSH1 0x0 DUP4 ADD DUP6 PUSH2 0xC20 JUMP JUMPDEST PUSH2 0xF35 PUSH1 0x20 DUP4 ADD DUP5 PUSH2 0xBC4 JUMP JUMPDEST SWAP4 SWAP3 POP POP POP JUMP JUMPDEST PUSH1 0x0 PUSH1 0x60 DUP3 ADD SWAP1 POP PUSH2 0xF51 PUSH1 0x0 DUP4 ADD DUP7 PUSH2 0xC20 JUMP JUMPDEST PUSH2 0xF5E PUSH1 0x20 DUP4 ADD DUP6 PUSH2 0xC20 JUMP JUMPDEST PUSH2 0xF6B PUSH1 0x40 DUP4 ADD DUP5 PUSH2 0xBC4 JUMP JUMPDEST SWAP5 SWAP4 POP POP POP POP JUMP INVALID LOG2 PUSH5 0x6970667358 0x22 SLT KECCAK256 0xD0 DUP8 0xBE DIV PUSH11 0xFE137CB594681132ECAF8E 0xE6 0xB3 ORIGIN 0xE7 0x1F STOP 0xD6 NOT DELEGATECALL 0xD6 GASLIMIT LOG0 0xF6 LOG2 0xCC 0xB8 PUSH5 0x736F6C6343 STOP ADDMOD SHR STOP CALLER "
        },
        "methodIdentifiers": {
          "balance()": "b69ef8a8",
          "deposit(uint256)": "b6b55f25",
          "factoryAdmin()": "17d8ec7f",
          "getBalance()": "12065fe0",
          "isETH()": "a41d3c2e",
          "lastDepositTime()": "bd28f351",
          "lockPeriod()": "3fd8b02f",
          "owner()": "8da5cb5b",
          "renounceOwnership()": "715018a6",
          "token()": "fc0c546a",
          "transferOwnership(address)": "f2fde38b",
          "withdraw()": "3ccfd60b"
        }
      }
    }
  }
}