{
  "_format": "hh-sol-artifact-1",
  "contractName": "PiggyBankFactory",
  "sourceName": "contracts/PiggyBankFactory.sol",
  "abi": [
    {
      "inputs": [],
      "stateMutability": "nonpayable",
      "type": "constructor"
    },
    {
      "inputs": [],
      "name": "DuplicateLockPeriod",
      "type": "error"
    },
    {
      "inputs": [],
      "name": "InvalidParameters",
      "type": "error"
    },
    {
      "inputs": [
        {
          "internalType": "address",
          "name": "owner",
          "type": "address"
        }
      ],
      "name": "OwnableInvalidOwner",
      "type": "error"
    },
    {
      "inputs": [
        {
          "internalType": "address",
          "name": "account",
          "type": "address"
        }
      ],
      "name": "OwnableUnauthorizedAccount",
      "type": "error"
    },
    {
      "anonymous": false,
      "inputs": [
        {
          "indexed": true,
          "internalType": "address",
          "name": "previousOwner",
          "type": "address"
        },
        {
          "indexed": true,
          "internalType": "address",
          "name": "newOwner",
          "type": "address"
        }
      ],
      "name": "OwnershipTransferred",
      "type": "event"
    },
    {
      "anonymous": false,
      "inputs": [
        {
          "indexed": true,
          "internalType": "address",
          "name": "user",
          "type": "address"
        },
        {
          "indexed": false,
          "internalType": "address",
          "name": "piggyBank",
          "type": "address"
        },
        {
          "indexed": false,
          "internalType": "uint256",
          "name": "lockPeriod",
          "type": "uint256"
        }
      ],
      "name": "PiggyBankCreated",
      "type": "event"
    },
    {
      "inputs": [
        {
          "internalType": "bool",
          "name": "isETH",
          "type": "bool"
        },
        {
          "internalType": "address",
          "name": "token",
          "type": "address"
        },
        {
          "internalType": "uint256",
          "name": "lockPeriod",
          "type": "uint256"
        }
      ],
      "name": "createPiggyBank",
      "outputs": [],
      "stateMutability": "nonpayable",
      "type": "function"
    },
    {
      "inputs": [
        {
          "internalType": "address",
          "name": "user",
          "type": "address"
        }
      ],
      "name": "getUserPiggyBankCount",
      "outputs": [
        {
          "internalType": "uint256",
          "name": "",
          "type": "uint256"
        }
      ],
      "stateMutability": "view",
      "type": "function"
    },
    {
      "inputs": [
        {
          "internalType": "address",
          "name": "user",
          "type": "address"
        }
      ],
      "name": "getUserPiggyBanks",
      "outputs": [
        {
          "internalType": "address[]",
          "name": "",
          "type": "address[]"
        }
      ],
      "stateMutability": "view",
      "type": "function"
    },
    {
      "inputs": [
        {
          "internalType": "address",
          "name": "user",
          "type": "address"
        }
      ],
      "name": "getUserTotalBalance",
      "outputs": [
        {
          "internalType": "uint256",
          "name": "ethBalance",
          "type": "uint256"
        },
        {
          "internalType": "uint256[]",
          "name": "tokenBalances",
          "type": "uint256[]"
        },
        {
          "internalType": "address[]",
          "name": "tokens",
          "type": "address[]"
        }
      ],
      "stateMutability": "view",
      "type": "function"
    },
    {
      "inputs": [],
      "name": "owner",
      "outputs": [
        {
          "internalType": "address",
          "name": "",
          "type": "address"
        }
      ],
      "stateMutability": "view",
      "type": "function"
    },
    {
      "inputs": [],
      "name": "renounceOwnership",
      "outputs": [],
      "stateMutability": "nonpayable",
      "type": "function"
    },
    {
      "inputs": [
        {
          "internalType": "address",
          "name": "newOwner",
          "type": "address"
        }
      ],
      "name": "transferOwnership",
      "outputs": [],
      "stateMutability": "nonpayable",
      "type": "function"
    },
    {
      "inputs": [
        {
          "internalType": "address",
          "name": "",
          "type": "address"
        },
        {
          "internalType": "uint256",
          "name": "",
          "type": "uint256"
        }
      ],
      "name": "userPiggyBanks",
      "outputs": [
        {
          "internalType": "address",
          "name": "",
          "type": "address"
        }
      ],
      "stateMutability": "view",
      "type": "function"
    }
  ],
  "bytecode": "0x608060405234801561001057600080fd5b5033600073ffffffffffffffffffffffffffffffffffffffff168173ffffffffffffffffffffffffffffffffffffffff16036100845760006040517f1e4fbdf700000000000000000000000000000000000000000000000000000000815260040161007b919061019e565b60405180910390fd5b6100938161009960201b60201c565b506101b9565b60008060009054906101000a900473ffffffffffffffffffffffffffffffffffffffff169050816000806101000a81548173ffffffffffffffffffffffffffffffffffffffff021916908373ffffffffffffffffffffffffffffffffffffffff1602179055508173ffffffffffffffffffffffffffffffffffffffff168173ffffffffffffffffffffffffffffffffffffffff167f8be0079c531659141344cd1fd0a4f28419497f9722a3daafe3b4186f6b6457e060405160405180910390a35050565b600073ffffffffffffffffffffffffffffffffffffffff82169050919050565b60006101888261015d565b9050919050565b6101988161017d565b82525050565b60006020820190506101b3600083018461018f565b92915050565b612611806101c86000396000f3fe608060405234801561001057600080fd5b50600436106100885760003560e01c80638da5cb5b1161005b5780638da5cb5b146101155780639532edc214610133578063a81e80a814610163578063f2fde38b1461019357610088565b8063585f9c2c1461008d578063663ee92f146100a9578063715018a6146100d95780637923076c146100e3575b600080fd5b6100a760048036038101906100a29190610cd7565b6101af565b005b6100c360048036038101906100be9190610d2a565b610495565b6040516100d09190610d79565b60405180910390f35b6100e16104e3565b005b6100fd60048036038101906100f89190610d94565b6104f7565b60405161010c93929190610f4c565b60405180910390f35b61011d6108de565b60405161012a9190610d79565b60405180910390f35b61014d60048036038101906101489190610d94565b610907565b60405161015a9190610f91565b60405180910390f35b61017d60048036038101906101789190610d94565b6109d4565b60405161018a9190610fb3565b60405180910390f35b6101ad60048036038101906101a89190610d94565b610a20565b005b600081036101e9576040517fe523909000000000000000000000000000000000000000000000000000000000815260040160405180910390fd5b821580156102235750600073ffffffffffffffffffffffffffffffffffffffff168273ffffffffffffffffffffffffffffffffffffffff16145b1561025a576040517fe523909000000000000000000000000000000000000000000000000000000000815260040160405180910390fd5b600260003373ffffffffffffffffffffffffffffffffffffffff1673ffffffffffffffffffffffffffffffffffffffff168152602001908152602001600020600082815260200190815260200160002060009054906101000a900460ff16156102ef576040517ffd434dd600000000000000000000000000000000000000000000000000000000815260040160405180910390fd5b6000336102fa6108de565b85858560405161030990610bf9565b610317959493929190610fdd565b604051809103906000f080158015610333573d6000803e3d6000fd5b509050600160003373ffffffffffffffffffffffffffffffffffffffff1673ffffffffffffffffffffffffffffffffffffffff168152602001908152602001600020819080600181540180825580915050600190039060005260206000200160009091909190916101000a81548173ffffffffffffffffffffffffffffffffffffffff021916908373ffffffffffffffffffffffffffffffffffffffff1602179055506001600260003373ffffffffffffffffffffffffffffffffffffffff1673ffffffffffffffffffffffffffffffffffffffff168152602001908152602001600020600084815260200190815260200160002060006101000a81548160ff0219169083151502179055503373ffffffffffffffffffffffffffffffffffffffff167fec43f8dce0d64e8ce6f27f0a178b440fd75a19985d2d6394532aa7fe7a1c592e8284604051610487929190611030565b60405180910390a250505050565b600160205281600052604060002081815481106104b157600080fd5b906000526020600020016000915091509054906101000a900473ffffffffffffffffffffffffffffffffffffffff1681565b6104eb610aa6565b6104f56000610b2d565b565b60006060806000600160008673ffffffffffffffffffffffffffffffffffffffff1673ffffffffffffffffffffffffffffffffffffffff1681526020019081526020016000208054806020026020016040519081016040528092919081815260200182805480156105bd57602002820191906000526020600020905b8160009054906101000a900473ffffffffffffffffffffffffffffffffffffffff1673ffffffffffffffffffffffffffffffffffffffff1681526020019060010190808311610573575b50505050509050805167ffffffffffffffff8111156105df576105de611059565b5b60405190808252806020026020018201604052801561060d5781602001602082028036833780820191505090505b509250805167ffffffffffffffff81111561062b5761062a611059565b5b6040519080825280602002602001820160405280156106595781602001602082028036833780820191505090505b50915060005b81518110156108d557600082828151811061067d5761067c611088565b5b602002602001015190508073ffffffffffffffffffffffffffffffffffffffff1663a41d3c2e6040518163ffffffff1660e01b8152600401602060405180830381865afa1580156106d2573d6000803e3d6000fd5b505050506040513d601f19601f820116820180604052508101906106f691906110cc565b1561077c578073ffffffffffffffffffffffffffffffffffffffff166312065fe06040518163ffffffff1660e01b8152600401602060405180830381865afa158015610746573d6000803e3d6000fd5b505050506040513d601f19601f8201168201806040525081019061076a919061110e565b86610775919061116a565b95506108c7565b8073ffffffffffffffffffffffffffffffffffffffff166312065fe06040518163ffffffff1660e01b8152600401602060405180830381865afa1580156107c7573d6000803e3d6000fd5b505050506040513d601f19601f820116820180604052508101906107eb919061110e565b8583815181106107fe576107fd611088565b5b6020026020010181815250508073ffffffffffffffffffffffffffffffffffffffff1663fc0c546a6040518163ffffffff1660e01b8152600401602060405180830381865afa158015610855573d6000803e3d6000fd5b505050506040513d601f19601f8201168201806040525081019061087991906111dc565b84838151811061088c5761088b611088565b5b602002602001019073ffffffffffffffffffffffffffffffffffffffff16908173ffffffffffffffffffffffffffffffffffffffff16815250505b50808060010191505061065f565b50509193909250565b60008060009054906101000a900473ffffffffffffffffffffffffffffffffffffffff16905090565b6060600160008373ffffffffffffffffffffffffffffffffffffffff1673ffffffffffffffffffffffffffffffffffffffff1681526020019081526020016000208054806020026020016040519081016040528092919081815260200182805480156109c857602002820191906000526020600020905b8160009054906101000a900473ffffffffffffffffffffffffffffffffffffffff1673ffffffffffffffffffffffffffffffffffffffff168152602001906001019080831161097e575b50505050509050919050565b6000600160008373ffffffffffffffffffffffffffffffffffffffff1673ffffffffffffffffffffffffffffffffffffffff168152602001908152602001600020805490509050919050565b610a28610aa6565b600073ffffffffffffffffffffffffffffffffffffffff168173ffffffffffffffffffffffffffffffffffffffff1603610a9a5760006040517f1e4fbdf7000000000000000000000000000000000000000000000000000000008152600401610a919190610d79565b60405180910390fd5b610aa381610b2d565b50565b610aae610bf1565b73ffffffffffffffffffffffffffffffffffffffff16610acc6108de565b73ffffffffffffffffffffffffffffffffffffffff1614610b2b57610aef610bf1565b6040517f118cdaa7000000000000000000000000000000000000000000000000000000008152600401610b229190610d79565b60405180910390fd5b565b60008060009054906101000a900473ffffffffffffffffffffffffffffffffffffffff169050816000806101000a81548173ffffffffffffffffffffffffffffffffffffffff021916908373ffffffffffffffffffffffffffffffffffffffff1602179055508173ffffffffffffffffffffffffffffffffffffffff168173ffffffffffffffffffffffffffffffffffffffff167f8be0079c531659141344cd1fd0a4f28419497f9722a3daafe3b4186f6b6457e060405160405180910390a35050565b600033905090565b6113d28061120a83390190565b600080fd5b60008115159050919050565b610c2081610c0b565b8114610c2b57600080fd5b50565b600081359050610c3d81610c17565b92915050565b600073ffffffffffffffffffffffffffffffffffffffff82169050919050565b6000610c6e82610c43565b9050919050565b610c7e81610c63565b8114610c8957600080fd5b50565b600081359050610c9b81610c75565b92915050565b6000819050919050565b610cb481610ca1565b8114610cbf57600080fd5b50565b600081359050610cd181610cab565b92915050565b600080600060608486031215610cf057610cef610c06565b5b6000610cfe86828701610c2e565b9350506020610d0f86828701610c8c565b9250506040610d2086828701610cc2565b9150509250925092565b60008060408385031215610d4157610d40610c06565b5b6000610d4f85828601610c8c565b9250506020610d6085828601610cc2565b9150509250929050565b610d7381610c63565b82525050565b6000602082019050610d8e6000830184610d6a565b92915050565b600060208284031215610daa57610da9610c06565b5b6000610db884828501610c8c565b91505092915050565b610dca81610ca1565b82525050565b600081519050919050565b600082825260208201905092915050565b6000819050602082019050919050565b610e0581610ca1565b82525050565b6000610e178383610dfc565b60208301905092915050565b6000602082019050919050565b6000610e3b82610dd0565b610e458185610ddb565b9350610e5083610dec565b8060005b83811015610e81578151610e688882610e0b565b9750610e7383610e23565b925050600181019050610e54565b5085935050505092915050565b600081519050919050565b600082825260208201905092915050565b6000819050602082019050919050565b610ec381610c63565b82525050565b6000610ed58383610eba565b60208301905092915050565b6000602082019050919050565b6000610ef982610e8e565b610f038185610e99565b9350610f0e83610eaa565b8060005b83811015610f3f578151610f268882610ec9565b9750610f3183610ee1565b925050600181019050610f12565b5085935050505092915050565b6000606082019050610f616000830186610dc1565b8181036020830152610f738185610e30565b90508181036040830152610f878184610eee565b9050949350505050565b60006020820190508181036000830152610fab8184610eee565b905092915050565b6000602082019050610fc86000830184610dc1565b92915050565b610fd781610c0b565b82525050565b600060a082019050610ff26000830188610d6a565b610fff6020830187610d6a565b61100c6040830186610fce565b6110196060830185610d6a565b6110266080830184610dc1565b9695505050505050565b60006040820190506110456000830185610d6a565b6110526020830184610dc1565b9392505050565b7f4e487b7100000000000000000000000000000000000000000000000000000000600052604160045260246000fd5b7f4e487b7100000000000000000000000000000000000000000000000000000000600052603260045260246000fd5b6000815190506110c681610c17565b92915050565b6000602082840312156110e2576110e1610c06565b5b60006110f0848285016110b7565b91505092915050565b60008151905061110881610cab565b92915050565b60006020828403121561112457611123610c06565b5b6000611132848285016110f9565b91505092915050565b7f4e487b7100000000000000000000000000000000000000000000000000000000600052601160045260246000fd5b600061117582610ca1565b915061118083610ca1565b92508282019050808211156111985761119761113b565b5b92915050565b60006111a982610c63565b9050919050565b6111b98161119e565b81146111c457600080fd5b50565b6000815190506111d6816111b0565b92915050565b6000602082840312156111f2576111f1610c06565b5b6000611200848285016111c7565b9150509291505056fe60e060405234801561001057600080fd5b506040516113d23803806113d28339818101604052810190610032919061031d565b84600073ffffffffffffffffffffffffffffffffffffffff168173ffffffffffffffffffffffffffffffffffffffff16036100a55760006040517f1e4fbdf700000000000000000000000000000000000000000000000000000000815260040161009c91906103a7565b60405180910390fd5b6100b48161018860201b60201c565b50600081036100ef576040517f2a82a34f00000000000000000000000000000000000000000000000000000000815260040160405180910390fd5b8373ffffffffffffffffffffffffffffffffffffffff1660808173ffffffffffffffffffffffffffffffffffffffff168152505082151560a081151581525050826101765781600160006101000a81548173ffffffffffffffffffffffffffffffffffffffff021916908373ffffffffffffffffffffffffffffffffffffffff1602179055505b8060c0818152505050505050506103c2565b60008060009054906101000a900473ffffffffffffffffffffffffffffffffffffffff169050816000806101000a81548173ffffffffffffffffffffffffffffffffffffffff021916908373ffffffffffffffffffffffffffffffffffffffff1602179055508173ffffffffffffffffffffffffffffffffffffffff168173ffffffffffffffffffffffffffffffffffffffff167f8be0079c531659141344cd1fd0a4f28419497f9722a3daafe3b4186f6b6457e060405160405180910390a35050565b600080fd5b600073ffffffffffffffffffffffffffffffffffffffff82169050919050565b600061027c82610251565b9050919050565b61028c81610271565b811461029757600080fd5b50565b6000815190506102a981610283565b92915050565b60008115159050919050565b6102c4816102af565b81146102cf57600080fd5b50565b6000815190506102e1816102bb565b92915050565b6000819050919050565b6102fa816102e7565b811461030557600080fd5b50565b600081519050610317816102f1565b92915050565b600080600080600060a086880312156103395761033861024c565b5b60006103478882890161029a565b95505060206103588882890161029a565b9450506040610369888289016102d2565b935050606061037a8882890161029a565b925050608061038b88828901610308565b9150509295509295909350565b6103a181610271565b82525050565b60006020820190506103bc6000830184610398565b92915050565b60805160a05160c051610fa9610429600039600081816102fd01526105c9015260008181610365015281816104b40152818161062a0152818161065c015281816106fe015261074d0152600081816102830152818161038b01526103fa0152610fa96000f3fe6080604052600436106100a75760003560e01c8063a41d3c2e11610064578063a41d3c2e14610186578063b69ef8a8146101b1578063b6b55f25146101dc578063bd28f351146101f8578063f2fde38b14610223578063fc0c546a1461024c576100a7565b806312065fe0146100ac57806317d8ec7f146100d75780633ccfd60b146101025780633fd8b02f14610119578063715018a6146101445780638da5cb5b1461015b575b600080fd5b3480156100b857600080fd5b506100c1610277565b6040516100ce9190610bd3565b60405180910390f35b3480156100e357600080fd5b506100ec610281565b6040516100f99190610c2f565b60405180910390f35b34801561010e57600080fd5b506101176102a5565b005b34801561012557600080fd5b5061012e6105c7565b60405161013b9190610bd3565b60405180910390f35b34801561015057600080fd5b506101596105eb565b005b34801561016757600080fd5b506101706105ff565b60405161017d9190610c2f565b60405180910390f35b34801561019257600080fd5b5061019b610628565b6040516101a89190610c65565b60405180910390f35b3480156101bd57600080fd5b506101c661064c565b6040516101d39190610bd3565b60405180910390f35b6101f660048036038101906101f19190610cb1565b610652565b005b34801561020457600080fd5b5061020d610812565b60405161021a9190610bd3565b60405180910390f35b34801561022f57600080fd5b5061024a60048036038101906102459190610d0a565b610818565b005b34801561025857600080fd5b5061026161089e565b60405161026e9190610d96565b60405180910390f35b6000600354905090565b7f000000000000000000000000000000000000000000000000000000000000000081565b6102ad6108c4565b6000600354036102e9576040517f27fcd9d100000000000000000000000000000000000000000000000000000000815260040160405180910390fd5b6000600354905060008060038190555060007f00000000000000000000000000000000000000000000000000000000000000006002546103299190610de0565b42109050801561035d5760646003846103429190610e14565b61034c9190610e85565b9150818361035a9190610eb6565b92505b80156104b2577f0000000000000000000000000000000000000000000000000000000000000000156103f5577f000000000000000000000000000000000000000000000000000000000000000073ffffffffffffffffffffffffffffffffffffffff166108fc839081150290604051600060405180830381858888f193505050501580156103ef573d6000803e3d6000fd5b50610463565b6104627f000000000000000000000000000000000000000000000000000000000000000083600160009054906101000a900473ffffffffffffffffffffffffffffffffffffffff1673ffffffffffffffffffffffffffffffffffffffff1661094b9092919063ffffffff16565b5b3373ffffffffffffffffffffffffffffffffffffffff167fc81dbe087466fa581b2057cf30edd784e6bc1ef91d02c58c9386389da2f9e224836040516104a99190610bd3565b60405180910390a25b7f000000000000000000000000000000000000000000000000000000000000000015610524573373ffffffffffffffffffffffffffffffffffffffff166108fc849081150290604051600060405180830381858888f1935050505015801561051e573d6000803e3d6000fd5b50610572565b6105713384600160009054906101000a900473ffffffffffffffffffffffffffffffffffffffff1673ffffffffffffffffffffffffffffffffffffffff1661094b9092919063ffffffff16565b5b3373ffffffffffffffffffffffffffffffffffffffff167f92ccf450a286a957af52509bc1c9939d1a6a481783e142e41e2499f0bb66ebc684846040516105ba929190610eea565b60405180910390a2505050565b7f000000000000000000000000000000000000000000000000000000000000000081565b6105f36108c4565b6105fd60006109ca565b565b60008060009054906101000a900473ffffffffffffffffffffffffffffffffffffffff16905090565b7f000000000000000000000000000000000000000000000000000000000000000081565b60035481565b61065a6108c4565b7f0000000000000000000000000000000000000000000000000000000000000000156106bf57600034036106ba576040517fb2e532de00000000000000000000000000000000000000000000000000000000815260040160405180910390fd5b6106fa565b600081036106f9576040517fb2e532de00000000000000000000000000000000000000000000000000000000815260040160405180910390fd5b5b60007f00000000000000000000000000000000000000000000000000000000000000006107275781610729565b345b9050806003600082825461073d9190610de0565b92505081905550426002819055507f00000000000000000000000000000000000000000000000000000000000000006107c0576107bf333084600160009054906101000a900473ffffffffffffffffffffffffffffffffffffffff1673ffffffffffffffffffffffffffffffffffffffff16610a8e909392919063ffffffff16565b5b3373ffffffffffffffffffffffffffffffffffffffff167f2da466a7b24304f47e87fa2e1e5a81b9831ce54fec19055ce277ca2f39ba42c4826040516108069190610bd3565b60405180910390a25050565b60025481565b6108206108c4565b600073ffffffffffffffffffffffffffffffffffffffff168173ffffffffffffffffffffffffffffffffffffffff16036108925760006040517f1e4fbdf70000000000000000000000000000000000000000000000000000000081526004016108899190610c2f565b60405180910390fd5b61089b816109ca565b50565b600160009054906101000a900473ffffffffffffffffffffffffffffffffffffffff1681565b6108cc610b10565b73ffffffffffffffffffffffffffffffffffffffff166108ea6105ff565b73ffffffffffffffffffffffffffffffffffffffff16146109495761090d610b10565b6040517f118cdaa70000000000000000000000000000000000000000000000000000000081526004016109409190610c2f565b60405180910390fd5b565b6109c5838473ffffffffffffffffffffffffffffffffffffffff1663a9059cbb858560405160240161097e929190610f13565b604051602081830303815290604052915060e01b6020820180517bffffffffffffffffffffffffffffffffffffffffffffffffffffffff8381831617835250505050610b18565b505050565b60008060009054906101000a900473ffffffffffffffffffffffffffffffffffffffff169050816000806101000a81548173ffffffffffffffffffffffffffffffffffffffff021916908373ffffffffffffffffffffffffffffffffffffffff1602179055508173ffffffffffffffffffffffffffffffffffffffff168173ffffffffffffffffffffffffffffffffffffffff167f8be0079c531659141344cd1fd0a4f28419497f9722a3daafe3b4186f6b6457e060405160405180910390a35050565b610b0a848573ffffffffffffffffffffffffffffffffffffffff166323b872dd868686604051602401610ac393929190610f3c565b604051602081830303815290604052915060e01b6020820180517bffffffffffffffffffffffffffffffffffffffffffffffffffffffff8381831617835250505050610b18565b50505050565b600033905090565b600080602060008451602086016000885af180610b3b576040513d6000823e3d81fd5b3d925060005191505060008214610b56576001811415610b72565b60008473ffffffffffffffffffffffffffffffffffffffff163b145b15610bb457836040517f5274afe7000000000000000000000000000000000000000000000000000000008152600401610bab9190610c2f565b60405180910390fd5b50505050565b6000819050919050565b610bcd81610bba565b82525050565b6000602082019050610be86000830184610bc4565b92915050565b600073ffffffffffffffffffffffffffffffffffffffff82169050919050565b6000610c1982610bee565b9050919050565b610c2981610c0e565b82525050565b6000602082019050610c446000830184610c20565b92915050565b60008115159050919050565b610c5f81610c4a565b82525050565b6000602082019050610c7a6000830184610c56565b92915050565b600080fd5b610c8e81610bba565b8114610c9957600080fd5b50565b600081359050610cab81610c85565b92915050565b600060208284031215610cc757610cc6610c80565b5b6000610cd584828501610c9c565b91505092915050565b610ce781610c0e565b8114610cf257600080fd5b50565b600081359050610d0481610cde565b92915050565b600060208284031215610d2057610d1f610c80565b5b6000610d2e84828501610cf5565b91505092915050565b6000819050919050565b6000610d5c610d57610d5284610bee565b610d37565b610bee565b9050919050565b6000610d6e82610d41565b9050919050565b6000610d8082610d63565b9050919050565b610d9081610d75565b82525050565b6000602082019050610dab6000830184610d87565b92915050565b7f4e487b7100000000000000000000000000000000000000000000000000000000600052601160045260246000fd5b6000610deb82610bba565b9150610df683610bba565b9250828201905080821115610e0e57610e0d610db1565b5b92915050565b6000610e1f82610bba565b9150610e2a83610bba565b9250828202610e3881610bba565b91508282048414831517610e4f57610e4e610db1565b5b5092915050565b7f4e487b7100000000000000000000000000000000000000000000000000000000600052601260045260246000fd5b6000610e9082610bba565b9150610e9b83610bba565b925082610eab57610eaa610e56565b5b828204905092915050565b6000610ec182610bba565b9150610ecc83610bba565b9250828203905081811115610ee457610ee3610db1565b5b92915050565b6000604082019050610eff6000830185610bc4565b610f0c6020830184610bc4565b9392505050565b6000604082019050610f286000830185610c20565b610f356020830184610bc4565b9392505050565b6000606082019050610f516000830186610c20565b610f5e6020830185610c20565b610f6b6040830184610bc4565b94935050505056fea2646970667358221220d087be046afe137cb594681132ecaf8ee6b332e71f00d619f4d645a0f6a2ccb864736f6c634300081c0033a2646970667358221220cd9d12caa50fcaa1bf35de6633a3915be55d61200942d1d547cf31fa1bfac4be64736f6c634300081c0033",
  "linkReferences": {},
  "deployedLinkReferences": {}
}