{
  "_format": "hh-sol-artifact-1",
  "contractName": "GarageAccess",
  "sourceName": "contracts/GarageAccess.sol",
  "abi": [
    {
      "anonymous": false,
      "inputs": [
        {
          "indexed": true,
          "internalType": "address",
          "name": "employeeAddress",
          "type": "address"
        },
        {
          "indexed": false,
          "internalType": "bool",
          "name": "canAccess",
          "type": "bool"
        }
      ],
      "name": "AccessChecked",
      "type": "event"
    },
    {
      "anonymous": false,
      "inputs": [
        {
          "indexed": true,
          "internalType": "address",
          "name": "employeeAddress",
          "type": "address"
        },
        {
          "indexed": false,
          "internalType": "string",
          "name": "name",
          "type": "string"
        },
        {
          "indexed": false,
          "internalType": "enum GarageAccess.Role",
          "name": "role",
          "type": "uint8"
        }
      ],
      "name": "EmployeeAdded",
      "type": "event"
    },
    {
      "anonymous": false,
      "inputs": [
        {
          "indexed": true,
          "internalType": "address",
          "name": "employeeAddress",
          "type": "address"
        },
        {
          "indexed": false,
          "internalType": "string",
          "name": "name",
          "type": "string"
        },
        {
          "indexed": false,
          "internalType": "enum GarageAccess.Role",
          "name": "role",
          "type": "uint8"
        },
        {
          "indexed": false,
          "internalType": "bool",
          "name": "isEmployed",
          "type": "bool"
        }
      ],
      "name": "EmployeeUpdated",
      "type": "event"
    },
    {
      "inputs": [
        {
          "internalType": "address",
          "name": "_employeeAddress",
          "type": "address"
        },
        {
          "internalType": "string",
          "name": "_name",
          "type": "string"
        },
        {
          "internalType": "enum GarageAccess.Role",
          "name": "_role",
          "type": "uint8"
        },
        {
          "internalType": "bool",
          "name": "_isEmployed",
          "type": "bool"
        }
      ],
      "name": "addOrUpdateEmployee",
      "outputs": [],
      "stateMutability": "nonpayable",
      "type": "function"
    },
    {
      "inputs": [
        {
          "internalType": "uint256",
          "name": "",
          "type": "uint256"
        }
      ],
      "name": "allEmployees",
      "outputs": [
        {
          "internalType": "string",
          "name": "name",
          "type": "string"
        },
        {
          "internalType": "enum GarageAccess.Role",
          "name": "role",
          "type": "uint8"
        },
        {
          "internalType": "bool",
          "name": "isEmployed",
          "type": "bool"
        }
      ],
      "stateMutability": "view",
      "type": "function"
    },
    {
      "inputs": [
        {
          "internalType": "address",
          "name": "_employeeAddress",
          "type": "address"
        }
      ],
      "name": "canAccessGarage",
      "outputs": [
        {
          "internalType": "bool",
          "name": "",
          "type": "bool"
        }
      ],
      "stateMutability": "nonpayable",
      "type": "function"
    },
    {
      "inputs": [
        {
          "internalType": "address",
          "name": "",
          "type": "address"
        }
      ],
      "name": "employees",
      "outputs": [
        {
          "internalType": "string",
          "name": "name",
          "type": "string"
        },
        {
          "internalType": "enum GarageAccess.Role",
          "name": "role",
          "type": "uint8"
        },
        {
          "internalType": "bool",
          "name": "isEmployed",
          "type": "bool"
        }
      ],
      "stateMutability": "view",
      "type": "function"
    },
    {
      "inputs": [],
      "name": "getAllEmployees",
      "outputs": [
        {
          "components": [
            {
              "internalType": "string",
              "name": "name",
              "type": "string"
            },
            {
              "internalType": "enum GarageAccess.Role",
              "name": "role",
              "type": "uint8"
            },
            {
              "internalType": "bool",
              "name": "isEmployed",
              "type": "bool"
            }
          ],
          "internalType": "struct GarageAccess.Employee[]",
          "name": "",
          "type": "tuple[]"
        }
      ],
      "stateMutability": "view",
      "type": "function"
    },
    {
      "inputs": [
        {
          "internalType": "address",
          "name": "_employeeAddress",
          "type": "address"
        }
      ],
      "name": "getEmployee",
      "outputs": [
        {
          "internalType": "string",
          "name": "name",
          "type": "string"
        },
        {
          "internalType": "enum GarageAccess.Role",
          "name": "role",
          "type": "uint8"
        },
        {
          "internalType": "bool",
          "name": "isEmployed",
          "type": "bool"
        }
      ],
      "stateMutability": "view",
      "type": "function"
    }
  ],
  "bytecode": "0x6080604052348015600f57600080fd5b5061166b8061001f6000396000f3fe608060405234801561001057600080fd5b50600436106100625760003560e01c806332648e091461006757806385340eb414610099578063b24e34c8146100cb578063d0678947146100fb578063e3366fed1461012d578063e95a84f01461014b575b600080fd5b610081600480360381019061007c9190610c33565b610167565b60405161009093929190610d82565b60405180910390f35b6100b360048036038101906100ae9190610df6565b610306565b6040516100c293929190610d82565b60405180910390f35b6100e560048036038101906100e09190610c33565b6103e2565b6040516100f29190610e23565b60405180910390f35b61011560048036038101906101109190610c33565b61065b565b60405161012493929190610d82565b60405180910390f35b610135610727565b6040516101429190610fb8565b60405180910390f35b61016560048036038101906101609190611160565b61086e565b005b606060008060008060008673ffffffffffffffffffffffffffffffffffffffff1673ffffffffffffffffffffffffffffffffffffffff1681526020019081526020016000206040518060600160405290816000820180546101c790611212565b80601f01602080910402602001604051908101604052809291908181526020018280546101f390611212565b80156102405780601f1061021557610100808354040283529160200191610240565b820191906000526020600020905b81548152906001019060200180831161022357829003601f168201915b505050505081526020016001820160009054906101000a900460ff16600581111561026e5761026d610cf0565b5b60058111156102805761027f610cf0565b5b81526020016001820160019054906101000a900460ff16151515158152505090506000816000015151116102e9576040517f08c379a00000000000000000000000000000000000000000000000000000000081526004016102e09061128f565b60405180910390fd5b806000015181602001518260400151935093509350509193909250565b6001818154811061031657600080fd5b906000526020600020906002020160009150905080600001805461033990611212565b80601f016020809104026020016040519081016040528092919081815260200182805461036590611212565b80156103b25780601f10610387576101008083540402835291602001916103b2565b820191906000526020600020905b81548152906001019060200180831161039557829003601f168201915b5050505050908060010160009054906101000a900460ff16908060010160019054906101000a900460ff16905083565b6000806000808473ffffffffffffffffffffffffffffffffffffffff1673ffffffffffffffffffffffffffffffffffffffff16815260200190815260200160002060405180606001604052908160008201805461043e90611212565b80601f016020809104026020016040519081016040528092919081815260200182805461046a90611212565b80156104b75780601f1061048c576101008083540402835291602001916104b7565b820191906000526020600020905b81548152906001019060200180831161049a57829003601f168201915b505050505081526020016001820160009054906101000a900460ff1660058111156104e5576104e4610cf0565b5b60058111156104f7576104f6610cf0565b5b81526020016001820160019054906101000a900460ff1615151515815250509050600081600001515111610560576040517f08c379a00000000000000000000000000000000000000000000000000000000081526004016105579061128f565b60405180910390fd5b60008160400151801561060157506000600581111561058257610581610cf0565b5b8260200151600581111561059957610598610cf0565b5b14806105cd5750600160058111156105b4576105b3610cf0565b5b826020015160058111156105cb576105ca610cf0565b5b145b806106005750600260058111156105e7576105e6610cf0565b5b826020015160058111156105fe576105fd610cf0565b5b145b5b90508373ffffffffffffffffffffffffffffffffffffffff167fb5e4cd54585c47268f4ffad5dcfa1f9188442aabfd9b6c6cccb9558f6b7ca83d826040516106499190610e23565b60405180910390a28092505050919050565b600060205280600052604060002060009150905080600001805461067e90611212565b80601f01602080910402602001604051908101604052809291908181526020018280546106aa90611212565b80156106f75780601f106106cc576101008083540402835291602001916106f7565b820191906000526020600020905b8154815290600101906020018083116106da57829003601f168201915b5050505050908060010160009054906101000a900460ff16908060010160019054906101000a900460ff16905083565b60606001805480602002602001604051908101604052809291908181526020016000905b82821015610865578382906000526020600020906002020160405180606001604052908160008201805461077e90611212565b80601f01602080910402602001604051908101604052809291908181526020018280546107aa90611212565b80156107f75780601f106107cc576101008083540402835291602001916107f7565b820191906000526020600020905b8154815290600101906020018083116107da57829003601f168201915b505050505081526020016001820160009054906101000a900460ff16600581111561082557610824610cf0565b5b600581111561083757610836610cf0565b5b81526020016001820160019054906101000a900460ff1615151515815250508152602001906001019061074b565b50505050905090565b60008351116108b2576040517f08c379a00000000000000000000000000000000000000000000000000000000081526004016108a9906112fb565b60405180910390fd5b600073ffffffffffffffffffffffffffffffffffffffff168473ffffffffffffffffffffffffffffffffffffffff1603610921576040517f08c379a000000000000000000000000000000000000000000000000000000000815260040161091890611367565b60405180910390fd5b6000806000808773ffffffffffffffffffffffffffffffffffffffff1673ffffffffffffffffffffffffffffffffffffffff168152602001908152602001600020600001805461097090611212565b9050119050604051806060016040528085815260200184600581111561099957610998610cf0565b5b81526020018315158152506000808773ffffffffffffffffffffffffffffffffffffffff1673ffffffffffffffffffffffffffffffffffffffff16815260200190815260200160002060008201518160000190816109f79190611533565b5060208201518160010160006101000a81548160ff02191690836005811115610a2357610a22610cf0565b5b021790555060408201518160010160016101000a81548160ff02191690831515021790555090505080610b675760016040518060600160405280868152602001856005811115610a7657610a75610cf0565b5b815260200184151581525090806001815401808255809150506001900390600052602060002090600202016000909190919091506000820151816000019081610abf9190611533565b5060208201518160010160006101000a81548160ff02191690836005811115610aeb57610aea610cf0565b5b021790555060408201518160010160016101000a81548160ff02191690831515021790555050508473ffffffffffffffffffffffffffffffffffffffff167f94f4b8b94d523e47ee922e7e86902133812e741fdb5b5dedeae8921f95a3e1be8585604051610b5a929190611605565b60405180910390a2610bba565b8473ffffffffffffffffffffffffffffffffffffffff167f841dc1912e10091eea37e32de2d705c2d83d58b21712248e0cc5bdb76c67f800858585604051610bb193929190610d82565b60405180910390a25b5050505050565b6000604051905090565b600080fd5b600080fd5b600073ffffffffffffffffffffffffffffffffffffffff82169050919050565b6000610c0082610bd5565b9050919050565b610c1081610bf5565b8114610c1b57600080fd5b50565b600081359050610c2d81610c07565b92915050565b600060208284031215610c4957610c48610bcb565b5b6000610c5784828501610c1e565b91505092915050565b600081519050919050565b600082825260208201905092915050565b60005b83811015610c9a578082015181840152602081019050610c7f565b60008484015250505050565b6000601f19601f8301169050919050565b6000610cc282610c60565b610ccc8185610c6b565b9350610cdc818560208601610c7c565b610ce581610ca6565b840191505092915050565b7f4e487b7100000000000000000000000000000000000000000000000000000000600052602160045260246000fd5b60068110610d3057610d2f610cf0565b5b50565b6000819050610d4182610d1f565b919050565b6000610d5182610d33565b9050919050565b610d6181610d46565b82525050565b60008115159050919050565b610d7c81610d67565b82525050565b60006060820190508181036000830152610d9c8186610cb7565b9050610dab6020830185610d58565b610db86040830184610d73565b949350505050565b6000819050919050565b610dd381610dc0565b8114610dde57600080fd5b50565b600081359050610df081610dca565b92915050565b600060208284031215610e0c57610e0b610bcb565b5b6000610e1a84828501610de1565b91505092915050565b6000602082019050610e386000830184610d73565b92915050565b600081519050919050565b600082825260208201905092915050565b6000819050602082019050919050565b600082825260208201905092915050565b6000610e8682610c60565b610e908185610e6a565b9350610ea0818560208601610c7c565b610ea981610ca6565b840191505092915050565b610ebd81610d46565b82525050565b610ecc81610d67565b82525050565b60006060830160008301518482036000860152610eef8282610e7b565b9150506020830151610f046020860182610eb4565b506040830151610f176040860182610ec3565b508091505092915050565b6000610f2e8383610ed2565b905092915050565b6000602082019050919050565b6000610f4e82610e3e565b610f588185610e49565b935083602082028501610f6a85610e5a565b8060005b85811015610fa65784840389528151610f878582610f22565b9450610f9283610f36565b925060208a01995050600181019050610f6e565b50829750879550505050505092915050565b60006020820190508181036000830152610fd28184610f43565b905092915050565b600080fd5b600080fd5b7f4e487b7100000000000000000000000000000000000000000000000000000000600052604160045260246000fd5b61101c82610ca6565b810181811067ffffffffffffffff8211171561103b5761103a610fe4565b5b80604052505050565b600061104e610bc1565b905061105a8282611013565b919050565b600067ffffffffffffffff82111561107a57611079610fe4565b5b61108382610ca6565b9050602081019050919050565b82818337600083830152505050565b60006110b26110ad8461105f565b611044565b9050828152602081018484840111156110ce576110cd610fdf565b5b6110d9848285611090565b509392505050565b600082601f8301126110f6576110f5610fda565b5b813561110684826020860161109f565b91505092915050565b6006811061111c57600080fd5b50565b60008135905061112e8161110f565b92915050565b61113d81610d67565b811461114857600080fd5b50565b60008135905061115a81611134565b92915050565b6000806000806080858703121561117a57611179610bcb565b5b600061118887828801610c1e565b945050602085013567ffffffffffffffff8111156111a9576111a8610bd0565b5b6111b5878288016110e1565b93505060406111c68782880161111f565b92505060606111d78782880161114b565b91505092959194509250565b7f4e487b7100000000000000000000000000000000000000000000000000000000600052602260045260246000fd5b6000600282049050600182168061122a57607f821691505b60208210810361123d5761123c6111e3565b5b50919050565b7f456d706c6f79656520646f6573206e6f74206578697374000000000000000000600082015250565b6000611279601783610c6b565b915061128482611243565b602082019050919050565b600060208201905081810360008301526112a88161126c565b9050919050565b7f4e616d652063616e6e6f7420626520656d707479000000000000000000000000600082015250565b60006112e5601483610c6b565b91506112f0826112af565b602082019050919050565b60006020820190508181036000830152611314816112d8565b9050919050565b7f496e76616c696420616464726573730000000000000000000000000000000000600082015250565b6000611351600f83610c6b565b915061135c8261131b565b602082019050919050565b6000602082019050818103600083015261138081611344565b9050919050565b60008190508160005260206000209050919050565b60006020601f8301049050919050565b600082821b905092915050565b6000600883026113e97fffffffffffffffffffffffffffffffffffffffffffffffffffffffffffffffff826113ac565b6113f386836113ac565b95508019841693508086168417925050509392505050565b6000819050919050565b600061143061142b61142684610dc0565b61140b565b610dc0565b9050919050565b6000819050919050565b61144a83611415565b61145e61145682611437565b8484546113b9565b825550505050565b600090565b611473611466565b61147e818484611441565b505050565b5b818110156114a25761149760008261146b565b600181019050611484565b5050565b601f8211156114e7576114b881611387565b6114c18461139c565b810160208510156114d0578190505b6114e46114dc8561139c565b830182611483565b50505b505050565b600082821c905092915050565b600061150a600019846008026114ec565b1980831691505092915050565b600061152383836114f9565b9150826002028217905092915050565b61153c82610c60565b67ffffffffffffffff81111561155557611554610fe4565b5b61155f8254611212565b61156a8282856114a6565b600060209050601f83116001811461159d576000841561158b578287015190505b6115958582611517565b8655506115fd565b601f1984166115ab86611387565b60005b828110156115d3578489015182556001820191506020850194506020810190506115ae565b868310156115f057848901516115ec601f8916826114f9565b8355505b6001600288020188555050505b505050505050565b6000604082019050818103600083015261161f8185610cb7565b905061162e6020830184610d58565b939250505056fea26469706673582212209832c26409cfb8609f9dda3e5f9a3ed70f8991090cc7e4c352e24c11c220b4af64736f6c634300081c0033",
  "linkReferences": {},
  "deployedLinkReferences": {}
}